{"contracts/SponsoredRaffle.sol":{"SponsoredRaffle":{"abi":[{"inputs":[{"internalType":"address","name":"owner_","type":"address"},{"internalType":"address","name":"vrfCoordinator","type":"address"},{"internalType":"bytes32","name":"keyHash_","type":"bytes32"},{"internalType":"uint64","name":"subId","type":"uint64"},{"internalType":"uint256","name":"winnersCount_","type":"uint256"}],"stateMutability":"nonpayable","type":"constructor"},{"inputs":[],"name":"ECDSAInvalidSignature","type":"error"},{"inputs":[{"internalType":"uint256","name":"length","type":"uint256"}],"name":"ECDSAInvalidSignatureLength","type":"error"},{"inputs":[{"internalType":"bytes32","name":"s","type":"bytes32"}],"name":"ECDSAInvalidSignatureS","type":"error"},{"inputs":[],"name":"InvalidShortString","type":"error"},{"inputs":[{"internalType":"address","name":"have","type":"address"},{"internalType":"address","name":"want","type":"address"}],"name":"OnlyCoordinatorCanFulfill","type":"error"},{"inputs":[{"internalType":"address","name":"owner","type":"address"}],"name":"OwnableInvalidOwner","type":"error"},{"inputs":[{"internalType":"address","name":"account","type":"address"}],"name":"OwnableUnauthorizedAccount","type":"error"},{"inputs":[],"name":"ReentrancyGuardReentrantCall","type":"error"},{"inputs":[{"internalType":"string","name":"str","type":"string"}],"name":"StringTooLong","type":"error"},{"anonymous":false,"inputs":[],"name":"EIP712DomainChanged","type":"event"},{"anonymous":false,"inputs":[{"indexed":true,"internalType":"address","name":"user","type":"address"},{"indexed":true,"internalType":"uint256","name":"raffleId","type":"uint256"},{"indexed":false,"internalType":"uint256","name":"totalEntrants","type":"uint256"}],"name":"Entered","type":"event"},{"anonymous":false,"inputs":[{"indexed":true,"internalType":"uint256","name":"raffleId","type":"uint256"},{"indexed":false,"internalType":"uint256","name":"totalEntrants","type":"uint256"}],"name":"Locked","type":"event"},{"anonymous":false,"inputs":[{"indexed":true,"internalType":"uint256","name":"raffleId","type":"uint256"},{"indexed":false,"internalType":"uint256","name":"winnersCount","type":"uint256"}],"name":"NewRound","type":"event"},{"anonymous":false,"inputs":[{"indexed":true,"internalType":"address","name":"previousOwner","type":"address"},{"indexed":true,"internalType":"address","name":"newOwner","type":"address"}],"name":"OwnershipTransferred","type":"event"},{"anonymous":false,"inputs":[{"indexed":true,"internalType":"uint256","name":"raffleId","type":"uint256"},{"indexed":false,"internalType":"uint64","name":"requestId","type":"uint64"}],"name":"VRFRequested","type":"event"},{"anonymous":false,"inputs":[{"indexed":true,"internalType":"uint256","name":"raffleId","type":"uint256"},{"indexed":false,"internalType":"address[]","name":"winners","type":"address[]"}],"name":"WinnersDrawn","type":"event"},{"inputs":[],"name":"COORDINATOR","outputs":[{"internalType":"contract VRFCoordinatorV2Interface","name":"","type":"address"}],"stateMutability":"view","type":"function"},{"inputs":[],"name":"callbackGasLimit","outputs":[{"internalType":"uint32","name":"","type":"uint32"}],"stateMutability":"view","type":"function"},{"inputs":[],"name":"eip712Domain","outputs":[{"internalType":"bytes1","name":"fields","type":"bytes1"},{"internalType":"string","name":"name","type":"string"},{"internalType":"string","name":"version","type":"string"},{"internalType":"uint256","name":"chainId","type":"uint256"},{"internalType":"address","name":"verifyingContract","type":"address"},{"internalType":"bytes32","name":"salt","type":"bytes32"},{"internalType":"uint256[]","name":"extensions","type":"uint256[]"}],"stateMutability":"view","type":"function"},{"inputs":[{"internalType":"address","name":"user","type":"address"},{"internalType":"uint256","name":"nonce","type":"uint256"},{"internalType":"uint256","name":"deadline","type":"uint256"},{"internalType":"bytes","name":"signature","type":"bytes"}],"name":"enterWithSig","outputs":[],"stateMutability":"nonpayable","type":"function"},{"inputs":[{"internalType":"uint256","name":"","type":"uint256"},{"internalType":"address","name":"","type":"address"}],"name":"entered","outputs":[{"internalType":"bool","name":"","type":"bool"}],"stateMutability":"view","type":"function"},{"inputs":[],"name":"entrantsAll","outputs":[{"internalType":"address[]","name":"","type":"address[]"}],"stateMutability":"view","type":"function"},{"inputs":[],"name":"entrantsCount","outputs":[{"internalType":"uint256","name":"","type":"uint256"}],"stateMutability":"view","type":"function"},{"inputs":[],"name":"keyHash","outputs":[{"internalType":"bytes32","name":"","type":"bytes32"}],"stateMutability":"view","type":"function"},{"inputs":[],"name":"lastRequestId","outputs":[{"internalType":"uint256","name":"","type":"uint256"}],"stateMutability":"view","type":"function"},{"inputs":[],"name":"lock","outputs":[],"stateMutability":"nonpayable","type":"function"},{"inputs":[{"internalType":"uint256","name":"newWinnersCount","type":"uint256"}],"name":"newRound","outputs":[],"stateMutability":"nonpayable","type":"function"},{"inputs":[{"internalType":"address","name":"","type":"address"}],"name":"nonces","outputs":[{"internalType":"uint256","name":"","type":"uint256"}],"stateMutability":"view","type":"function"},{"inputs":[],"name":"numWords","outputs":[{"internalType":"uint32","name":"","type":"uint32"}],"stateMutability":"view","type":"function"},{"inputs":[],"name":"owner","outputs":[{"internalType":"address","name":"","type":"address"}],"stateMutability":"view","type":"function"},{"inputs":[],"name":"phase","outputs":[{"internalType":"enum SponsoredRaffle.Phase","name":"","type":"uint8"}],"stateMutability":"view","type":"function"},{"inputs":[],"name":"raffleId","outputs":[{"internalType":"uint256","name":"","type":"uint256"}],"stateMutability":"view","type":"function"},{"inputs":[],"name":"randomWord","outputs":[{"internalType":"uint256","name":"","type":"uint256"}],"stateMutability":"view","type":"function"},{"inputs":[{"internalType":"uint256","name":"requestId","type":"uint256"},{"internalType":"uint256[]","name":"randomWords","type":"uint256[]"}],"name":"rawFulfillRandomWords","outputs":[],"stateMutability":"nonpayable","type":"function"},{"inputs":[],"name":"renounceOwnership","outputs":[],"stateMutability":"nonpayable","type":"function"},{"inputs":[],"name":"requestConfirmations","outputs":[{"internalType":"uint16","name":"","type":"uint16"}],"stateMutability":"view","type":"function"},{"inputs":[],"name":"requestRandomness","outputs":[],"stateMutability":"nonpayable","type":"function"},{"inputs":[],"name":"subscriptionId","outputs":[{"internalType":"uint64","name":"","type":"uint64"}],"stateMutability":"view","type":"function"},{"inputs":[{"internalType":"address","name":"newOwner","type":"address"}],"name":"transferOwnership","outputs":[],"stateMutability":"nonpayable","type":"function"},{"inputs":[],"name":"winnersCount","outputs":[{"internalType":"uint256","name":"","type":"uint256"}],"stateMutability":"view","type":"function"}],"evm":{"bytecode":{"linkReferences":{},"object":"6101a0604052600b8054600160401b600160901b0319166e0100055730000300000000000000001790553480156200003657600080fd5b5060405162001e4638038062001e46833981016040819052620000599162000311565b83856040518060400160405280600f81526020016e53706f6e736f726564526166666c6560881b815250604051806040016040528060018152602001603160f81b815250620000b36000836200022660201b90919060201c565b61012052620000c481600162000226565b61014052815160208084019190912060e052815190820120610100524660a0526200015260e05161010051604080517f8b73c3c69bb8fe3d512ecc4cf759cc79239f7b179b0ffacaa9a75d522b39400f60208201529081019290925260608201524660808201523060a082015260009060c00160405160208183030381529060405280519060200120905090565b60805250503060c0526001600160a01b0381166200018b57604051631e4fbdf760e01b8152600060048201526024015b60405180910390fd5b62000196816200025f565b50600160038190556001600160a01b039182166101605290851661018052600a849055600b80546001600160401b0319166001600160401b038516179055600682905560058190556004805460ff191690556040518281527f1237ad121dfe1e3abc3b4254161693eb4add51b458114b8c15502bea94a6b02b9060200160405180910390a2505050505062000568565b600060208351101562000246576200023e83620002b1565b905062000259565b8162000253848262000426565b5060ff90505b92915050565b600280546001600160a01b038381166001600160a01b0319831681179093556040519116919082907f8be0079c531659141344cd1fd0a4f28419497f9722a3daafe3b4186f6b6457e090600090a35050565b600080829050601f81511115620002df578260405163305a27a960e01b8152600401620001829190620004f2565b8051620002ec8262000543565b179392505050565b80516001600160a01b03811681146200030c57600080fd5b919050565b600080600080600060a086880312156200032a57600080fd5b6200033586620002f4565b94506200034560208701620002f4565b6040870151606088015191955093506001600160401b03811681146200036a57600080fd5b80925050608086015190509295509295909350565b634e487b7160e01b600052604160045260246000fd5b600181811c90821680620003aa57607f821691505b602082108103620003cb57634e487b7160e01b600052602260045260246000fd5b50919050565b601f82111562000421576000816000526020600020601f850160051c81016020861015620003fc5750805b601f850160051c820191505b818110156200041d5782815560010162000408565b5050505b505050565b81516001600160401b038111156200044257620004426200037f565b6200045a8162000453845462000395565b84620003d1565b602080601f831160018114620004925760008415620004795750858301515b600019600386901b1c1916600185901b1785556200041d565b600085815260208120601f198616915b82811015620004c357888601518255948401946001909101908401620004a2565b5085821015620004e25787850151600019600388901b60f8161c191681555b5050505050600190811b01905550565b60006020808352835180602085015260005b81811015620005225785810183015185820160400152820162000504565b506000604082860101526040601f19601f8301168501019250505092915050565b80516020808301519190811015620003cb5760001960209190910360031b1b16919050565b60805160a05160c05160e051610100516101205161014051610160516101805161185f620005e76000396000818161020f0152610ae701526000818161076d01526107af01526000610fb201526000610f80015260006110b20152600061108a01526000610fe50152600061100f01526000611039015261185f6000f3fe608060405234801561001057600080fd5b50600436106101585760003560e01c80637ecebe00116100c3578063b375603c1161007c578063b375603c14610359578063f2fde38b14610362578063f568418314610375578063f83d08ba1461037e578063f8413b0714610386578063fc2a88c31461038e57600080fd5b80637ecebe00146102b857806384b0196e146102d85780638da5cb5b146102f3578063a35bd59114610304578063b0fb162f14610317578063b1c9fe6e1461033f57600080fd5b80633b2bcbf1116101155780633b2bcbf11461020a57806349713811146102495780634d3338141461025257806361728f3914610290578063715018a6146102995780637ccfd7fc146102a157600080fd5b806309c1ba2e1461015d5780630d05532a1461018f578063103064cb146101a45780631fe543e3146101b957806321af3f9f146101cc57806324f74697146101de575b600080fd5b600b546101719067ffffffffffffffff1681565b60405167ffffffffffffffff90911681526020015b60405180910390f35b610197610397565b604051610186919061141c565b6101b76101b2366004611485565b6103f9565b005b6101b76101c736600461152f565b610762565b6007545b604051908152602001610186565b600b546101f590600160501b900463ffffffff1681565b60405163ffffffff9091168152602001610186565b6102317f000000000000000000000000000000000000000000000000000000000000000081565b6040516001600160a01b039091168152602001610186565b6101d060065481565b6102806102603660046115f9565b600860209081526000928352604080842090915290825290205460ff1681565b6040519015158152602001610186565b6101d0600a5481565b6101b76107ea565b600b546101f590600160701b900463ffffffff1681565b6101d06102c6366004611625565b60096020526000908152604090205481565b6102e06107fe565b604051610186979695949392919061168d565b6002546001600160a01b0316610231565b6101b7610312366004611726565b610844565b600b5461032c90600160401b900461ffff1681565b60405161ffff9091168152602001610186565b60045461034c9060ff1681565b6040516101869190611755565b6101d060055481565b6101b7610370366004611625565b610931565b6101d0600d5481565b6101b761096f565b6101b7610a0e565b6101d0600c5481565b606060078054806020026020016040519081016040528092919081815260200182805480156103ef57602002820191906000526020600020905b81546001600160a01b031681526001909101906020018083116103d1575b5050505050905090565b610401610b98565b600060045460ff16600381111561041a5761041a61173f565b1461046c5760405162461bcd60e51b815260206004820152601760248201527f524146464c453a206e6f7420656e74657220706861736500000000000000000060448201526064015b60405180910390fd5b824211156104ae5760405162461bcd60e51b815260206004820152600f60248201526e1490519193114e88195e1c1a5c9959608a1b6044820152606401610463565b60055460009081526008602090815260408083206001600160a01b038916845290915290205460ff16156105245760405162461bcd60e51b815260206004820152601760248201527f524146464c453a20616c726561647920656e74657265640000000000000000006044820152606401610463565b6001600160a01b038516600090815260096020526040902054841461057f5760405162461bcd60e51b8152602060048201526011602482015270524146464c453a20626164206e6f6e636560781b6044820152606401610463565b600554604080517f1244fc88cef59e9f3e0ccd04bc7c4999dffde699f015c599a534c72a69778b0e60208201526001600160a01b0388169181019190915260608101919091526080810185905260a0810184905260009060c00160405160208183030381529060405280519060200120905060006105fc82610bc2565b905060006106408286868080601f016020809104026020016040519081016040528093929190818152602001838380828437600092019190915250610bf592505050565b9050876001600160a01b0316816001600160a01b0316146106955760405162461bcd60e51b815260206004820152600f60248201526e524146464c453a206261642073696760881b6044820152606401610463565b6001600160a01b038816600081815260096020908152604080832060018c8101909155600580548552600884528285208686528452828520805460ff191683179055600780549283018155948590527fa66cc928b5edb82af9bd49922954155ab7b0942694bea4ce44661d9a8736c68890910180546001600160a01b0319168617905554925490519081529192917f089d0daa5e8466fdfdab1113e8fdd98c06ef26711cafc429dabce354d007364e910160405180910390a350505061075b6001600355565b5050505050565b336001600160a01b037f000000000000000000000000000000000000000000000000000000000000000016146107dc5760405163073e64fd60e21b81523360048201526001600160a01b037f0000000000000000000000000000000000000000000000000000000000000000166024820152604401610463565b6107e68282610c1f565b5050565b6107f2610efa565b6107fc6000610f27565b565b600060608060008060006060610812610f79565b61081a610fab565b60408051600080825260208201909252600f60f81b9b939a50919850469750309650945092509050565b61084c610efa565b600360045460ff1660038111156108655761086561173f565b14806108875750600060045460ff1660038111156108855761088561173f565b145b6108bb5760405162461bcd60e51b8152602060048201526005602482015264706861736560d81b6044820152606401610463565b6108c7600760006113ea565b6001600560008282546108da919061177d565b909155505080156108eb5760068190555b6004805460ff191690556005546006546040519081527f1237ad121dfe1e3abc3b4254161693eb4add51b458114b8c15502bea94a6b02b9060200160405180910390a250565b610939610efa565b6001600160a01b03811661096357604051631e4fbdf760e01b815260006004820152602401610463565b61096c81610f27565b50565b610977610efa565b600060045460ff1660038111156109905761099061173f565b146109c55760405162461bcd60e51b8152602060048201526005602482015264706861736560d81b6044820152606401610463565b6004805460ff191660011790556005546007546040519081527f907fece23ce39fbcbceb71e515043fe29408353fbb393b25b35eb8a70a4bad0b906020015b60405180910390a2565b610a16610efa565b600160045460ff166003811115610a2f57610a2f61173f565b14610a755760405162461bcd60e51b81526020600482015260166024820152751490519193114e881b5d5cdd081899481b1bd8dad95960521b6044820152606401610463565b6004805460ff19166002178155600a54600b546040516305d3b1d360e41b81529283019190915267ffffffffffffffff8116602483015261ffff600160401b820416604483015263ffffffff600160501b820481166064840152600160701b9091041660848201526001600160a01b037f00000000000000000000000000000000000000000000000000000000000000001690635d3b1d309060a4016020604051808303816000875af1158015610b30573d6000803e3d6000fd5b505050506040513d601f19601f82011682018060405250810190610b54919061179e565b600c81905560055460405167ffffffffffffffff9092168252907fe3471844f37c3744cb25e17fc3f99c3cf98901db79704407fb27d01dd525518e90602001610a04565b600260035403610bbb57604051633ee5aeb560e01b815260040160405180910390fd5b6002600355565b6000610bef610bcf610fd8565b8360405161190160f01b8152600281019290925260228201526042902090565b92915050565b600080600080610c058686611103565b925092509250610c158282611150565b5090949350505050565b600260045460ff166003811115610c3857610c3861173f565b14610c7b5760405162461bcd60e51b8152602060048201526013602482015272524146464c453a2077726f6e6720706861736560681b6044820152606401610463565b60065460075410801590610c90575060075415155b610cdc5760405162461bcd60e51b815260206004820152601b60248201527f524146464c453a206e6f7420656e6f75676820656e7472616e747300000000006044820152606401610463565b80600081518110610cef57610cef6117b7565b6020908102919091010151600d5560075460008167ffffffffffffffff811115610d1b57610d1b611519565b604051908082528060200260200182016040528015610d44578160200160208202803683370190505b509050600060065467ffffffffffffffff811115610d6457610d64611519565b604051908082528060200260200182016040528015610d8d578160200160208202803683370190505b50905060005b600654811015610eaa57600084600d5483604051602001610dbe929190918252602082015260400190565b6040516020818303038152906040528051906020012060001c610de191906117cd565b90505b838181518110610df657610df66117b7565b602002602001015115610e205784610e0f82600161177d565b610e1991906117cd565b9050610de4565b6001848281518110610e3457610e346117b7565b60200260200101901515908115158152505060078181548110610e5957610e596117b7565b9060005260206000200160009054906101000a90046001600160a01b0316838381518110610e8957610e896117b7565b6001600160a01b039092166020928302919091019091015250600101610d93565b506004805460ff191660031790556005546040517fb9315731e05e01dbabe457c482230a47a1c31d7a8db0cd8b62740751ae55160590610eeb90849061141c565b60405180910390a25050505050565b6002546001600160a01b031633146107fc5760405163118cdaa760e01b8152336004820152602401610463565b600280546001600160a01b038381166001600160a01b0319831681179093556040519116919082907f8be0079c531659141344cd1fd0a4f28419497f9722a3daafe3b4186f6b6457e090600090a35050565b6060610fa67f00000000000000000000000000000000000000000000000000000000000000006000611209565b905090565b6060610fa67f00000000000000000000000000000000000000000000000000000000000000006001611209565b6000306001600160a01b037f00000000000000000000000000000000000000000000000000000000000000001614801561103157507f000000000000000000000000000000000000000000000000000000000000000046145b1561105b57507f000000000000000000000000000000000000000000000000000000000000000090565b610fa6604080517f8b73c3c69bb8fe3d512ecc4cf759cc79239f7b179b0ffacaa9a75d522b39400f60208201527f0000000000000000000000000000000000000000000000000000000000000000918101919091527f000000000000000000000000000000000000000000000000000000000000000060608201524660808201523060a082015260009060c00160405160208183030381529060405280519060200120905090565b6000806000835160410361113d5760208401516040850151606086015160001a61112f888285856112b4565b955095509550505050611149565b50508151600091506002905b9250925092565b60008260038111156111645761116461173f565b0361116d575050565b60018260038111156111815761118161173f565b0361119f5760405163f645eedf60e01b815260040160405180910390fd5b60028260038111156111b3576111b361173f565b036111d45760405163fce698f760e01b815260048101829052602401610463565b60038260038111156111e8576111e861173f565b036107e6576040516335e2f38360e21b815260048101829052602401610463565b606060ff83146112235761121c83611383565b9050610bef565b81805461122f906117ef565b80601f016020809104026020016040519081016040528092919081815260200182805461125b906117ef565b80156112a85780601f1061127d576101008083540402835291602001916112a8565b820191906000526020600020905b81548152906001019060200180831161128b57829003601f168201915b50505050509050610bef565b600080807f7fffffffffffffffffffffffffffffff5d576e7357a4501ddfe92f46681b20a08411156112ef5750600091506003905082611379565b604080516000808252602082018084528a905260ff891692820192909252606081018790526080810186905260019060a0016020604051602081039080840390855afa158015611343573d6000803e3d6000fd5b5050604051601f1901519150506001600160a01b03811661136f57506000925060019150829050611379565b9250600091508190505b9450945094915050565b60606000611390836113c2565b604080516020808252818301909252919250600091906020820181803683375050509182525060208101929092525090565b600060ff8216601f811115610bef57604051632cd44ac360e21b815260040160405180910390fd5b508054600082559060005260206000209081019061096c91905b808211156114185760008155600101611404565b5090565b6020808252825182820181905260009190848201906040850190845b8181101561145d5783516001600160a01b031683529284019291840191600101611438565b50909695505050505050565b80356001600160a01b038116811461148057600080fd5b919050565b60008060008060006080868803121561149d57600080fd5b6114a686611469565b94506020860135935060408601359250606086013567ffffffffffffffff808211156114d157600080fd5b818801915088601f8301126114e557600080fd5b8135818111156114f457600080fd5b89602082850101111561150657600080fd5b9699959850939650602001949392505050565b634e487b7160e01b600052604160045260246000fd5b6000806040838503121561154257600080fd5b8235915060208084013567ffffffffffffffff8082111561156257600080fd5b818601915086601f83011261157657600080fd5b81358181111561158857611588611519565b8060051b604051601f19603f830116810181811085821117156115ad576115ad611519565b6040529182528482019250838101850191898311156115cb57600080fd5b938501935b828510156115e9578435845293850193928501926115d0565b8096505050505050509250929050565b6000806040838503121561160c57600080fd5b8235915061161c60208401611469565b90509250929050565b60006020828403121561163757600080fd5b61164082611469565b9392505050565b6000815180845260005b8181101561166d57602081850181015186830182015201611651565b506000602082860101526020601f19601f83011685010191505092915050565b60ff60f81b881681526000602060e060208401526116ae60e084018a611647565b83810360408501526116c0818a611647565b606085018990526001600160a01b038816608086015260a0850187905284810360c08601528551808252602080880193509091019060005b81811015611714578351835292840192918401916001016116f8565b50909c9b505050505050505050505050565b60006020828403121561173857600080fd5b5035919050565b634e487b7160e01b600052602160045260246000fd5b602081016004831061177757634e487b7160e01b600052602160045260246000fd5b91905290565b80820180821115610bef57634e487b7160e01b600052601160045260246000fd5b6000602082840312156117b057600080fd5b5051919050565b634e487b7160e01b600052603260045260246000fd5b6000826117ea57634e487b7160e01b600052601260045260246000fd5b500690565b600181811c9082168061180357607f821691505b60208210810361182357634e487b7160e01b600052602260045260246000fd5b5091905056fea2646970667358221220f32843ee9f8696dd92d155a79206e748c39f116aaa3830a34323eeab09629b7f64736f6c63430008180033","opcodes":"PUSH2 0x1A0 PUSH1 0x40 MSTORE PUSH1 0xB DUP1 SLOAD PUSH1 0x1 PUSH1 0x40 SHL PUSH1 0x1 PUSH1 0x90 SHL SUB NOT AND PUSH15 0x10005573000030000000000000000 OR SWAP1 SSTORE CALLVALUE DUP1 ISZERO PUSH3 0x36 JUMPI PUSH1 0x0 DUP1 REVERT JUMPDEST POP PUSH1 0x40 MLOAD PUSH3 0x1E46 CODESIZE SUB DUP1 PUSH3 0x1E46 DUP4 CODECOPY DUP2 ADD PUSH1 0x40 DUP2 SWAP1 MSTORE PUSH3 0x59 SWAP2 PUSH3 0x311 JUMP JUMPDEST DUP4 DUP6 PUSH1 0x40 MLOAD DUP1 PUSH1 0x40 ADD PUSH1 0x40 MSTORE DUP1 PUSH1 0xF DUP2 MSTORE PUSH1 0x20 ADD PUSH15 0x53706F6E736F726564526166666C65 PUSH1 0x88 SHL DUP2 MSTORE POP PUSH1 0x40 MLOAD DUP1 PUSH1 0x40 ADD PUSH1 0x40 MSTORE DUP1 PUSH1 0x1 DUP2 MSTORE PUSH1 0x20 ADD PUSH1 0x31 PUSH1 0xF8 SHL DUP2 MSTORE POP PUSH3 0xB3 PUSH1 0x0 DUP4 PUSH3 0x226 PUSH1 0x20 SHL SWAP1 SWAP2 SWAP1 PUSH1 0x20 SHR JUMP JUMPDEST PUSH2 0x120 MSTORE PUSH3 0xC4 DUP2 PUSH1 0x1 PUSH3 0x226 JUMP JUMPDEST PUSH2 0x140 MSTORE DUP2 MLOAD PUSH1 0x20 DUP1 DUP5 ADD SWAP2 SWAP1 SWAP2 KECCAK256 PUSH1 0xE0 MSTORE DUP2 MLOAD SWAP1 DUP3 ADD KECCAK256 PUSH2 0x100 MSTORE CHAINID PUSH1 0xA0 MSTORE PUSH3 0x152 PUSH1 0xE0 MLOAD PUSH2 0x100 MLOAD PUSH1 0x40 DUP1 MLOAD PUSH32 0x8B73C3C69BB8FE3D512ECC4CF759CC79239F7B179B0FFACAA9A75D522B39400F PUSH1 0x20 DUP3 ADD MSTORE SWAP1 DUP2 ADD SWAP3 SWAP1 SWAP3 MSTORE PUSH1 0x60 DUP3 ADD MSTORE CHAINID PUSH1 0x80 DUP3 ADD MSTORE ADDRESS PUSH1 0xA0 DUP3 ADD MSTORE PUSH1 0x0 SWAP1 PUSH1 0xC0 ADD PUSH1 0x40 MLOAD PUSH1 0x20 DUP2 DUP4 SUB SUB DUP2 MSTORE SWAP1 PUSH1 0x40 MSTORE DUP1 MLOAD SWAP1 PUSH1 0x20 ADD KECCAK256 SWAP1 POP SWAP1 JUMP JUMPDEST PUSH1 0x80 MSTORE POP POP ADDRESS PUSH1 0xC0 MSTORE PUSH1 0x1 PUSH1 0x1 PUSH1 0xA0 SHL SUB DUP2 AND PUSH3 0x18B JUMPI PUSH1 0x40 MLOAD PUSH4 0x1E4FBDF7 PUSH1 0xE0 SHL DUP2 MSTORE PUSH1 0x0 PUSH1 0x4 DUP3 ADD MSTORE PUSH1 0x24 ADD JUMPDEST PUSH1 0x40 MLOAD DUP1 SWAP2 SUB SWAP1 REVERT JUMPDEST PUSH3 0x196 DUP2 PUSH3 0x25F JUMP JUMPDEST POP PUSH1 0x1 PUSH1 0x3 DUP2 SWAP1 SSTORE PUSH1 0x1 PUSH1 0x1 PUSH1 0xA0 SHL SUB SWAP2 DUP3 AND PUSH2 0x160 MSTORE SWAP1 DUP6 AND PUSH2 0x180 MSTORE PUSH1 0xA DUP5 SWAP1 SSTORE PUSH1 0xB DUP1 SLOAD PUSH1 0x1 PUSH1 0x1 PUSH1 0x40 SHL SUB NOT AND PUSH1 0x1 PUSH1 0x1 PUSH1 0x40 SHL SUB DUP6 AND OR SWAP1 SSTORE PUSH1 0x6 DUP3 SWAP1 SSTORE PUSH1 0x5 DUP2 SWAP1 SSTORE PUSH1 0x4 DUP1 SLOAD PUSH1 0xFF NOT AND SWAP1 SSTORE PUSH1 0x40 MLOAD DUP3 DUP2 MSTORE PUSH32 0x1237AD121DFE1E3ABC3B4254161693EB4ADD51B458114B8C15502BEA94A6B02B SWAP1 PUSH1 0x20 ADD PUSH1 0x40 MLOAD DUP1 SWAP2 SUB SWAP1 LOG2 POP POP POP POP POP PUSH3 0x568 JUMP JUMPDEST PUSH1 0x0 PUSH1 0x20 DUP4 MLOAD LT ISZERO PUSH3 0x246 JUMPI PUSH3 0x23E DUP4 PUSH3 0x2B1 JUMP JUMPDEST SWAP1 POP PUSH3 0x259 JUMP JUMPDEST DUP2 PUSH3 0x253 DUP5 DUP3 PUSH3 0x426 JUMP JUMPDEST POP PUSH1 0xFF SWAP1 POP JUMPDEST SWAP3 SWAP2 POP POP JUMP JUMPDEST PUSH1 0x2 DUP1 SLOAD PUSH1 0x1 PUSH1 0x1 PUSH1 0xA0 SHL SUB DUP4 DUP2 AND PUSH1 0x1 PUSH1 0x1 PUSH1 0xA0 SHL SUB NOT DUP4 AND DUP2 OR SWAP1 SWAP4 SSTORE PUSH1 0x40 MLOAD SWAP2 AND SWAP2 SWAP1 DUP3 SWAP1 PUSH32 0x8BE0079C531659141344CD1FD0A4F28419497F9722A3DAAFE3B4186F6B6457E0 SWAP1 PUSH1 0x0 SWAP1 LOG3 POP POP JUMP JUMPDEST PUSH1 0x0 DUP1 DUP3 SWAP1 POP PUSH1 0x1F DUP2 MLOAD GT ISZERO PUSH3 0x2DF JUMPI DUP3 PUSH1 0x40 MLOAD PUSH4 0x305A27A9 PUSH1 0xE0 SHL DUP2 MSTORE PUSH1 0x4 ADD PUSH3 0x182 SWAP2 SWAP1 PUSH3 0x4F2 JUMP JUMPDEST DUP1 MLOAD PUSH3 0x2EC DUP3 PUSH3 0x543 JUMP JUMPDEST OR SWAP4 SWAP3 POP POP POP JUMP JUMPDEST DUP1 MLOAD PUSH1 0x1 PUSH1 0x1 PUSH1 0xA0 SHL SUB DUP2 AND DUP2 EQ PUSH3 0x30C JUMPI PUSH1 0x0 DUP1 REVERT JUMPDEST SWAP2 SWAP1 POP JUMP JUMPDEST PUSH1 0x0 DUP1 PUSH1 0x0 DUP1 PUSH1 0x0 PUSH1 0xA0 DUP7 DUP9 SUB SLT ISZERO PUSH3 0x32A JUMPI PUSH1 0x0 DUP1 REVERT JUMPDEST PUSH3 0x335 DUP7 PUSH3 0x2F4 JUMP JUMPDEST SWAP5 POP PUSH3 0x345 PUSH1 0x20 DUP8 ADD PUSH3 0x2F4 JUMP JUMPDEST PUSH1 0x40 DUP8 ADD MLOAD PUSH1 0x60 DUP9 ADD MLOAD SWAP2 SWAP6 POP SWAP4 POP PUSH1 0x1 PUSH1 0x1 PUSH1 0x40 SHL SUB DUP2 AND DUP2 EQ PUSH3 0x36A JUMPI PUSH1 0x0 DUP1 REVERT JUMPDEST DUP1 SWAP3 POP POP PUSH1 0x80 DUP7 ADD MLOAD SWAP1 POP SWAP3 SWAP6 POP SWAP3 SWAP6 SWAP1 SWAP4 POP JUMP JUMPDEST PUSH4 0x4E487B71 PUSH1 0xE0 SHL PUSH1 0x0 MSTORE PUSH1 0x41 PUSH1 0x4 MSTORE PUSH1 0x24 PUSH1 0x0 REVERT JUMPDEST PUSH1 0x1 DUP2 DUP2 SHR SWAP1 DUP3 AND DUP1 PUSH3 0x3AA JUMPI PUSH1 0x7F DUP3 AND SWAP2 POP JUMPDEST PUSH1 0x20 DUP3 LT DUP2 SUB PUSH3 0x3CB JUMPI PUSH4 0x4E487B71 PUSH1 0xE0 SHL PUSH1 0x0 MSTORE PUSH1 0x22 PUSH1 0x4 MSTORE PUSH1 0x24 PUSH1 0x0 REVERT JUMPDEST POP SWAP2 SWAP1 POP JUMP JUMPDEST PUSH1 0x1F DUP3 GT ISZERO PUSH3 0x421 JUMPI PUSH1 0x0 DUP2 PUSH1 0x0 MSTORE PUSH1 0x20 PUSH1 0x0 KECCAK256 PUSH1 0x1F DUP6 ADD PUSH1 0x5 SHR DUP2 ADD PUSH1 0x20 DUP7 LT ISZERO PUSH3 0x3FC JUMPI POP DUP1 JUMPDEST PUSH1 0x1F DUP6 ADD PUSH1 0x5 SHR DUP3 ADD SWAP2 POP JUMPDEST DUP2 DUP2 LT ISZERO PUSH3 0x41D JUMPI DUP3 DUP2 SSTORE PUSH1 0x1 ADD PUSH3 0x408 JUMP JUMPDEST POP POP POP JUMPDEST POP POP POP JUMP JUMPDEST DUP2 MLOAD PUSH1 0x1 PUSH1 0x1 PUSH1 0x40 SHL SUB DUP2 GT ISZERO PUSH3 0x442 JUMPI PUSH3 0x442 PUSH3 0x37F JUMP JUMPDEST PUSH3 0x45A DUP2 PUSH3 0x453 DUP5 SLOAD PUSH3 0x395 JUMP JUMPDEST DUP5 PUSH3 0x3D1 JUMP JUMPDEST PUSH1 0x20 DUP1 PUSH1 0x1F DUP4 GT PUSH1 0x1 DUP2 EQ PUSH3 0x492 JUMPI PUSH1 0x0 DUP5 ISZERO PUSH3 0x479 JUMPI POP DUP6 DUP4 ADD MLOAD JUMPDEST PUSH1 0x0 NOT PUSH1 0x3 DUP7 SWAP1 SHL SHR NOT AND PUSH1 0x1 DUP6 SWAP1 SHL OR DUP6 SSTORE PUSH3 0x41D JUMP JUMPDEST PUSH1 0x0 DUP6 DUP2 MSTORE PUSH1 0x20 DUP2 KECCAK256 PUSH1 0x1F NOT DUP7 AND SWAP2 JUMPDEST DUP3 DUP2 LT ISZERO PUSH3 0x4C3 JUMPI DUP9 DUP7 ADD MLOAD DUP3 SSTORE SWAP5 DUP5 ADD SWAP5 PUSH1 0x1 SWAP1 SWAP2 ADD SWAP1 DUP5 ADD PUSH3 0x4A2 JUMP JUMPDEST POP DUP6 DUP3 LT ISZERO PUSH3 0x4E2 JUMPI DUP8 DUP6 ADD MLOAD PUSH1 0x0 NOT PUSH1 0x3 DUP9 SWAP1 SHL PUSH1 0xF8 AND SHR NOT AND DUP2 SSTORE JUMPDEST POP POP POP POP POP PUSH1 0x1 SWAP1 DUP2 SHL ADD SWAP1 SSTORE POP JUMP JUMPDEST PUSH1 0x0 PUSH1 0x20 DUP1 DUP4 MSTORE DUP4 MLOAD DUP1 PUSH1 0x20 DUP6 ADD MSTORE PUSH1 0x0 JUMPDEST DUP2 DUP2 LT ISZERO PUSH3 0x522 JUMPI DUP6 DUP2 ADD DUP4 ADD MLOAD DUP6 DUP3 ADD PUSH1 0x40 ADD MSTORE DUP3 ADD PUSH3 0x504 JUMP JUMPDEST POP PUSH1 0x0 PUSH1 0x40 DUP3 DUP7 ADD ADD MSTORE PUSH1 0x40 PUSH1 0x1F NOT PUSH1 0x1F DUP4 ADD AND DUP6 ADD ADD SWAP3 POP POP POP SWAP3 SWAP2 POP POP JUMP JUMPDEST DUP1 MLOAD PUSH1 0x20 DUP1 DUP4 ADD MLOAD SWAP2 SWAP1 DUP2 LT ISZERO PUSH3 0x3CB JUMPI PUSH1 0x0 NOT PUSH1 0x20 SWAP2 SWAP1 SWAP2 SUB PUSH1 0x3 SHL SHL AND SWAP2 SWAP1 POP JUMP JUMPDEST PUSH1 0x80 MLOAD PUSH1 0xA0 MLOAD PUSH1 0xC0 MLOAD PUSH1 0xE0 MLOAD PUSH2 0x100 MLOAD PUSH2 0x120 MLOAD PUSH2 0x140 MLOAD PUSH2 0x160 MLOAD PUSH2 0x180 MLOAD PUSH2 0x185F PUSH3 0x5E7 PUSH1 0x0 CODECOPY PUSH1 0x0 DUP2 DUP2 PUSH2 0x20F ADD MSTORE PUSH2 0xAE7 ADD MSTORE PUSH1 0x0 DUP2 DUP2 PUSH2 0x76D ADD MSTORE PUSH2 0x7AF ADD MSTORE PUSH1 0x0 PUSH2 0xFB2 ADD MSTORE PUSH1 0x0 PUSH2 0xF80 ADD MSTORE PUSH1 0x0 PUSH2 0x10B2 ADD MSTORE PUSH1 0x0 PUSH2 0x108A ADD MSTORE PUSH1 0x0 PUSH2 0xFE5 ADD MSTORE PUSH1 0x0 PUSH2 0x100F ADD MSTORE PUSH1 0x0 PUSH2 0x1039 ADD MSTORE PUSH2 0x185F PUSH1 0x0 RETURN INVALID PUSH1 0x80 PUSH1 0x40 MSTORE CALLVALUE DUP1 ISZERO PUSH2 0x10 JUMPI PUSH1 0x0 DUP1 REVERT JUMPDEST POP PUSH1 0x4 CALLDATASIZE LT PUSH2 0x158 JUMPI PUSH1 0x0 CALLDATALOAD PUSH1 0xE0 SHR DUP1 PUSH4 0x7ECEBE00 GT PUSH2 0xC3 JUMPI DUP1 PUSH4 0xB375603C GT PUSH2 0x7C JUMPI DUP1 PUSH4 0xB375603C EQ PUSH2 0x359 JUMPI DUP1 PUSH4 0xF2FDE38B EQ PUSH2 0x362 JUMPI DUP1 PUSH4 0xF5684183 EQ PUSH2 0x375 JUMPI DUP1 PUSH4 0xF83D08BA EQ PUSH2 0x37E JUMPI DUP1 PUSH4 0xF8413B07 EQ PUSH2 0x386 JUMPI DUP1 PUSH4 0xFC2A88C3 EQ PUSH2 0x38E JUMPI PUSH1 0x0 DUP1 REVERT JUMPDEST DUP1 PUSH4 0x7ECEBE00 EQ PUSH2 0x2B8 JUMPI DUP1 PUSH4 0x84B0196E EQ PUSH2 0x2D8 JUMPI DUP1 PUSH4 0x8DA5CB5B EQ PUSH2 0x2F3 JUMPI DUP1 PUSH4 0xA35BD591 EQ PUSH2 0x304 JUMPI DUP1 PUSH4 0xB0FB162F EQ PUSH2 0x317 JUMPI DUP1 PUSH4 0xB1C9FE6E EQ PUSH2 0x33F JUMPI PUSH1 0x0 DUP1 REVERT JUMPDEST DUP1 PUSH4 0x3B2BCBF1 GT PUSH2 0x115 JUMPI DUP1 PUSH4 0x3B2BCBF1 EQ PUSH2 0x20A JUMPI DUP1 PUSH4 0x49713811 EQ PUSH2 0x249 JUMPI DUP1 PUSH4 0x4D333814 EQ PUSH2 0x252 JUMPI DUP1 PUSH4 0x61728F39 EQ PUSH2 0x290 JUMPI DUP1 PUSH4 0x715018A6 EQ PUSH2 0x299 JUMPI DUP1 PUSH4 0x7CCFD7FC EQ PUSH2 0x2A1 JUMPI PUSH1 0x0 DUP1 REVERT JUMPDEST DUP1 PUSH4 0x9C1BA2E EQ PUSH2 0x15D JUMPI DUP1 PUSH4 0xD05532A EQ PUSH2 0x18F JUMPI DUP1 PUSH4 0x103064CB EQ PUSH2 0x1A4 JUMPI DUP1 PUSH4 0x1FE543E3 EQ PUSH2 0x1B9 JUMPI DUP1 PUSH4 0x21AF3F9F EQ PUSH2 0x1CC JUMPI DUP1 PUSH4 0x24F74697 EQ PUSH2 0x1DE JUMPI JUMPDEST PUSH1 0x0 DUP1 REVERT JUMPDEST PUSH1 0xB SLOAD PUSH2 0x171 SWAP1 PUSH8 0xFFFFFFFFFFFFFFFF AND DUP2 JUMP JUMPDEST PUSH1 0x40 MLOAD PUSH8 0xFFFFFFFFFFFFFFFF SWAP1 SWAP2 AND DUP2 MSTORE PUSH1 0x20 ADD JUMPDEST PUSH1 0x40 MLOAD DUP1 SWAP2 SUB SWAP1 RETURN JUMPDEST PUSH2 0x197 PUSH2 0x397 JUMP JUMPDEST PUSH1 0x40 MLOAD PUSH2 0x186 SWAP2 SWAP1 PUSH2 0x141C JUMP JUMPDEST PUSH2 0x1B7 PUSH2 0x1B2 CALLDATASIZE PUSH1 0x4 PUSH2 0x1485 JUMP JUMPDEST PUSH2 0x3F9 JUMP JUMPDEST STOP JUMPDEST PUSH2 0x1B7 PUSH2 0x1C7 CALLDATASIZE PUSH1 0x4 PUSH2 0x152F JUMP JUMPDEST PUSH2 0x762 JUMP JUMPDEST PUSH1 0x7 SLOAD JUMPDEST PUSH1 0x40 MLOAD SWAP1 DUP2 MSTORE PUSH1 0x20 ADD PUSH2 0x186 JUMP JUMPDEST PUSH1 0xB SLOAD PUSH2 0x1F5 SWAP1 PUSH1 0x1 PUSH1 0x50 SHL SWAP1 DIV PUSH4 0xFFFFFFFF AND DUP2 JUMP JUMPDEST PUSH1 0x40 MLOAD PUSH4 0xFFFFFFFF SWAP1 SWAP2 AND DUP2 MSTORE PUSH1 0x20 ADD PUSH2 0x186 JUMP JUMPDEST PUSH2 0x231 PUSH32 0x0 DUP2 JUMP JUMPDEST PUSH1 0x40 MLOAD PUSH1 0x1 PUSH1 0x1 PUSH1 0xA0 SHL SUB SWAP1 SWAP2 AND DUP2 MSTORE PUSH1 0x20 ADD PUSH2 0x186 JUMP JUMPDEST PUSH2 0x1D0 PUSH1 0x6 SLOAD DUP2 JUMP JUMPDEST PUSH2 0x280 PUSH2 0x260 CALLDATASIZE PUSH1 0x4 PUSH2 0x15F9 JUMP JUMPDEST PUSH1 0x8 PUSH1 0x20 SWAP1 DUP2 MSTORE PUSH1 0x0 SWAP3 DUP4 MSTORE PUSH1 0x40 DUP1 DUP5 KECCAK256 SWAP1 SWAP2 MSTORE SWAP1 DUP3 MSTORE SWAP1 KECCAK256 SLOAD PUSH1 0xFF AND DUP2 JUMP JUMPDEST PUSH1 0x40 MLOAD SWAP1 ISZERO ISZERO DUP2 MSTORE PUSH1 0x20 ADD PUSH2 0x186 JUMP JUMPDEST PUSH2 0x1D0 PUSH1 0xA SLOAD DUP2 JUMP JUMPDEST PUSH2 0x1B7 PUSH2 0x7EA JUMP JUMPDEST PUSH1 0xB SLOAD PUSH2 0x1F5 SWAP1 PUSH1 0x1 PUSH1 0x70 SHL SWAP1 DIV PUSH4 0xFFFFFFFF AND DUP2 JUMP JUMPDEST PUSH2 0x1D0 PUSH2 0x2C6 CALLDATASIZE PUSH1 0x4 PUSH2 0x1625 JUMP JUMPDEST PUSH1 0x9 PUSH1 0x20 MSTORE PUSH1 0x0 SWAP1 DUP2 MSTORE PUSH1 0x40 SWAP1 KECCAK256 SLOAD DUP2 JUMP JUMPDEST PUSH2 0x2E0 PUSH2 0x7FE JUMP JUMPDEST PUSH1 0x40 MLOAD PUSH2 0x186 SWAP8 SWAP7 SWAP6 SWAP5 SWAP4 SWAP3 SWAP2 SWAP1 PUSH2 0x168D JUMP JUMPDEST PUSH1 0x2 SLOAD PUSH1 0x1 PUSH1 0x1 PUSH1 0xA0 SHL SUB AND PUSH2 0x231 JUMP JUMPDEST PUSH2 0x1B7 PUSH2 0x312 CALLDATASIZE PUSH1 0x4 PUSH2 0x1726 JUMP JUMPDEST PUSH2 0x844 JUMP JUMPDEST PUSH1 0xB SLOAD PUSH2 0x32C SWAP1 PUSH1 0x1 PUSH1 0x40 SHL SWAP1 DIV PUSH2 0xFFFF AND DUP2 JUMP JUMPDEST PUSH1 0x40 MLOAD PUSH2 0xFFFF SWAP1 SWAP2 AND DUP2 MSTORE PUSH1 0x20 ADD PUSH2 0x186 JUMP JUMPDEST PUSH1 0x4 SLOAD PUSH2 0x34C SWAP1 PUSH1 0xFF AND DUP2 JUMP JUMPDEST PUSH1 0x40 MLOAD PUSH2 0x186 SWAP2 SWAP1 PUSH2 0x1755 JUMP JUMPDEST PUSH2 0x1D0 PUSH1 0x5 SLOAD DUP2 JUMP JUMPDEST PUSH2 0x1B7 PUSH2 0x370 CALLDATASIZE PUSH1 0x4 PUSH2 0x1625 JUMP JUMPDEST PUSH2 0x931 JUMP JUMPDEST PUSH2 0x1D0 PUSH1 0xD SLOAD DUP2 JUMP JUMPDEST PUSH2 0x1B7 PUSH2 0x96F JUMP JUMPDEST PUSH2 0x1B7 PUSH2 0xA0E JUMP JUMPDEST PUSH2 0x1D0 PUSH1 0xC SLOAD DUP2 JUMP JUMPDEST PUSH1 0x60 PUSH1 0x7 DUP1 SLOAD DUP1 PUSH1 0x20 MUL PUSH1 0x20 ADD PUSH1 0x40 MLOAD SWAP1 DUP2 ADD PUSH1 0x40 MSTORE DUP1 SWAP3 SWAP2 SWAP1 DUP2 DUP2 MSTORE PUSH1 0x20 ADD DUP3 DUP1 SLOAD DUP1 ISZERO PUSH2 0x3EF JUMPI PUSH1 0x20 MUL DUP3 ADD SWAP2 SWAP1 PUSH1 0x0 MSTORE PUSH1 0x20 PUSH1 0x0 KECCAK256 SWAP1 JUMPDEST DUP2 SLOAD PUSH1 0x1 PUSH1 0x1 PUSH1 0xA0 SHL SUB AND DUP2 MSTORE PUSH1 0x1 SWAP1 SWAP2 ADD SWAP1 PUSH1 0x20 ADD DUP1 DUP4 GT PUSH2 0x3D1 JUMPI JUMPDEST POP POP POP POP POP SWAP1 POP SWAP1 JUMP JUMPDEST PUSH2 0x401 PUSH2 0xB98 JUMP JUMPDEST PUSH1 0x0 PUSH1 0x4 SLOAD PUSH1 0xFF AND PUSH1 0x3 DUP2 GT ISZERO PUSH2 0x41A JUMPI PUSH2 0x41A PUSH2 0x173F JUMP JUMPDEST EQ PUSH2 0x46C JUMPI PUSH1 0x40 MLOAD PUSH3 0x461BCD PUSH1 0xE5 SHL DUP2 MSTORE PUSH1 0x20 PUSH1 0x4 DUP3 ADD MSTORE PUSH1 0x17 PUSH1 0x24 DUP3 ADD MSTORE PUSH32 0x524146464C453A206E6F7420656E746572207068617365000000000000000000 PUSH1 0x44 DUP3 ADD MSTORE PUSH1 0x64 ADD JUMPDEST PUSH1 0x40 MLOAD DUP1 SWAP2 SUB SWAP1 REVERT JUMPDEST DUP3 TIMESTAMP GT ISZERO PUSH2 0x4AE JUMPI PUSH1 0x40 MLOAD PUSH3 0x461BCD PUSH1 0xE5 SHL DUP2 MSTORE PUSH1 0x20 PUSH1 0x4 DUP3 ADD MSTORE PUSH1 0xF PUSH1 0x24 DUP3 ADD MSTORE PUSH15 0x1490519193114E88195E1C1A5C9959 PUSH1 0x8A SHL PUSH1 0x44 DUP3 ADD MSTORE PUSH1 0x64 ADD PUSH2 0x463 JUMP JUMPDEST PUSH1 0x5 SLOAD PUSH1 0x0 SWAP1 DUP2 MSTORE PUSH1 0x8 PUSH1 0x20 SWAP1 DUP2 MSTORE PUSH1 0x40 DUP1 DUP4 KECCAK256 PUSH1 0x1 PUSH1 0x1 PUSH1 0xA0 SHL SUB DUP10 AND DUP5 MSTORE SWAP1 SWAP2 MSTORE SWAP1 KECCAK256 SLOAD PUSH1 0xFF AND ISZERO PUSH2 0x524 JUMPI PUSH1 0x40 MLOAD PUSH3 0x461BCD PUSH1 0xE5 SHL DUP2 MSTORE PUSH1 0x20 PUSH1 0x4 DUP3 ADD MSTORE PUSH1 0x17 PUSH1 0x24 DUP3 ADD MSTORE PUSH32 0x524146464C453A20616C726561647920656E7465726564000000000000000000 PUSH1 0x44 DUP3 ADD MSTORE PUSH1 0x64 ADD PUSH2 0x463 JUMP JUMPDEST PUSH1 0x1 PUSH1 0x1 PUSH1 0xA0 SHL SUB DUP6 AND PUSH1 0x0 SWAP1 DUP2 MSTORE PUSH1 0x9 PUSH1 0x20 MSTORE PUSH1 0x40 SWAP1 KECCAK256 SLOAD DUP5 EQ PUSH2 0x57F JUMPI PUSH1 0x40 MLOAD PUSH3 0x461BCD PUSH1 0xE5 SHL DUP2 MSTORE PUSH1 0x20 PUSH1 0x4 DUP3 ADD MSTORE PUSH1 0x11 PUSH1 0x24 DUP3 ADD MSTORE PUSH17 0x524146464C453A20626164206E6F6E6365 PUSH1 0x78 SHL PUSH1 0x44 DUP3 ADD MSTORE PUSH1 0x64 ADD PUSH2 0x463 JUMP JUMPDEST PUSH1 0x5 SLOAD PUSH1 0x40 DUP1 MLOAD PUSH32 0x1244FC88CEF59E9F3E0CCD04BC7C4999DFFDE699F015C599A534C72A69778B0E PUSH1 0x20 DUP3 ADD MSTORE PUSH1 0x1 PUSH1 0x1 PUSH1 0xA0 SHL SUB DUP9 AND SWAP2 DUP2 ADD SWAP2 SWAP1 SWAP2 MSTORE PUSH1 0x60 DUP2 ADD SWAP2 SWAP1 SWAP2 MSTORE PUSH1 0x80 DUP2 ADD DUP6 SWAP1 MSTORE PUSH1 0xA0 DUP2 ADD DUP5 SWAP1 MSTORE PUSH1 0x0 SWAP1 PUSH1 0xC0 ADD PUSH1 0x40 MLOAD PUSH1 0x20 DUP2 DUP4 SUB SUB DUP2 MSTORE SWAP1 PUSH1 0x40 MSTORE DUP1 MLOAD SWAP1 PUSH1 0x20 ADD KECCAK256 SWAP1 POP PUSH1 0x0 PUSH2 0x5FC DUP3 PUSH2 0xBC2 JUMP JUMPDEST SWAP1 POP PUSH1 0x0 PUSH2 0x640 DUP3 DUP7 DUP7 DUP1 DUP1 PUSH1 0x1F ADD PUSH1 0x20 DUP1 SWAP2 DIV MUL PUSH1 0x20 ADD PUSH1 0x40 MLOAD SWAP1 DUP2 ADD PUSH1 0x40 MSTORE DUP1 SWAP4 SWAP3 SWAP2 SWAP1 DUP2 DUP2 MSTORE PUSH1 0x20 ADD DUP4 DUP4 DUP1 DUP3 DUP5 CALLDATACOPY PUSH1 0x0 SWAP3 ADD SWAP2 SWAP1 SWAP2 MSTORE POP PUSH2 0xBF5 SWAP3 POP POP POP JUMP JUMPDEST SWAP1 POP DUP8 PUSH1 0x1 PUSH1 0x1 PUSH1 0xA0 SHL SUB AND DUP2 PUSH1 0x1 PUSH1 0x1 PUSH1 0xA0 SHL SUB AND EQ PUSH2 0x695 JUMPI PUSH1 0x40 MLOAD PUSH3 0x461BCD PUSH1 0xE5 SHL DUP2 MSTORE PUSH1 0x20 PUSH1 0x4 DUP3 ADD MSTORE PUSH1 0xF PUSH1 0x24 DUP3 ADD MSTORE PUSH15 0x524146464C453A2062616420736967 PUSH1 0x88 SHL PUSH1 0x44 DUP3 ADD MSTORE PUSH1 0x64 ADD PUSH2 0x463 JUMP JUMPDEST PUSH1 0x1 PUSH1 0x1 PUSH1 0xA0 SHL SUB DUP9 AND PUSH1 0x0 DUP2 DUP2 MSTORE PUSH1 0x9 PUSH1 0x20 SWAP1 DUP2 MSTORE PUSH1 0x40 DUP1 DUP4 KECCAK256 PUSH1 0x1 DUP13 DUP2 ADD SWAP1 SWAP2 SSTORE PUSH1 0x5 DUP1 SLOAD DUP6 MSTORE PUSH1 0x8 DUP5 MSTORE DUP3 DUP6 KECCAK256 DUP7 DUP7 MSTORE DUP5 MSTORE DUP3 DUP6 KECCAK256 DUP1 SLOAD PUSH1 0xFF NOT AND DUP4 OR SWAP1 SSTORE PUSH1 0x7 DUP1 SLOAD SWAP3 DUP4 ADD DUP2 SSTORE SWAP5 DUP6 SWAP1 MSTORE PUSH32 0xA66CC928B5EDB82AF9BD49922954155AB7B0942694BEA4CE44661D9A8736C688 SWAP1 SWAP2 ADD DUP1 SLOAD PUSH1 0x1 PUSH1 0x1 PUSH1 0xA0 SHL SUB NOT AND DUP7 OR SWAP1 SSTORE SLOAD SWAP3 SLOAD SWAP1 MLOAD SWAP1 DUP2 MSTORE SWAP2 SWAP3 SWAP2 PUSH32 0x89D0DAA5E8466FDFDAB1113E8FDD98C06EF26711CAFC429DABCE354D007364E SWAP2 ADD PUSH1 0x40 MLOAD DUP1 SWAP2 SUB SWAP1 LOG3 POP POP POP PUSH2 0x75B PUSH1 0x1 PUSH1 0x3 SSTORE JUMP JUMPDEST POP POP POP POP POP JUMP JUMPDEST CALLER PUSH1 0x1 PUSH1 0x1 PUSH1 0xA0 SHL SUB PUSH32 0x0 AND EQ PUSH2 0x7DC JUMPI PUSH1 0x40 MLOAD PUSH4 0x73E64FD PUSH1 0xE2 SHL DUP2 MSTORE CALLER PUSH1 0x4 DUP3 ADD MSTORE PUSH1 0x1 PUSH1 0x1 PUSH1 0xA0 SHL SUB PUSH32 0x0 AND PUSH1 0x24 DUP3 ADD MSTORE PUSH1 0x44 ADD PUSH2 0x463 JUMP JUMPDEST PUSH2 0x7E6 DUP3 DUP3 PUSH2 0xC1F JUMP JUMPDEST POP POP JUMP JUMPDEST PUSH2 0x7F2 PUSH2 0xEFA JUMP JUMPDEST PUSH2 0x7FC PUSH1 0x0 PUSH2 0xF27 JUMP JUMPDEST JUMP JUMPDEST PUSH1 0x0 PUSH1 0x60 DUP1 PUSH1 0x0 DUP1 PUSH1 0x0 PUSH1 0x60 PUSH2 0x812 PUSH2 0xF79 JUMP JUMPDEST PUSH2 0x81A PUSH2 0xFAB JUMP JUMPDEST PUSH1 0x40 DUP1 MLOAD PUSH1 0x0 DUP1 DUP3 MSTORE PUSH1 0x20 DUP3 ADD SWAP1 SWAP3 MSTORE PUSH1 0xF PUSH1 0xF8 SHL SWAP12 SWAP4 SWAP11 POP SWAP2 SWAP9 POP CHAINID SWAP8 POP ADDRESS SWAP7 POP SWAP5 POP SWAP3 POP SWAP1 POP JUMP JUMPDEST PUSH2 0x84C PUSH2 0xEFA JUMP JUMPDEST PUSH1 0x3 PUSH1 0x4 SLOAD PUSH1 0xFF AND PUSH1 0x3 DUP2 GT ISZERO PUSH2 0x865 JUMPI PUSH2 0x865 PUSH2 0x173F JUMP JUMPDEST EQ DUP1 PUSH2 0x887 JUMPI POP PUSH1 0x0 PUSH1 0x4 SLOAD PUSH1 0xFF AND PUSH1 0x3 DUP2 GT ISZERO PUSH2 0x885 JUMPI PUSH2 0x885 PUSH2 0x173F JUMP JUMPDEST EQ JUMPDEST PUSH2 0x8BB JUMPI PUSH1 0x40 MLOAD PUSH3 0x461BCD PUSH1 0xE5 SHL DUP2 MSTORE PUSH1 0x20 PUSH1 0x4 DUP3 ADD MSTORE PUSH1 0x5 PUSH1 0x24 DUP3 ADD MSTORE PUSH5 0x7068617365 PUSH1 0xD8 SHL PUSH1 0x44 DUP3 ADD MSTORE PUSH1 0x64 ADD PUSH2 0x463 JUMP JUMPDEST PUSH2 0x8C7 PUSH1 0x7 PUSH1 0x0 PUSH2 0x13EA JUMP JUMPDEST PUSH1 0x1 PUSH1 0x5 PUSH1 0x0 DUP3 DUP3 SLOAD PUSH2 0x8DA SWAP2 SWAP1 PUSH2 0x177D JUMP JUMPDEST SWAP1 SWAP2 SSTORE POP POP DUP1 ISZERO PUSH2 0x8EB JUMPI PUSH1 0x6 DUP2 SWAP1 SSTORE JUMPDEST PUSH1 0x4 DUP1 SLOAD PUSH1 0xFF NOT AND SWAP1 SSTORE PUSH1 0x5 SLOAD PUSH1 0x6 SLOAD PUSH1 0x40 MLOAD SWAP1 DUP2 MSTORE PUSH32 0x1237AD121DFE1E3ABC3B4254161693EB4ADD51B458114B8C15502BEA94A6B02B SWAP1 PUSH1 0x20 ADD PUSH1 0x40 MLOAD DUP1 SWAP2 SUB SWAP1 LOG2 POP JUMP JUMPDEST PUSH2 0x939 PUSH2 0xEFA JUMP JUMPDEST PUSH1 0x1 PUSH1 0x1 PUSH1 0xA0 SHL SUB DUP2 AND PUSH2 0x963 JUMPI PUSH1 0x40 MLOAD PUSH4 0x1E4FBDF7 PUSH1 0xE0 SHL DUP2 MSTORE PUSH1 0x0 PUSH1 0x4 DUP3 ADD MSTORE PUSH1 0x24 ADD PUSH2 0x463 JUMP JUMPDEST PUSH2 0x96C DUP2 PUSH2 0xF27 JUMP JUMPDEST POP JUMP JUMPDEST PUSH2 0x977 PUSH2 0xEFA JUMP JUMPDEST PUSH1 0x0 PUSH1 0x4 SLOAD PUSH1 0xFF AND PUSH1 0x3 DUP2 GT ISZERO PUSH2 0x990 JUMPI PUSH2 0x990 PUSH2 0x173F JUMP JUMPDEST EQ PUSH2 0x9C5 JUMPI PUSH1 0x40 MLOAD PUSH3 0x461BCD PUSH1 0xE5 SHL DUP2 MSTORE PUSH1 0x20 PUSH1 0x4 DUP3 ADD MSTORE PUSH1 0x5 PUSH1 0x24 DUP3 ADD MSTORE PUSH5 0x7068617365 PUSH1 0xD8 SHL PUSH1 0x44 DUP3 ADD MSTORE PUSH1 0x64 ADD PUSH2 0x463 JUMP JUMPDEST PUSH1 0x4 DUP1 SLOAD PUSH1 0xFF NOT AND PUSH1 0x1 OR SWAP1 SSTORE PUSH1 0x5 SLOAD PUSH1 0x7 SLOAD PUSH1 0x40 MLOAD SWAP1 DUP2 MSTORE PUSH32 0x907FECE23CE39FBCBCEB71E515043FE29408353FBB393B25B35EB8A70A4BAD0B SWAP1 PUSH1 0x20 ADD JUMPDEST PUSH1 0x40 MLOAD DUP1 SWAP2 SUB SWAP1 LOG2 JUMP JUMPDEST PUSH2 0xA16 PUSH2 0xEFA JUMP JUMPDEST PUSH1 0x1 PUSH1 0x4 SLOAD PUSH1 0xFF AND PUSH1 0x3 DUP2 GT ISZERO PUSH2 0xA2F JUMPI PUSH2 0xA2F PUSH2 0x173F JUMP JUMPDEST EQ PUSH2 0xA75 JUMPI PUSH1 0x40 MLOAD PUSH3 0x461BCD PUSH1 0xE5 SHL DUP2 MSTORE PUSH1 0x20 PUSH1 0x4 DUP3 ADD MSTORE PUSH1 0x16 PUSH1 0x24 DUP3 ADD MSTORE PUSH22 0x1490519193114E881B5D5CDD081899481B1BD8DAD959 PUSH1 0x52 SHL PUSH1 0x44 DUP3 ADD MSTORE PUSH1 0x64 ADD PUSH2 0x463 JUMP JUMPDEST PUSH1 0x4 DUP1 SLOAD PUSH1 0xFF NOT AND PUSH1 0x2 OR DUP2 SSTORE PUSH1 0xA SLOAD PUSH1 0xB SLOAD PUSH1 0x40 MLOAD PUSH4 0x5D3B1D3 PUSH1 0xE4 SHL DUP2 MSTORE SWAP3 DUP4 ADD SWAP2 SWAP1 SWAP2 MSTORE PUSH8 0xFFFFFFFFFFFFFFFF DUP2 AND PUSH1 0x24 DUP4 ADD MSTORE PUSH2 0xFFFF PUSH1 0x1 PUSH1 0x40 SHL DUP3 DIV AND PUSH1 0x44 DUP4 ADD MSTORE PUSH4 0xFFFFFFFF PUSH1 0x1 PUSH1 0x50 SHL DUP3 DIV DUP2 AND PUSH1 0x64 DUP5 ADD MSTORE PUSH1 0x1 PUSH1 0x70 SHL SWAP1 SWAP2 DIV AND PUSH1 0x84 DUP3 ADD MSTORE PUSH1 0x1 PUSH1 0x1 PUSH1 0xA0 SHL SUB PUSH32 0x0 AND SWAP1 PUSH4 0x5D3B1D30 SWAP1 PUSH1 0xA4 ADD PUSH1 0x20 PUSH1 0x40 MLOAD DUP1 DUP4 SUB DUP2 PUSH1 0x0 DUP8 GAS CALL ISZERO DUP1 ISZERO PUSH2 0xB30 JUMPI RETURNDATASIZE PUSH1 0x0 DUP1 RETURNDATACOPY RETURNDATASIZE PUSH1 0x0 REVERT JUMPDEST POP POP POP POP PUSH1 0x40 MLOAD RETURNDATASIZE PUSH1 0x1F NOT PUSH1 0x1F DUP3 ADD AND DUP3 ADD DUP1 PUSH1 0x40 MSTORE POP DUP2 ADD SWAP1 PUSH2 0xB54 SWAP2 SWAP1 PUSH2 0x179E JUMP JUMPDEST PUSH1 0xC DUP2 SWAP1 SSTORE PUSH1 0x5 SLOAD PUSH1 0x40 MLOAD PUSH8 0xFFFFFFFFFFFFFFFF SWAP1 SWAP3 AND DUP3 MSTORE SWAP1 PUSH32 0xE3471844F37C3744CB25E17FC3F99C3CF98901DB79704407FB27D01DD525518E SWAP1 PUSH1 0x20 ADD PUSH2 0xA04 JUMP JUMPDEST PUSH1 0x2 PUSH1 0x3 SLOAD SUB PUSH2 0xBBB JUMPI PUSH1 0x40 MLOAD PUSH4 0x3EE5AEB5 PUSH1 0xE0 SHL DUP2 MSTORE PUSH1 0x4 ADD PUSH1 0x40 MLOAD DUP1 SWAP2 SUB SWAP1 REVERT JUMPDEST PUSH1 0x2 PUSH1 0x3 SSTORE JUMP JUMPDEST PUSH1 0x0 PUSH2 0xBEF PUSH2 0xBCF PUSH2 0xFD8 JUMP JUMPDEST DUP4 PUSH1 0x40 MLOAD PUSH2 0x1901 PUSH1 0xF0 SHL DUP2 MSTORE PUSH1 0x2 DUP2 ADD SWAP3 SWAP1 SWAP3 MSTORE PUSH1 0x22 DUP3 ADD MSTORE PUSH1 0x42 SWAP1 KECCAK256 SWAP1 JUMP JUMPDEST SWAP3 SWAP2 POP POP JUMP JUMPDEST PUSH1 0x0 DUP1 PUSH1 0x0 DUP1 PUSH2 0xC05 DUP7 DUP7 PUSH2 0x1103 JUMP JUMPDEST SWAP3 POP SWAP3 POP SWAP3 POP PUSH2 0xC15 DUP3 DUP3 PUSH2 0x1150 JUMP JUMPDEST POP SWAP1 SWAP5 SWAP4 POP POP POP POP JUMP JUMPDEST PUSH1 0x2 PUSH1 0x4 SLOAD PUSH1 0xFF AND PUSH1 0x3 DUP2 GT ISZERO PUSH2 0xC38 JUMPI PUSH2 0xC38 PUSH2 0x173F JUMP JUMPDEST EQ PUSH2 0xC7B JUMPI PUSH1 0x40 MLOAD PUSH3 0x461BCD PUSH1 0xE5 SHL DUP2 MSTORE PUSH1 0x20 PUSH1 0x4 DUP3 ADD MSTORE PUSH1 0x13 PUSH1 0x24 DUP3 ADD MSTORE PUSH19 0x524146464C453A2077726F6E67207068617365 PUSH1 0x68 SHL PUSH1 0x44 DUP3 ADD MSTORE PUSH1 0x64 ADD PUSH2 0x463 JUMP JUMPDEST PUSH1 0x6 SLOAD PUSH1 0x7 SLOAD LT DUP1 ISZERO SWAP1 PUSH2 0xC90 JUMPI POP PUSH1 0x7 SLOAD ISZERO ISZERO JUMPDEST PUSH2 0xCDC JUMPI PUSH1 0x40 MLOAD PUSH3 0x461BCD PUSH1 0xE5 SHL DUP2 MSTORE PUSH1 0x20 PUSH1 0x4 DUP3 ADD MSTORE PUSH1 0x1B PUSH1 0x24 DUP3 ADD MSTORE PUSH32 0x524146464C453A206E6F7420656E6F75676820656E7472616E74730000000000 PUSH1 0x44 DUP3 ADD MSTORE PUSH1 0x64 ADD PUSH2 0x463 JUMP JUMPDEST DUP1 PUSH1 0x0 DUP2 MLOAD DUP2 LT PUSH2 0xCEF JUMPI PUSH2 0xCEF PUSH2 0x17B7 JUMP JUMPDEST PUSH1 0x20 SWAP1 DUP2 MUL SWAP2 SWAP1 SWAP2 ADD ADD MLOAD PUSH1 0xD SSTORE PUSH1 0x7 SLOAD PUSH1 0x0 DUP2 PUSH8 0xFFFFFFFFFFFFFFFF DUP2 GT ISZERO PUSH2 0xD1B JUMPI PUSH2 0xD1B PUSH2 0x1519 JUMP JUMPDEST PUSH1 0x40 MLOAD SWAP1 DUP1 DUP3 MSTORE DUP1 PUSH1 0x20 MUL PUSH1 0x20 ADD DUP3 ADD PUSH1 0x40 MSTORE DUP1 ISZERO PUSH2 0xD44 JUMPI DUP2 PUSH1 0x20 ADD PUSH1 0x20 DUP3 MUL DUP1 CALLDATASIZE DUP4 CALLDATACOPY ADD SWAP1 POP JUMPDEST POP SWAP1 POP PUSH1 0x0 PUSH1 0x6 SLOAD PUSH8 0xFFFFFFFFFFFFFFFF DUP2 GT ISZERO PUSH2 0xD64 JUMPI PUSH2 0xD64 PUSH2 0x1519 JUMP JUMPDEST PUSH1 0x40 MLOAD SWAP1 DUP1 DUP3 MSTORE DUP1 PUSH1 0x20 MUL PUSH1 0x20 ADD DUP3 ADD PUSH1 0x40 MSTORE DUP1 ISZERO PUSH2 0xD8D JUMPI DUP2 PUSH1 0x20 ADD PUSH1 0x20 DUP3 MUL DUP1 CALLDATASIZE DUP4 CALLDATACOPY ADD SWAP1 POP JUMPDEST POP SWAP1 POP PUSH1 0x0 JUMPDEST PUSH1 0x6 SLOAD DUP2 LT ISZERO PUSH2 0xEAA JUMPI PUSH1 0x0 DUP5 PUSH1 0xD SLOAD DUP4 PUSH1 0x40 MLOAD PUSH1 0x20 ADD PUSH2 0xDBE SWAP3 SWAP2 SWAP1 SWAP2 DUP3 MSTORE PUSH1 0x20 DUP3 ADD MSTORE PUSH1 0x40 ADD SWAP1 JUMP JUMPDEST PUSH1 0x40 MLOAD PUSH1 0x20 DUP2 DUP4 SUB SUB DUP2 MSTORE SWAP1 PUSH1 0x40 MSTORE DUP1 MLOAD SWAP1 PUSH1 0x20 ADD KECCAK256 PUSH1 0x0 SHR PUSH2 0xDE1 SWAP2 SWAP1 PUSH2 0x17CD JUMP JUMPDEST SWAP1 POP JUMPDEST DUP4 DUP2 DUP2 MLOAD DUP2 LT PUSH2 0xDF6 JUMPI PUSH2 0xDF6 PUSH2 0x17B7 JUMP JUMPDEST PUSH1 0x20 MUL PUSH1 0x20 ADD ADD MLOAD ISZERO PUSH2 0xE20 JUMPI DUP5 PUSH2 0xE0F DUP3 PUSH1 0x1 PUSH2 0x177D JUMP JUMPDEST PUSH2 0xE19 SWAP2 SWAP1 PUSH2 0x17CD JUMP JUMPDEST SWAP1 POP PUSH2 0xDE4 JUMP JUMPDEST PUSH1 0x1 DUP5 DUP3 DUP2 MLOAD DUP2 LT PUSH2 0xE34 JUMPI PUSH2 0xE34 PUSH2 0x17B7 JUMP JUMPDEST PUSH1 0x20 MUL PUSH1 0x20 ADD ADD SWAP1 ISZERO ISZERO SWAP1 DUP2 ISZERO ISZERO DUP2 MSTORE POP POP PUSH1 0x7 DUP2 DUP2 SLOAD DUP2 LT PUSH2 0xE59 JUMPI PUSH2 0xE59 PUSH2 0x17B7 JUMP JUMPDEST SWAP1 PUSH1 0x0 MSTORE PUSH1 0x20 PUSH1 0x0 KECCAK256 ADD PUSH1 0x0 SWAP1 SLOAD SWAP1 PUSH2 0x100 EXP SWAP1 DIV PUSH1 0x1 PUSH1 0x1 PUSH1 0xA0 SHL SUB AND DUP4 DUP4 DUP2 MLOAD DUP2 LT PUSH2 0xE89 JUMPI PUSH2 0xE89 PUSH2 0x17B7 JUMP JUMPDEST PUSH1 0x1 PUSH1 0x1 PUSH1 0xA0 SHL SUB SWAP1 SWAP3 AND PUSH1 0x20 SWAP3 DUP4 MUL SWAP2 SWAP1 SWAP2 ADD SWAP1 SWAP2 ADD MSTORE POP PUSH1 0x1 ADD PUSH2 0xD93 JUMP JUMPDEST POP PUSH1 0x4 DUP1 SLOAD PUSH1 0xFF NOT AND PUSH1 0x3 OR SWAP1 SSTORE PUSH1 0x5 SLOAD PUSH1 0x40 MLOAD PUSH32 0xB9315731E05E01DBABE457C482230A47A1C31D7A8DB0CD8B62740751AE551605 SWAP1 PUSH2 0xEEB SWAP1 DUP5 SWAP1 PUSH2 0x141C JUMP JUMPDEST PUSH1 0x40 MLOAD DUP1 SWAP2 SUB SWAP1 LOG2 POP POP POP POP POP JUMP JUMPDEST PUSH1 0x2 SLOAD PUSH1 0x1 PUSH1 0x1 PUSH1 0xA0 SHL SUB AND CALLER EQ PUSH2 0x7FC JUMPI PUSH1 0x40 MLOAD PUSH4 0x118CDAA7 PUSH1 0xE0 SHL DUP2 MSTORE CALLER PUSH1 0x4 DUP3 ADD MSTORE PUSH1 0x24 ADD PUSH2 0x463 JUMP JUMPDEST PUSH1 0x2 DUP1 SLOAD PUSH1 0x1 PUSH1 0x1 PUSH1 0xA0 SHL SUB DUP4 DUP2 AND PUSH1 0x1 PUSH1 0x1 PUSH1 0xA0 SHL SUB NOT DUP4 AND DUP2 OR SWAP1 SWAP4 SSTORE PUSH1 0x40 MLOAD SWAP2 AND SWAP2 SWAP1 DUP3 SWAP1 PUSH32 0x8BE0079C531659141344CD1FD0A4F28419497F9722A3DAAFE3B4186F6B6457E0 SWAP1 PUSH1 0x0 SWAP1 LOG3 POP POP JUMP JUMPDEST PUSH1 0x60 PUSH2 0xFA6 PUSH32 0x0 PUSH1 0x0 PUSH2 0x1209 JUMP JUMPDEST SWAP1 POP SWAP1 JUMP JUMPDEST PUSH1 0x60 PUSH2 0xFA6 PUSH32 0x0 PUSH1 0x1 PUSH2 0x1209 JUMP JUMPDEST PUSH1 0x0 ADDRESS PUSH1 0x1 PUSH1 0x1 PUSH1 0xA0 SHL SUB PUSH32 0x0 AND EQ DUP1 ISZERO PUSH2 0x1031 JUMPI POP PUSH32 0x0 CHAINID EQ JUMPDEST ISZERO PUSH2 0x105B JUMPI POP PUSH32 0x0 SWAP1 JUMP JUMPDEST PUSH2 0xFA6 PUSH1 0x40 DUP1 MLOAD PUSH32 0x8B73C3C69BB8FE3D512ECC4CF759CC79239F7B179B0FFACAA9A75D522B39400F PUSH1 0x20 DUP3 ADD MSTORE PUSH32 0x0 SWAP2 DUP2 ADD SWAP2 SWAP1 SWAP2 MSTORE PUSH32 0x0 PUSH1 0x60 DUP3 ADD MSTORE CHAINID PUSH1 0x80 DUP3 ADD MSTORE ADDRESS PUSH1 0xA0 DUP3 ADD MSTORE PUSH1 0x0 SWAP1 PUSH1 0xC0 ADD PUSH1 0x40 MLOAD PUSH1 0x20 DUP2 DUP4 SUB SUB DUP2 MSTORE SWAP1 PUSH1 0x40 MSTORE DUP1 MLOAD SWAP1 PUSH1 0x20 ADD KECCAK256 SWAP1 POP SWAP1 JUMP JUMPDEST PUSH1 0x0 DUP1 PUSH1 0x0 DUP4 MLOAD PUSH1 0x41 SUB PUSH2 0x113D JUMPI PUSH1 0x20 DUP5 ADD MLOAD PUSH1 0x40 DUP6 ADD MLOAD PUSH1 0x60 DUP7 ADD MLOAD PUSH1 0x0 BYTE PUSH2 0x112F DUP9 DUP3 DUP6 DUP6 PUSH2 0x12B4 JUMP JUMPDEST SWAP6 POP SWAP6 POP SWAP6 POP POP POP POP PUSH2 0x1149 JUMP JUMPDEST POP POP DUP2 MLOAD PUSH1 0x0 SWAP2 POP PUSH1 0x2 SWAP1 JUMPDEST SWAP3 POP SWAP3 POP SWAP3 JUMP JUMPDEST PUSH1 0x0 DUP3 PUSH1 0x3 DUP2 GT ISZERO PUSH2 0x1164 JUMPI PUSH2 0x1164 PUSH2 0x173F JUMP JUMPDEST SUB PUSH2 0x116D JUMPI POP POP JUMP JUMPDEST PUSH1 0x1 DUP3 PUSH1 0x3 DUP2 GT ISZERO PUSH2 0x1181 JUMPI PUSH2 0x1181 PUSH2 0x173F JUMP JUMPDEST SUB PUSH2 0x119F JUMPI PUSH1 0x40 MLOAD PUSH4 0xF645EEDF PUSH1 0xE0 SHL DUP2 MSTORE PUSH1 0x4 ADD PUSH1 0x40 MLOAD DUP1 SWAP2 SUB SWAP1 REVERT JUMPDEST PUSH1 0x2 DUP3 PUSH1 0x3 DUP2 GT ISZERO PUSH2 0x11B3 JUMPI PUSH2 0x11B3 PUSH2 0x173F JUMP JUMPDEST SUB PUSH2 0x11D4 JUMPI PUSH1 0x40 MLOAD PUSH4 0xFCE698F7 PUSH1 0xE0 SHL DUP2 MSTORE PUSH1 0x4 DUP2 ADD DUP3 SWAP1 MSTORE PUSH1 0x24 ADD PUSH2 0x463 JUMP JUMPDEST PUSH1 0x3 DUP3 PUSH1 0x3 DUP2 GT ISZERO PUSH2 0x11E8 JUMPI PUSH2 0x11E8 PUSH2 0x173F JUMP JUMPDEST SUB PUSH2 0x7E6 JUMPI PUSH1 0x40 MLOAD PUSH4 0x35E2F383 PUSH1 0xE2 SHL DUP2 MSTORE PUSH1 0x4 DUP2 ADD DUP3 SWAP1 MSTORE PUSH1 0x24 ADD PUSH2 0x463 JUMP JUMPDEST PUSH1 0x60 PUSH1 0xFF DUP4 EQ PUSH2 0x1223 JUMPI PUSH2 0x121C DUP4 PUSH2 0x1383 JUMP JUMPDEST SWAP1 POP PUSH2 0xBEF JUMP JUMPDEST DUP2 DUP1 SLOAD PUSH2 0x122F SWAP1 PUSH2 0x17EF JUMP JUMPDEST DUP1 PUSH1 0x1F ADD PUSH1 0x20 DUP1 SWAP2 DIV MUL PUSH1 0x20 ADD PUSH1 0x40 MLOAD SWAP1 DUP2 ADD PUSH1 0x40 MSTORE DUP1 SWAP3 SWAP2 SWAP1 DUP2 DUP2 MSTORE PUSH1 0x20 ADD DUP3 DUP1 SLOAD PUSH2 0x125B SWAP1 PUSH2 0x17EF JUMP JUMPDEST DUP1 ISZERO PUSH2 0x12A8 JUMPI DUP1 PUSH1 0x1F LT PUSH2 0x127D JUMPI PUSH2 0x100 DUP1 DUP4 SLOAD DIV MUL DUP4 MSTORE SWAP2 PUSH1 0x20 ADD SWAP2 PUSH2 0x12A8 JUMP JUMPDEST DUP3 ADD SWAP2 SWAP1 PUSH1 0x0 MSTORE PUSH1 0x20 PUSH1 0x0 KECCAK256 SWAP1 JUMPDEST DUP2 SLOAD DUP2 MSTORE SWAP1 PUSH1 0x1 ADD SWAP1 PUSH1 0x20 ADD DUP1 DUP4 GT PUSH2 0x128B JUMPI DUP3 SWAP1 SUB PUSH1 0x1F AND DUP3 ADD SWAP2 JUMPDEST POP POP POP POP POP SWAP1 POP PUSH2 0xBEF JUMP JUMPDEST PUSH1 0x0 DUP1 DUP1 PUSH32 0x7FFFFFFFFFFFFFFFFFFFFFFFFFFFFFFF5D576E7357A4501DDFE92F46681B20A0 DUP5 GT ISZERO PUSH2 0x12EF JUMPI POP PUSH1 0x0 SWAP2 POP PUSH1 0x3 SWAP1 POP DUP3 PUSH2 0x1379 JUMP JUMPDEST PUSH1 0x40 DUP1 MLOAD PUSH1 0x0 DUP1 DUP3 MSTORE PUSH1 0x20 DUP3 ADD DUP1 DUP5 MSTORE DUP11 SWAP1 MSTORE PUSH1 0xFF DUP10 AND SWAP3 DUP3 ADD SWAP3 SWAP1 SWAP3 MSTORE PUSH1 0x60 DUP2 ADD DUP8 SWAP1 MSTORE PUSH1 0x80 DUP2 ADD DUP7 SWAP1 MSTORE PUSH1 0x1 SWAP1 PUSH1 0xA0 ADD PUSH1 0x20 PUSH1 0x40 MLOAD PUSH1 0x20 DUP2 SUB SWAP1 DUP1 DUP5 SUB SWAP1 DUP6 GAS STATICCALL ISZERO DUP1 ISZERO PUSH2 0x1343 JUMPI RETURNDATASIZE PUSH1 0x0 DUP1 RETURNDATACOPY RETURNDATASIZE PUSH1 0x0 REVERT JUMPDEST POP POP PUSH1 0x40 MLOAD PUSH1 0x1F NOT ADD MLOAD SWAP2 POP POP PUSH1 0x1 PUSH1 0x1 PUSH1 0xA0 SHL SUB DUP2 AND PUSH2 0x136F JUMPI POP PUSH1 0x0 SWAP3 POP PUSH1 0x1 SWAP2 POP DUP3 SWAP1 POP PUSH2 0x1379 JUMP JUMPDEST SWAP3 POP PUSH1 0x0 SWAP2 POP DUP2 SWAP1 POP JUMPDEST SWAP5 POP SWAP5 POP SWAP5 SWAP2 POP POP JUMP JUMPDEST PUSH1 0x60 PUSH1 0x0 PUSH2 0x1390 DUP4 PUSH2 0x13C2 JUMP JUMPDEST PUSH1 0x40 DUP1 MLOAD PUSH1 0x20 DUP1 DUP3 MSTORE DUP2 DUP4 ADD SWAP1 SWAP3 MSTORE SWAP2 SWAP3 POP PUSH1 0x0 SWAP2 SWAP1 PUSH1 0x20 DUP3 ADD DUP2 DUP1 CALLDATASIZE DUP4 CALLDATACOPY POP POP POP SWAP2 DUP3 MSTORE POP PUSH1 0x20 DUP2 ADD SWAP3 SWAP1 SWAP3 MSTORE POP SWAP1 JUMP JUMPDEST PUSH1 0x0 PUSH1 0xFF DUP3 AND PUSH1 0x1F DUP2 GT ISZERO PUSH2 0xBEF JUMPI PUSH1 0x40 MLOAD PUSH4 0x2CD44AC3 PUSH1 0xE2 SHL DUP2 MSTORE PUSH1 0x4 ADD PUSH1 0x40 MLOAD DUP1 SWAP2 SUB SWAP1 REVERT JUMPDEST POP DUP1 SLOAD PUSH1 0x0 DUP3 SSTORE SWAP1 PUSH1 0x0 MSTORE PUSH1 0x20 PUSH1 0x0 KECCAK256 SWAP1 DUP2 ADD SWAP1 PUSH2 0x96C SWAP2 SWAP1 JUMPDEST DUP1 DUP3 GT ISZERO PUSH2 0x1418 JUMPI PUSH1 0x0 DUP2 SSTORE PUSH1 0x1 ADD PUSH2 0x1404 JUMP JUMPDEST POP SWAP1 JUMP JUMPDEST PUSH1 0x20 DUP1 DUP3 MSTORE DUP3 MLOAD DUP3 DUP3 ADD DUP2 SWAP1 MSTORE PUSH1 0x0 SWAP2 SWAP1 DUP5 DUP3 ADD SWAP1 PUSH1 0x40 DUP6 ADD SWAP1 DUP5 JUMPDEST DUP2 DUP2 LT ISZERO PUSH2 0x145D JUMPI DUP4 MLOAD PUSH1 0x1 PUSH1 0x1 PUSH1 0xA0 SHL SUB AND DUP4 MSTORE SWAP3 DUP5 ADD SWAP3 SWAP2 DUP5 ADD SWAP2 PUSH1 0x1 ADD PUSH2 0x1438 JUMP JUMPDEST POP SWAP1 SWAP7 SWAP6 POP POP POP POP POP POP JUMP JUMPDEST DUP1 CALLDATALOAD PUSH1 0x1 PUSH1 0x1 PUSH1 0xA0 SHL SUB DUP2 AND DUP2 EQ PUSH2 0x1480 JUMPI PUSH1 0x0 DUP1 REVERT JUMPDEST SWAP2 SWAP1 POP JUMP JUMPDEST PUSH1 0x0 DUP1 PUSH1 0x0 DUP1 PUSH1 0x0 PUSH1 0x80 DUP7 DUP9 SUB SLT ISZERO PUSH2 0x149D JUMPI PUSH1 0x0 DUP1 REVERT JUMPDEST PUSH2 0x14A6 DUP7 PUSH2 0x1469 JUMP JUMPDEST SWAP5 POP PUSH1 0x20 DUP7 ADD CALLDATALOAD SWAP4 POP PUSH1 0x40 DUP7 ADD CALLDATALOAD SWAP3 POP PUSH1 0x60 DUP7 ADD CALLDATALOAD PUSH8 0xFFFFFFFFFFFFFFFF DUP1 DUP3 GT ISZERO PUSH2 0x14D1 JUMPI PUSH1 0x0 DUP1 REVERT JUMPDEST DUP2 DUP9 ADD SWAP2 POP DUP9 PUSH1 0x1F DUP4 ADD SLT PUSH2 0x14E5 JUMPI PUSH1 0x0 DUP1 REVERT JUMPDEST DUP2 CALLDATALOAD DUP2 DUP2 GT ISZERO PUSH2 0x14F4 JUMPI PUSH1 0x0 DUP1 REVERT JUMPDEST DUP10 PUSH1 0x20 DUP3 DUP6 ADD ADD GT ISZERO PUSH2 0x1506 JUMPI PUSH1 0x0 DUP1 REVERT JUMPDEST SWAP7 SWAP10 SWAP6 SWAP9 POP SWAP4 SWAP7 POP PUSH1 0x20 ADD SWAP5 SWAP4 SWAP3 POP POP POP JUMP JUMPDEST PUSH4 0x4E487B71 PUSH1 0xE0 SHL PUSH1 0x0 MSTORE PUSH1 0x41 PUSH1 0x4 MSTORE PUSH1 0x24 PUSH1 0x0 REVERT JUMPDEST PUSH1 0x0 DUP1 PUSH1 0x40 DUP4 DUP6 SUB SLT ISZERO PUSH2 0x1542 JUMPI PUSH1 0x0 DUP1 REVERT JUMPDEST DUP3 CALLDATALOAD SWAP2 POP PUSH1 0x20 DUP1 DUP5 ADD CALLDATALOAD PUSH8 0xFFFFFFFFFFFFFFFF DUP1 DUP3 GT ISZERO PUSH2 0x1562 JUMPI PUSH1 0x0 DUP1 REVERT JUMPDEST DUP2 DUP7 ADD SWAP2 POP DUP7 PUSH1 0x1F DUP4 ADD SLT PUSH2 0x1576 JUMPI PUSH1 0x0 DUP1 REVERT JUMPDEST DUP2 CALLDATALOAD DUP2 DUP2 GT ISZERO PUSH2 0x1588 JUMPI PUSH2 0x1588 PUSH2 0x1519 JUMP JUMPDEST DUP1 PUSH1 0x5 SHL PUSH1 0x40 MLOAD PUSH1 0x1F NOT PUSH1 0x3F DUP4 ADD AND DUP2 ADD DUP2 DUP2 LT DUP6 DUP3 GT OR ISZERO PUSH2 0x15AD JUMPI PUSH2 0x15AD PUSH2 0x1519 JUMP JUMPDEST PUSH1 0x40 MSTORE SWAP2 DUP3 MSTORE DUP5 DUP3 ADD SWAP3 POP DUP4 DUP2 ADD DUP6 ADD SWAP2 DUP10 DUP4 GT ISZERO PUSH2 0x15CB JUMPI PUSH1 0x0 DUP1 REVERT JUMPDEST SWAP4 DUP6 ADD SWAP4 JUMPDEST DUP3 DUP6 LT ISZERO PUSH2 0x15E9 JUMPI DUP5 CALLDATALOAD DUP5 MSTORE SWAP4 DUP6 ADD SWAP4 SWAP3 DUP6 ADD SWAP3 PUSH2 0x15D0 JUMP JUMPDEST DUP1 SWAP7 POP POP POP POP POP POP POP SWAP3 POP SWAP3 SWAP1 POP JUMP JUMPDEST PUSH1 0x0 DUP1 PUSH1 0x40 DUP4 DUP6 SUB SLT ISZERO PUSH2 0x160C JUMPI PUSH1 0x0 DUP1 REVERT JUMPDEST DUP3 CALLDATALOAD SWAP2 POP PUSH2 0x161C PUSH1 0x20 DUP5 ADD PUSH2 0x1469 JUMP JUMPDEST SWAP1 POP SWAP3 POP SWAP3 SWAP1 POP JUMP JUMPDEST PUSH1 0x0 PUSH1 0x20 DUP3 DUP5 SUB SLT ISZERO PUSH2 0x1637 JUMPI PUSH1 0x0 DUP1 REVERT JUMPDEST PUSH2 0x1640 DUP3 PUSH2 0x1469 JUMP JUMPDEST SWAP4 SWAP3 POP POP POP JUMP JUMPDEST PUSH1 0x0 DUP2 MLOAD DUP1 DUP5 MSTORE PUSH1 0x0 JUMPDEST DUP2 DUP2 LT ISZERO PUSH2 0x166D JUMPI PUSH1 0x20 DUP2 DUP6 ADD DUP2 ADD MLOAD DUP7 DUP4 ADD DUP3 ADD MSTORE ADD PUSH2 0x1651 JUMP JUMPDEST POP PUSH1 0x0 PUSH1 0x20 DUP3 DUP7 ADD ADD MSTORE PUSH1 0x20 PUSH1 0x1F NOT PUSH1 0x1F DUP4 ADD AND DUP6 ADD ADD SWAP2 POP POP SWAP3 SWAP2 POP POP JUMP JUMPDEST PUSH1 0xFF PUSH1 0xF8 SHL DUP9 AND DUP2 MSTORE PUSH1 0x0 PUSH1 0x20 PUSH1 0xE0 PUSH1 0x20 DUP5 ADD MSTORE PUSH2 0x16AE PUSH1 0xE0 DUP5 ADD DUP11 PUSH2 0x1647 JUMP JUMPDEST DUP4 DUP2 SUB PUSH1 0x40 DUP6 ADD MSTORE PUSH2 0x16C0 DUP2 DUP11 PUSH2 0x1647 JUMP JUMPDEST PUSH1 0x60 DUP6 ADD DUP10 SWAP1 MSTORE PUSH1 0x1 PUSH1 0x1 PUSH1 0xA0 SHL SUB DUP9 AND PUSH1 0x80 DUP7 ADD MSTORE PUSH1 0xA0 DUP6 ADD DUP8 SWAP1 MSTORE DUP5 DUP2 SUB PUSH1 0xC0 DUP7 ADD MSTORE DUP6 MLOAD DUP1 DUP3 MSTORE PUSH1 0x20 DUP1 DUP9 ADD SWAP4 POP SWAP1 SWAP2 ADD SWAP1 PUSH1 0x0 JUMPDEST DUP2 DUP2 LT ISZERO PUSH2 0x1714 JUMPI DUP4 MLOAD DUP4 MSTORE SWAP3 DUP5 ADD SWAP3 SWAP2 DUP5 ADD SWAP2 PUSH1 0x1 ADD PUSH2 0x16F8 JUMP JUMPDEST POP SWAP1 SWAP13 SWAP12 POP POP POP POP POP POP POP POP POP POP POP POP JUMP JUMPDEST PUSH1 0x0 PUSH1 0x20 DUP3 DUP5 SUB SLT ISZERO PUSH2 0x1738 JUMPI PUSH1 0x0 DUP1 REVERT JUMPDEST POP CALLDATALOAD SWAP2 SWAP1 POP JUMP JUMPDEST PUSH4 0x4E487B71 PUSH1 0xE0 SHL PUSH1 0x0 MSTORE PUSH1 0x21 PUSH1 0x4 MSTORE PUSH1 0x24 PUSH1 0x0 REVERT JUMPDEST PUSH1 0x20 DUP2 ADD PUSH1 0x4 DUP4 LT PUSH2 0x1777 JUMPI PUSH4 0x4E487B71 PUSH1 0xE0 SHL PUSH1 0x0 MSTORE PUSH1 0x21 PUSH1 0x4 MSTORE PUSH1 0x24 PUSH1 0x0 REVERT JUMPDEST SWAP2 SWAP1 MSTORE SWAP1 JUMP JUMPDEST DUP1 DUP3 ADD DUP1 DUP3 GT ISZERO PUSH2 0xBEF JUMPI PUSH4 0x4E487B71 PUSH1 0xE0 SHL PUSH1 0x0 MSTORE PUSH1 0x11 PUSH1 0x4 MSTORE PUSH1 0x24 PUSH1 0x0 REVERT JUMPDEST PUSH1 0x0 PUSH1 0x20 DUP3 DUP5 SUB SLT ISZERO PUSH2 0x17B0 JUMPI PUSH1 0x0 DUP1 REVERT JUMPDEST POP MLOAD SWAP2 SWAP1 POP JUMP JUMPDEST PUSH4 0x4E487B71 PUSH1 0xE0 SHL PUSH1 0x0 MSTORE PUSH1 0x32 PUSH1 0x4 MSTORE PUSH1 0x24 PUSH1 0x0 REVERT JUMPDEST PUSH1 0x0 DUP3 PUSH2 0x17EA JUMPI PUSH4 0x4E487B71 PUSH1 0xE0 SHL PUSH1 0x0 MSTORE PUSH1 0x12 PUSH1 0x4 MSTORE PUSH1 0x24 PUSH1 0x0 REVERT JUMPDEST POP MOD SWAP1 JUMP JUMPDEST PUSH1 0x1 DUP2 DUP2 SHR SWAP1 DUP3 AND DUP1 PUSH2 0x1803 JUMPI PUSH1 0x7F DUP3 AND SWAP2 POP JUMPDEST PUSH1 0x20 DUP3 LT DUP2 SUB PUSH2 0x1823 JUMPI PUSH4 0x4E487B71 PUSH1 0xE0 SHL PUSH1 0x0 MSTORE PUSH1 0x22 PUSH1 0x4 MSTORE PUSH1 0x24 PUSH1 0x0 REVERT JUMPDEST POP SWAP2 SWAP1 POP JUMP INVALID LOG2 PUSH5 0x6970667358 0x22 SLT KECCAK256 RETURN 0x28 NUMBER 0xEE SWAP16 DUP7 SWAP7 0xDD SWAP3 0xD1 SSTORE 0xA7 SWAP3 MOD 0xE7 BASEFEE 0xC3 SWAP16 GT PUSH11 0xAA3830A34323EEAB09629B PUSH32 0x64736F6C63430008180033000000000000000000000000000000000000000000 "},"methodIdentifiers":{"COORDINATOR()":"3b2bcbf1","callbackGasLimit()":"24f74697","eip712Domain()":"84b0196e","enterWithSig(address,uint256,uint256,bytes)":"103064cb","entered(uint256,address)":"4d333814","entrantsAll()":"0d05532a","entrantsCount()":"21af3f9f","keyHash()":"61728f39","lastRequestId()":"fc2a88c3","lock()":"f83d08ba","newRound(uint256)":"a35bd591","nonces(address)":"7ecebe00","numWords()":"7ccfd7fc","owner()":"8da5cb5b","phase()":"b1c9fe6e","raffleId()":"b375603c","randomWord()":"f5684183","rawFulfillRandomWords(uint256,uint256[])":"1fe543e3","renounceOwnership()":"715018a6","requestConfirmations()":"b0fb162f","requestRandomness()":"f8413b07","subscriptionId()":"09c1ba2e","transferOwnership(address)":"f2fde38b","winnersCount()":"49713811"}}}}}