{
  "address": "0x444cfa73AFC1620Df160B6Ff36B1a1AF223A92Bf",
  "abi": [
    {
      "inputs": [],
      "stateMutability": "nonpayable",
      "type": "constructor"
    },
    {
      "inputs": [],
      "name": "ECDSAInvalidSignature",
      "type": "error"
    },
    {
      "inputs": [
        {
          "internalType": "uint256",
          "name": "length",
          "type": "uint256"
        }
      ],
      "name": "ECDSAInvalidSignatureLength",
      "type": "error"
    },
    {
      "inputs": [
        {
          "internalType": "bytes32",
          "name": "s",
          "type": "bytes32"
        }
      ],
      "name": "ECDSAInvalidSignatureS",
      "type": "error"
    },
    {
      "inputs": [],
      "name": "InvalidShortString",
      "type": "error"
    },
    {
      "inputs": [
        {
          "internalType": "string",
          "name": "str",
          "type": "string"
        }
      ],
      "name": "StringTooLong",
      "type": "error"
    },
    {
      "anonymous": false,
      "inputs": [],
      "name": "EIP712DomainChanged",
      "type": "event"
    },
    {
      "anonymous": false,
      "inputs": [
        {
          "indexed": true,
          "internalType": "address",
          "name": "maker",
          "type": "address"
        },
        {
          "indexed": true,
          "internalType": "address",
          "name": "taker",
          "type": "address"
        },
        {
          "indexed": false,
          "internalType": "address",
          "name": "tokenM",
          "type": "address"
        },
        {
          "indexed": false,
          "internalType": "address",
          "name": "tokenT",
          "type": "address"
        },
        {
          "indexed": false,
          "internalType": "uint256",
          "name": "amountM",
          "type": "uint256"
        },
        {
          "indexed": false,
          "internalType": "uint256",
          "name": "amountT",
          "type": "uint256"
        }
      ],
      "name": "Swap",
      "type": "event"
    },
    {
      "inputs": [],
      "name": "SWAP_ORDER_TYPEHASH",
      "outputs": [
        {
          "internalType": "bytes32",
          "name": "",
          "type": "bytes32"
        }
      ],
      "stateMutability": "view",
      "type": "function"
    },
    {
      "inputs": [],
      "name": "eip712Domain",
      "outputs": [
        {
          "internalType": "bytes1",
          "name": "fields",
          "type": "bytes1"
        },
        {
          "internalType": "string",
          "name": "name",
          "type": "string"
        },
        {
          "internalType": "string",
          "name": "version",
          "type": "string"
        },
        {
          "internalType": "uint256",
          "name": "chainId",
          "type": "uint256"
        },
        {
          "internalType": "address",
          "name": "verifyingContract",
          "type": "address"
        },
        {
          "internalType": "bytes32",
          "name": "salt",
          "type": "bytes32"
        },
        {
          "internalType": "uint256[]",
          "name": "extensions",
          "type": "uint256[]"
        }
      ],
      "stateMutability": "view",
      "type": "function"
    },
    {
      "inputs": [
        {
          "components": [
            {
              "internalType": "address",
              "name": "maker",
              "type": "address"
            },
            {
              "internalType": "address",
              "name": "taker",
              "type": "address"
            },
            {
              "internalType": "address",
              "name": "tokenM",
              "type": "address"
            },
            {
              "internalType": "address",
              "name": "tokenT",
              "type": "address"
            },
            {
              "internalType": "uint256",
              "name": "amountM",
              "type": "uint256"
            },
            {
              "internalType": "uint256",
              "name": "amountT",
              "type": "uint256"
            },
            {
              "internalType": "uint256",
              "name": "expiry",
              "type": "uint256"
            },
            {
              "internalType": "uint256",
              "name": "nonce",
              "type": "uint256"
            }
          ],
          "internalType": "struct SwapOrder",
          "name": "order",
          "type": "tuple"
        },
        {
          "internalType": "bytes",
          "name": "signature",
          "type": "bytes"
        }
      ],
      "name": "instantSwap",
      "outputs": [],
      "stateMutability": "nonpayable",
      "type": "function"
    },
    {
      "inputs": [
        {
          "internalType": "bytes32",
          "name": "",
          "type": "bytes32"
        }
      ],
      "name": "usedNonces",
      "outputs": [
        {
          "internalType": "bool",
          "name": "",
          "type": "bool"
        }
      ],
      "stateMutability": "view",
      "type": "function"
    }
  ],
  "transactionHash": "0x73785ae24ab68a4dd5f4d02e433bddc6d2408c72445baa14f353989290d03ce1",
  "args": [],
  "numDeployments": 1,
  "solcInputHash": "5426e028bb29ec0d294be49d65e8f5ee",
  "bytecode": "0x6101606040523480156200001257600080fd5b50604080518082018252600b81526a0496e7374616e74537761760ac1b602080830191909152825180840190935260018352603160f81b90830152906200005b82600062000109565b610120526200006c81600162000109565b61014052815160208084019190912060e052815190820120610100524660a052620000fa60e05161010051604080517f8b73c3c69bb8fe3d512ecc4cf759cc79239f7b179b0ffacaa9a75d522b39400f60208201529081019290925260608201524660808201523060a082015260009060c00160405160208183030381529060405280519060200120905090565b60805250503060c05262000374565b60006020835110156200012957620001218362000142565b90506200013c565b8162000136848262000233565b5060ff90505b92915050565b600080829050601f8151111562000179578260405163305a27a960e01b8152600401620001709190620002ff565b60405180910390fd5b805162000186826200034f565b179392505050565b634e487b7160e01b600052604160045260246000fd5b600181811c90821680620001b957607f821691505b602082108103620001da57634e487b7160e01b600052602260045260246000fd5b50919050565b601f8211156200022e57600081815260208120601f850160051c81016020861015620002095750805b601f850160051c820191505b818110156200022a5782815560010162000215565b5050505b505050565b81516001600160401b038111156200024f576200024f6200018e565b6200026781620002608454620001a4565b84620001e0565b602080601f8311600181146200029f5760008415620002865750858301515b600019600386901b1c1916600185901b1785556200022a565b600085815260208120601f198616915b82811015620002d057888601518255948401946001909101908401620002af565b5085821015620002ef5787850151600019600388901b60f8161c191681555b5050505050600190811b01905550565b600060208083528351808285015260005b818110156200032e5785810183015185820160400152820162000310565b506000604082860101526040601f19601f8301168501019250505092915050565b80516020808301519190811015620001da5760001960209190910360031b1b16919050565b60805160a05160c05160e051610100516101205161014051610e13620003cf600039600061052c015260006104fa0152600061086a015260006108420152600061079d015260006107c7015260006107f10152610e136000f3fe608060405234801561001057600080fd5b506004361061004c5760003560e01c806384b0196e146100515780638d9f2b4814610075578063c7f046c31461008a578063feb61724146100bf575b600080fd5b6100596100f2565b60405161006c9796959493929190610b02565b60405180910390f35b610088610083366004610c81565b610138565b005b6100b17ffc8e798e0daef94ee44ca42250bf83d4b0d60e8c3fba189a6bdc422a6f3257cd81565b60405190815260200161006c565b6100e26100cd366004610d4b565b60026020526000908152604090205460ff1681565b604051901515815260200161006c565b6000606080600080600060606101066104f3565b61010e610525565b60408051600080825260208201909252600f60f81b9b939a50919850469750309650945092509050565b60208201516001600160a01b031633146101855760405162461bcd60e51b815260206004820152600960248201526854616b65722063686b60b81b60448201526064015b60405180910390fd5b61018f8282610552565b6101c75760405162461bcd60e51b81526020600482015260096024820152684d616b65722063686b60b81b604482015260640161017c565b8160c0015142111561020b5760405162461bcd60e51b815260206004820152600d60248201526c13dc99195c88195e1c1a5c9959609a1b604482015260640161017c565b815160e083015160405160609290921b6bffffffffffffffffffffffff19166020830152603482015260009060540160408051601f1981840301815291815281516020928301206000818152600290935291205490915060ff16156102a75760405162461bcd60e51b81526020600482015260126024820152711b9bdb98d948185b1c9958591e481d5cd95960721b604482015260640161017c565b600081815260026020908152604091829020805460ff1916600117905584820151855191860151608087015193516323b872dd60e01b81526001600160a01b0393841660048201529083166024820152604481019390935216906323b872dd906064016020604051808303816000875af1158015610329573d6000803e3d6000fd5b505050506040513d601f19601f8201168201806040525081019061034d9190610d64565b6103925760405162461bcd60e51b8152602060048201526016602482015275151bdad95b93481d1c985b9cd9995c8819985a5b195960521b604482015260640161017c565b60608301516020840151845160a08601516040516323b872dd60e01b81526001600160a01b039384166004820152918316602483015260448201529116906323b872dd906064016020604051808303816000875af11580156103f8573d6000803e3d6000fd5b505050506040513d601f19601f8201168201806040525081019061041c9190610d64565b6104615760405162461bcd60e51b8152602060048201526016602482015275151bdad95b95081d1c985b9cd9995c8819985a5b195960521b604482015260640161017c565b82602001516001600160a01b031683600001516001600160a01b03167f20efd6d5195b7b50273f01cd79a27989255356f9f13293edc53ee142accfdb758560400151866060015187608001518860a001516040516104e694939291906001600160a01b0394851681529290931660208301526040820152606081019190915260800190565b60405180910390a3505050565b60606105207f0000000000000000000000000000000000000000000000000000000000000000600061064f565b905090565b60606105207f0000000000000000000000000000000000000000000000000000000000000000600161064f565b6000807ffc8e798e0daef94ee44ca42250bf83d4b0d60e8c3fba189a6bdc422a6f3257cd846000015185602001518660400151876060015188608001518960a001518a60c001518b60e00151604051602001610602999897969594939291909889526001600160a01b0397881660208a01529587166040890152938616606088015291909416608086015260a085019390935260c084019290925260e08301919091526101008201526101200190565b6040516020818303038152906040528051906020012090506000610625826106fa565b905060006106338286610727565b86516001600160a01b0391821691161493505050505b92915050565b606060ff83146106695761066283610751565b9050610649565b81805461067590610d8d565b80601f01602080910402602001604051908101604052809291908181526020018280546106a190610d8d565b80156106ee5780601f106106c3576101008083540402835291602001916106ee565b820191906000526020600020905b8154815290600101906020018083116106d157829003601f168201915b50505050509050610649565b6000610649610707610790565b8360405161190160f01b8152600281019290925260228201526042902090565b60008060008061073786866108bb565b9250925092506107478282610908565b5090949350505050565b6060600061075e836109c5565b604080516020808252818301909252919250600091906020820181803683375050509182525060208101929092525090565b6000306001600160a01b037f0000000000000000000000000000000000000000000000000000000000000000161480156107e957507f000000000000000000000000000000000000000000000000000000000000000046145b1561081357507f000000000000000000000000000000000000000000000000000000000000000090565b610520604080517f8b73c3c69bb8fe3d512ecc4cf759cc79239f7b179b0ffacaa9a75d522b39400f60208201527f0000000000000000000000000000000000000000000000000000000000000000918101919091527f000000000000000000000000000000000000000000000000000000000000000060608201524660808201523060a082015260009060c00160405160208183030381529060405280519060200120905090565b600080600083516041036108f55760208401516040850151606086015160001a6108e7888285856109ed565b955095509550505050610901565b50508151600091506002905b9250925092565b600082600381111561091c5761091c610dc7565b03610925575050565b600182600381111561093957610939610dc7565b036109575760405163f645eedf60e01b815260040160405180910390fd5b600282600381111561096b5761096b610dc7565b0361098c5760405163fce698f760e01b81526004810182905260240161017c565b60038260038111156109a0576109a0610dc7565b036109c1576040516335e2f38360e21b81526004810182905260240161017c565b5050565b600060ff8216601f81111561064957604051632cd44ac360e21b815260040160405180910390fd5b600080807f7fffffffffffffffffffffffffffffff5d576e7357a4501ddfe92f46681b20a0841115610a285750600091506003905082610ab2565b604080516000808252602082018084528a905260ff891692820192909252606081018790526080810186905260019060a0016020604051602081039080840390855afa158015610a7c573d6000803e3d6000fd5b5050604051601f1901519150506001600160a01b038116610aa857506000925060019150829050610ab2565b9250600091508190505b9450945094915050565b6000815180845260005b81811015610ae257602081850181015186830182015201610ac6565b506000602082860101526020601f19601f83011685010191505092915050565b60ff60f81b881681526000602060e081840152610b2260e084018a610abc565b8381036040850152610b34818a610abc565b606085018990526001600160a01b038816608086015260a0850187905284810360c0860152855180825283870192509083019060005b81811015610b8657835183529284019291840191600101610b6a565b50909c9b505050505050505050505050565b634e487b7160e01b600052604160045260246000fd5b604051610100810167ffffffffffffffff81118282101715610bd257610bd2610b98565b60405290565b80356001600160a01b0381168114610bef57600080fd5b919050565b600082601f830112610c0557600080fd5b813567ffffffffffffffff80821115610c2057610c20610b98565b604051601f8301601f19908116603f01168101908282118183101715610c4857610c48610b98565b81604052838152866020858801011115610c6157600080fd5b836020870160208301376000602085830101528094505050505092915050565b600080828403610120811215610c9657600080fd5b61010080821215610ca657600080fd5b610cae610bae565b9150610cb985610bd8565b8252610cc760208601610bd8565b6020830152610cd860408601610bd8565b6040830152610ce960608601610bd8565b60608301526080850135608083015260a085013560a083015260c085013560c083015260e085013560e08301528193508085013591505067ffffffffffffffff811115610d3557600080fd5b610d4185828601610bf4565b9150509250929050565b600060208284031215610d5d57600080fd5b5035919050565b600060208284031215610d7657600080fd5b81518015158114610d8657600080fd5b9392505050565b600181811c90821680610da157607f821691505b602082108103610dc157634e487b7160e01b600052602260045260246000fd5b50919050565b634e487b7160e01b600052602160045260246000fdfea2646970667358221220223c71ce95b8fac43607b318c1f76813f2f7b1fc71d738df56a833ebfa448eb264736f6c63430008140033",
  "devdoc": {
    "errors": {
      "ECDSAInvalidSignature()": [
        {
          "details": "The signature derives the `address(0)`."
        }
      ],
      "ECDSAInvalidSignatureLength(uint256)": [
        {
          "details": "The signature has an invalid length."
        }
      ],
      "ECDSAInvalidSignatureS(bytes32)": [
        {
          "details": "The signature has an S value that is in the upper half order."
        }
      ]
    },
    "events": {
      "EIP712DomainChanged()": {
        "details": "MAY be emitted to signal that the domain could have changed."
      }
    },
    "kind": "dev",
    "methods": {
      "eip712Domain()": {
        "details": "See {IERC-5267}."
      }
    },
    "version": 1
  },
  "userdoc": {
    "kind": "user",
    "methods": {},
    "version": 1
  },
  "storageLayout": {
    "storage": [
      {
        "astId": 1925,
        "contract": "contracts/InstantSwap.sol:InstantSwap",
        "label": "_nameFallback",
        "offset": 0,
        "slot": "0",
        "type": "t_string_storage"
      },
      {
        "astId": 1927,
        "contract": "contracts/InstantSwap.sol:InstantSwap",
        "label": "_versionFallback",
        "offset": 0,
        "slot": "1",
        "type": "t_string_storage"
      },
      {
        "astId": 3380,
        "contract": "contracts/InstantSwap.sol:InstantSwap",
        "label": "usedNonces",
        "offset": 0,
        "slot": "2",
        "type": "t_mapping(t_bytes32,t_bool)"
      }
    ],
    "types": {
      "t_bool": {
        "encoding": "inplace",
        "label": "bool",
        "numberOfBytes": "1"
      },
      "t_bytes32": {
        "encoding": "inplace",
        "label": "bytes32",
        "numberOfBytes": "32"
      },
      "t_mapping(t_bytes32,t_bool)": {
        "encoding": "mapping",
        "key": "t_bytes32",
        "label": "mapping(bytes32 => bool)",
        "numberOfBytes": "32",
        "value": "t_bool"
      },
      "t_string_storage": {
        "encoding": "bytes",
        "label": "string",
        "numberOfBytes": "32"
      }
    }
  }
}