{
  "address": "0xAC9B5b6aa293D8a3DEdeAF3796cdA470177b204a",
  "abi": [
    {
      "inputs": [],
      "stateMutability": "nonpayable",
      "type": "constructor"
    },
    {
      "inputs": [
        {
          "internalType": "address",
          "name": "sender",
          "type": "address"
        },
        {
          "internalType": "uint256",
          "name": "tokenId",
          "type": "uint256"
        },
        {
          "internalType": "address",
          "name": "owner",
          "type": "address"
        }
      ],
      "name": "ERC721IncorrectOwner",
      "type": "error"
    },
    {
      "inputs": [
        {
          "internalType": "address",
          "name": "operator",
          "type": "address"
        },
        {
          "internalType": "uint256",
          "name": "tokenId",
          "type": "uint256"
        }
      ],
      "name": "ERC721InsufficientApproval",
      "type": "error"
    },
    {
      "inputs": [
        {
          "internalType": "address",
          "name": "approver",
          "type": "address"
        }
      ],
      "name": "ERC721InvalidApprover",
      "type": "error"
    },
    {
      "inputs": [
        {
          "internalType": "address",
          "name": "operator",
          "type": "address"
        }
      ],
      "name": "ERC721InvalidOperator",
      "type": "error"
    },
    {
      "inputs": [
        {
          "internalType": "address",
          "name": "owner",
          "type": "address"
        }
      ],
      "name": "ERC721InvalidOwner",
      "type": "error"
    },
    {
      "inputs": [
        {
          "internalType": "address",
          "name": "receiver",
          "type": "address"
        }
      ],
      "name": "ERC721InvalidReceiver",
      "type": "error"
    },
    {
      "inputs": [
        {
          "internalType": "address",
          "name": "sender",
          "type": "address"
        }
      ],
      "name": "ERC721InvalidSender",
      "type": "error"
    },
    {
      "inputs": [
        {
          "internalType": "uint256",
          "name": "tokenId",
          "type": "uint256"
        }
      ],
      "name": "ERC721NonexistentToken",
      "type": "error"
    },
    {
      "inputs": [
        {
          "internalType": "address",
          "name": "owner",
          "type": "address"
        }
      ],
      "name": "OwnableInvalidOwner",
      "type": "error"
    },
    {
      "inputs": [
        {
          "internalType": "address",
          "name": "account",
          "type": "address"
        }
      ],
      "name": "OwnableUnauthorizedAccount",
      "type": "error"
    },
    {
      "anonymous": false,
      "inputs": [
        {
          "indexed": true,
          "internalType": "address",
          "name": "owner",
          "type": "address"
        },
        {
          "indexed": true,
          "internalType": "address",
          "name": "approved",
          "type": "address"
        },
        {
          "indexed": true,
          "internalType": "uint256",
          "name": "tokenId",
          "type": "uint256"
        }
      ],
      "name": "Approval",
      "type": "event"
    },
    {
      "anonymous": false,
      "inputs": [
        {
          "indexed": true,
          "internalType": "address",
          "name": "owner",
          "type": "address"
        },
        {
          "indexed": true,
          "internalType": "address",
          "name": "operator",
          "type": "address"
        },
        {
          "indexed": false,
          "internalType": "bool",
          "name": "approved",
          "type": "bool"
        }
      ],
      "name": "ApprovalForAll",
      "type": "event"
    },
    {
      "anonymous": false,
      "inputs": [
        {
          "indexed": true,
          "internalType": "uint256",
          "name": "eventId",
          "type": "uint256"
        },
        {
          "indexed": true,
          "internalType": "address",
          "name": "issuer",
          "type": "address"
        },
        {
          "indexed": false,
          "internalType": "string",
          "name": "name",
          "type": "string"
        },
        {
          "indexed": false,
          "internalType": "uint256",
          "name": "eventDate",
          "type": "uint256"
        },
        {
          "indexed": false,
          "internalType": "uint256",
          "name": "totalTickets",
          "type": "uint256"
        }
      ],
      "name": "EventCreated",
      "type": "event"
    },
    {
      "anonymous": false,
      "inputs": [
        {
          "indexed": true,
          "internalType": "address",
          "name": "previousOwner",
          "type": "address"
        },
        {
          "indexed": true,
          "internalType": "address",
          "name": "newOwner",
          "type": "address"
        }
      ],
      "name": "OwnershipTransferred",
      "type": "event"
    },
    {
      "anonymous": false,
      "inputs": [
        {
          "indexed": true,
          "internalType": "address",
          "name": "owner",
          "type": "address"
        },
        {
          "indexed": false,
          "internalType": "uint256",
          "name": "amount",
          "type": "uint256"
        }
      ],
      "name": "PlatformFeeWithdrawn",
      "type": "event"
    },
    {
      "anonymous": false,
      "inputs": [
        {
          "indexed": true,
          "internalType": "uint256",
          "name": "eventId",
          "type": "uint256"
        },
        {
          "indexed": true,
          "internalType": "address",
          "name": "issuer",
          "type": "address"
        },
        {
          "indexed": false,
          "internalType": "uint256",
          "name": "amount",
          "type": "uint256"
        },
        {
          "indexed": false,
          "internalType": "uint256",
          "name": "platformFee",
          "type": "uint256"
        }
      ],
      "name": "RevenueWithdrawn",
      "type": "event"
    },
    {
      "anonymous": false,
      "inputs": [
        {
          "indexed": true,
          "internalType": "uint256",
          "name": "tokenId",
          "type": "uint256"
        },
        {
          "indexed": true,
          "internalType": "uint256",
          "name": "eventId",
          "type": "uint256"
        },
        {
          "indexed": true,
          "internalType": "address",
          "name": "buyer",
          "type": "address"
        },
        {
          "indexed": false,
          "internalType": "string",
          "name": "seatId",
          "type": "string"
        },
        {
          "indexed": false,
          "internalType": "uint256",
          "name": "price",
          "type": "uint256"
        }
      ],
      "name": "TicketPurchased",
      "type": "event"
    },
    {
      "anonymous": false,
      "inputs": [
        {
          "indexed": true,
          "internalType": "uint256",
          "name": "tierId",
          "type": "uint256"
        },
        {
          "indexed": true,
          "internalType": "uint256",
          "name": "eventId",
          "type": "uint256"
        },
        {
          "indexed": false,
          "internalType": "string",
          "name": "name",
          "type": "string"
        },
        {
          "indexed": false,
          "internalType": "uint256",
          "name": "price",
          "type": "uint256"
        },
        {
          "indexed": false,
          "internalType": "uint256",
          "name": "totalCount",
          "type": "uint256"
        }
      ],
      "name": "TierCreated",
      "type": "event"
    },
    {
      "anonymous": false,
      "inputs": [
        {
          "indexed": true,
          "internalType": "address",
          "name": "from",
          "type": "address"
        },
        {
          "indexed": true,
          "internalType": "address",
          "name": "to",
          "type": "address"
        },
        {
          "indexed": true,
          "internalType": "uint256",
          "name": "tokenId",
          "type": "uint256"
        }
      ],
      "name": "Transfer",
      "type": "event"
    },
    {
      "inputs": [
        {
          "internalType": "address",
          "name": "to",
          "type": "address"
        },
        {
          "internalType": "uint256",
          "name": "tokenId",
          "type": "uint256"
        }
      ],
      "name": "approve",
      "outputs": [],
      "stateMutability": "nonpayable",
      "type": "function"
    },
    {
      "inputs": [
        {
          "internalType": "address",
          "name": "owner",
          "type": "address"
        }
      ],
      "name": "balanceOf",
      "outputs": [
        {
          "internalType": "uint256",
          "name": "",
          "type": "uint256"
        }
      ],
      "stateMutability": "view",
      "type": "function"
    },
    {
      "inputs": [
        {
          "internalType": "uint256",
          "name": "_eventId",
          "type": "uint256"
        },
        {
          "internalType": "string",
          "name": "_seatId",
          "type": "string"
        }
      ],
      "name": "buyTicket",
      "outputs": [],
      "stateMutability": "payable",
      "type": "function"
    },
    {
      "inputs": [
        {
          "internalType": "string",
          "name": "_name",
          "type": "string"
        },
        {
          "internalType": "uint256",
          "name": "_eventDate",
          "type": "uint256"
        },
        {
          "internalType": "string[]",
          "name": "_tierNames",
          "type": "string[]"
        },
        {
          "internalType": "uint256[]",
          "name": "_tierPrices",
          "type": "uint256[]"
        },
        {
          "internalType": "uint256[]",
          "name": "_tierCounts",
          "type": "uint256[]"
        },
        {
          "internalType": "string[][]",
          "name": "_tierSeatIds",
          "type": "string[][]"
        }
      ],
      "name": "createEvent",
      "outputs": [
        {
          "internalType": "uint256",
          "name": "",
          "type": "uint256"
        }
      ],
      "stateMutability": "nonpayable",
      "type": "function"
    },
    {
      "inputs": [
        {
          "internalType": "uint256",
          "name": "_eventId",
          "type": "uint256"
        }
      ],
      "name": "deactivateEvent",
      "outputs": [],
      "stateMutability": "nonpayable",
      "type": "function"
    },
    {
      "inputs": [
        {
          "internalType": "uint256",
          "name": "",
          "type": "uint256"
        }
      ],
      "name": "eventRevenue",
      "outputs": [
        {
          "internalType": "uint256",
          "name": "",
          "type": "uint256"
        }
      ],
      "stateMutability": "view",
      "type": "function"
    },
    {
      "inputs": [
        {
          "internalType": "uint256",
          "name": "",
          "type": "uint256"
        },
        {
          "internalType": "string",
          "name": "",
          "type": "string"
        }
      ],
      "name": "eventSeatToTokenId",
      "outputs": [
        {
          "internalType": "uint256",
          "name": "",
          "type": "uint256"
        }
      ],
      "stateMutability": "view",
      "type": "function"
    },
    {
      "inputs": [
        {
          "internalType": "uint256",
          "name": "",
          "type": "uint256"
        },
        {
          "internalType": "uint256",
          "name": "",
          "type": "uint256"
        }
      ],
      "name": "eventTierIds",
      "outputs": [
        {
          "internalType": "uint256",
          "name": "",
          "type": "uint256"
        }
      ],
      "stateMutability": "view",
      "type": "function"
    },
    {
      "inputs": [
        {
          "internalType": "uint256",
          "name": "",
          "type": "uint256"
        },
        {
          "internalType": "uint256",
          "name": "",
          "type": "uint256"
        }
      ],
      "name": "eventTokenIds",
      "outputs": [
        {
          "internalType": "uint256",
          "name": "",
          "type": "uint256"
        }
      ],
      "stateMutability": "view",
      "type": "function"
    },
    {
      "inputs": [
        {
          "internalType": "uint256",
          "name": "",
          "type": "uint256"
        }
      ],
      "name": "eventWithdrawn",
      "outputs": [
        {
          "internalType": "bool",
          "name": "",
          "type": "bool"
        }
      ],
      "stateMutability": "view",
      "type": "function"
    },
    {
      "inputs": [
        {
          "internalType": "uint256",
          "name": "",
          "type": "uint256"
        }
      ],
      "name": "events",
      "outputs": [
        {
          "internalType": "uint256",
          "name": "eventId",
          "type": "uint256"
        },
        {
          "internalType": "address",
          "name": "issuer",
          "type": "address"
        },
        {
          "internalType": "string",
          "name": "name",
          "type": "string"
        },
        {
          "internalType": "uint256",
          "name": "eventDate",
          "type": "uint256"
        },
        {
          "internalType": "uint256",
          "name": "tierCount",
          "type": "uint256"
        },
        {
          "internalType": "uint256",
          "name": "totalTickets",
          "type": "uint256"
        },
        {
          "internalType": "uint256",
          "name": "soldTickets",
          "type": "uint256"
        },
        {
          "internalType": "bool",
          "name": "isActive",
          "type": "bool"
        },
        {
          "internalType": "uint256",
          "name": "createdAt",
          "type": "uint256"
        }
      ],
      "stateMutability": "view",
      "type": "function"
    },
    {
      "inputs": [],
      "name": "getAllEvents",
      "outputs": [
        {
          "components": [
            {
              "internalType": "uint256",
              "name": "eventId",
              "type": "uint256"
            },
            {
              "internalType": "address",
              "name": "issuer",
              "type": "address"
            },
            {
              "internalType": "string",
              "name": "name",
              "type": "string"
            },
            {
              "internalType": "uint256",
              "name": "eventDate",
              "type": "uint256"
            },
            {
              "internalType": "uint256",
              "name": "tierCount",
              "type": "uint256"
            },
            {
              "internalType": "uint256",
              "name": "totalTickets",
              "type": "uint256"
            },
            {
              "internalType": "uint256",
              "name": "soldTickets",
              "type": "uint256"
            },
            {
              "internalType": "bool",
              "name": "isActive",
              "type": "bool"
            },
            {
              "internalType": "uint256",
              "name": "createdAt",
              "type": "uint256"
            }
          ],
          "internalType": "struct Event[]",
          "name": "",
          "type": "tuple[]"
        }
      ],
      "stateMutability": "view",
      "type": "function"
    },
    {
      "inputs": [
        {
          "internalType": "uint256",
          "name": "tokenId",
          "type": "uint256"
        }
      ],
      "name": "getApproved",
      "outputs": [
        {
          "internalType": "address",
          "name": "",
          "type": "address"
        }
      ],
      "stateMutability": "view",
      "type": "function"
    },
    {
      "inputs": [
        {
          "internalType": "uint256",
          "name": "_eventId",
          "type": "uint256"
        }
      ],
      "name": "getEventAllSeatsWithStatus",
      "outputs": [
        {
          "internalType": "string[]",
          "name": "seatIds",
          "type": "string[]"
        },
        {
          "internalType": "uint256[]",
          "name": "tokenIds",
          "type": "uint256[]"
        },
        {
          "internalType": "address[]",
          "name": "owners",
          "type": "address[]"
        },
        {
          "internalType": "bool[]",
          "name": "availabilities",
          "type": "bool[]"
        },
        {
          "internalType": "uint256[]",
          "name": "prices",
          "type": "uint256[]"
        },
        {
          "internalType": "uint256[]",
          "name": "tierIds",
          "type": "uint256[]"
        }
      ],
      "stateMutability": "view",
      "type": "function"
    },
    {
      "inputs": [],
      "name": "getEventCount",
      "outputs": [
        {
          "internalType": "uint256",
          "name": "",
          "type": "uint256"
        }
      ],
      "stateMutability": "view",
      "type": "function"
    },
    {
      "inputs": [
        {
          "internalType": "uint256",
          "name": "_eventId",
          "type": "uint256"
        }
      ],
      "name": "getEventTiers",
      "outputs": [
        {
          "components": [
            {
              "internalType": "uint256",
              "name": "tierId",
              "type": "uint256"
            },
            {
              "internalType": "uint256",
              "name": "eventId",
              "type": "uint256"
            },
            {
              "internalType": "string",
              "name": "name",
              "type": "string"
            },
            {
              "internalType": "uint256",
              "name": "price",
              "type": "uint256"
            },
            {
              "internalType": "uint256",
              "name": "totalCount",
              "type": "uint256"
            },
            {
              "internalType": "uint256",
              "name": "soldCount",
              "type": "uint256"
            },
            {
              "internalType": "uint256",
              "name": "startTokenId",
              "type": "uint256"
            },
            {
              "internalType": "uint256",
              "name": "createdAt",
              "type": "uint256"
            }
          ],
          "internalType": "struct Tier[]",
          "name": "",
          "type": "tuple[]"
        }
      ],
      "stateMutability": "view",
      "type": "function"
    },
    {
      "inputs": [
        {
          "internalType": "address",
          "name": "_issuer",
          "type": "address"
        }
      ],
      "name": "getEventsByIssuer",
      "outputs": [
        {
          "components": [
            {
              "internalType": "uint256",
              "name": "eventId",
              "type": "uint256"
            },
            {
              "internalType": "address",
              "name": "issuer",
              "type": "address"
            },
            {
              "internalType": "string",
              "name": "name",
              "type": "string"
            },
            {
              "internalType": "uint256",
              "name": "eventDate",
              "type": "uint256"
            },
            {
              "internalType": "uint256",
              "name": "tierCount",
              "type": "uint256"
            },
            {
              "internalType": "uint256",
              "name": "totalTickets",
              "type": "uint256"
            },
            {
              "internalType": "uint256",
              "name": "soldTickets",
              "type": "uint256"
            },
            {
              "internalType": "bool",
              "name": "isActive",
              "type": "bool"
            },
            {
              "internalType": "uint256",
              "name": "createdAt",
              "type": "uint256"
            }
          ],
          "internalType": "struct Event[]",
          "name": "",
          "type": "tuple[]"
        }
      ],
      "stateMutability": "view",
      "type": "function"
    },
    {
      "inputs": [
        {
          "internalType": "uint256",
          "name": "_eventId",
          "type": "uint256"
        },
        {
          "internalType": "string",
          "name": "_seatId",
          "type": "string"
        }
      ],
      "name": "getSeatInfo",
      "outputs": [
        {
          "components": [
            {
              "internalType": "string",
              "name": "seatId",
              "type": "string"
            },
            {
              "internalType": "uint256",
              "name": "tokenId",
              "type": "uint256"
            },
            {
              "internalType": "uint256",
              "name": "eventId",
              "type": "uint256"
            },
            {
              "internalType": "uint256",
              "name": "tierId",
              "type": "uint256"
            },
            {
              "internalType": "address",
              "name": "owner",
              "type": "address"
            },
            {
              "internalType": "bool",
              "name": "isAvailable",
              "type": "bool"
            },
            {
              "internalType": "uint256",
              "name": "price",
              "type": "uint256"
            }
          ],
          "internalType": "struct SeatInfo",
          "name": "",
          "type": "tuple"
        }
      ],
      "stateMutability": "view",
      "type": "function"
    },
    {
      "inputs": [
        {
          "internalType": "address",
          "name": "_user",
          "type": "address"
        },
        {
          "internalType": "uint256",
          "name": "_eventId",
          "type": "uint256"
        }
      ],
      "name": "getUserTickets",
      "outputs": [
        {
          "internalType": "string[]",
          "name": "",
          "type": "string[]"
        }
      ],
      "stateMutability": "view",
      "type": "function"
    },
    {
      "inputs": [
        {
          "internalType": "uint256",
          "name": "_eventId",
          "type": "uint256"
        }
      ],
      "name": "getWithdrawableRevenue",
      "outputs": [
        {
          "internalType": "uint256",
          "name": "",
          "type": "uint256"
        }
      ],
      "stateMutability": "view",
      "type": "function"
    },
    {
      "inputs": [
        {
          "internalType": "address",
          "name": "owner",
          "type": "address"
        },
        {
          "internalType": "address",
          "name": "operator",
          "type": "address"
        }
      ],
      "name": "isApprovedForAll",
      "outputs": [
        {
          "internalType": "bool",
          "name": "",
          "type": "bool"
        }
      ],
      "stateMutability": "view",
      "type": "function"
    },
    {
      "inputs": [
        {
          "internalType": "uint256",
          "name": "_eventId",
          "type": "uint256"
        },
        {
          "internalType": "string",
          "name": "_seatId",
          "type": "string"
        }
      ],
      "name": "isSeatAvailable",
      "outputs": [
        {
          "internalType": "bool",
          "name": "",
          "type": "bool"
        }
      ],
      "stateMutability": "view",
      "type": "function"
    },
    {
      "inputs": [
        {
          "internalType": "address",
          "name": "",
          "type": "address"
        },
        {
          "internalType": "uint256",
          "name": "",
          "type": "uint256"
        }
      ],
      "name": "issuerEventIds",
      "outputs": [
        {
          "internalType": "uint256",
          "name": "",
          "type": "uint256"
        }
      ],
      "stateMutability": "view",
      "type": "function"
    },
    {
      "inputs": [],
      "name": "name",
      "outputs": [
        {
          "internalType": "string",
          "name": "",
          "type": "string"
        }
      ],
      "stateMutability": "view",
      "type": "function"
    },
    {
      "inputs": [],
      "name": "owner",
      "outputs": [
        {
          "internalType": "address",
          "name": "",
          "type": "address"
        }
      ],
      "stateMutability": "view",
      "type": "function"
    },
    {
      "inputs": [
        {
          "internalType": "uint256",
          "name": "tokenId",
          "type": "uint256"
        }
      ],
      "name": "ownerOf",
      "outputs": [
        {
          "internalType": "address",
          "name": "",
          "type": "address"
        }
      ],
      "stateMutability": "view",
      "type": "function"
    },
    {
      "inputs": [],
      "name": "platformFeeBalance",
      "outputs": [
        {
          "internalType": "uint256",
          "name": "",
          "type": "uint256"
        }
      ],
      "stateMutability": "view",
      "type": "function"
    },
    {
      "inputs": [],
      "name": "platformFeePercent",
      "outputs": [
        {
          "internalType": "uint256",
          "name": "",
          "type": "uint256"
        }
      ],
      "stateMutability": "view",
      "type": "function"
    },
    {
      "inputs": [],
      "name": "renounceOwnership",
      "outputs": [],
      "stateMutability": "nonpayable",
      "type": "function"
    },
    {
      "inputs": [
        {
          "internalType": "address",
          "name": "from",
          "type": "address"
        },
        {
          "internalType": "address",
          "name": "to",
          "type": "address"
        },
        {
          "internalType": "uint256",
          "name": "tokenId",
          "type": "uint256"
        }
      ],
      "name": "safeTransferFrom",
      "outputs": [],
      "stateMutability": "nonpayable",
      "type": "function"
    },
    {
      "inputs": [
        {
          "internalType": "address",
          "name": "from",
          "type": "address"
        },
        {
          "internalType": "address",
          "name": "to",
          "type": "address"
        },
        {
          "internalType": "uint256",
          "name": "tokenId",
          "type": "uint256"
        },
        {
          "internalType": "bytes",
          "name": "data",
          "type": "bytes"
        }
      ],
      "name": "safeTransferFrom",
      "outputs": [],
      "stateMutability": "nonpayable",
      "type": "function"
    },
    {
      "inputs": [
        {
          "internalType": "address",
          "name": "operator",
          "type": "address"
        },
        {
          "internalType": "bool",
          "name": "approved",
          "type": "bool"
        }
      ],
      "name": "setApprovalForAll",
      "outputs": [],
      "stateMutability": "nonpayable",
      "type": "function"
    },
    {
      "inputs": [
        {
          "internalType": "bytes4",
          "name": "interfaceId",
          "type": "bytes4"
        }
      ],
      "name": "supportsInterface",
      "outputs": [
        {
          "internalType": "bool",
          "name": "",
          "type": "bool"
        }
      ],
      "stateMutability": "view",
      "type": "function"
    },
    {
      "inputs": [],
      "name": "symbol",
      "outputs": [
        {
          "internalType": "string",
          "name": "",
          "type": "string"
        }
      ],
      "stateMutability": "view",
      "type": "function"
    },
    {
      "inputs": [
        {
          "internalType": "uint256",
          "name": "",
          "type": "uint256"
        }
      ],
      "name": "tiers",
      "outputs": [
        {
          "internalType": "uint256",
          "name": "tierId",
          "type": "uint256"
        },
        {
          "internalType": "uint256",
          "name": "eventId",
          "type": "uint256"
        },
        {
          "internalType": "string",
          "name": "name",
          "type": "string"
        },
        {
          "internalType": "uint256",
          "name": "price",
          "type": "uint256"
        },
        {
          "internalType": "uint256",
          "name": "totalCount",
          "type": "uint256"
        },
        {
          "internalType": "uint256",
          "name": "soldCount",
          "type": "uint256"
        },
        {
          "internalType": "uint256",
          "name": "startTokenId",
          "type": "uint256"
        },
        {
          "internalType": "uint256",
          "name": "createdAt",
          "type": "uint256"
        }
      ],
      "stateMutability": "view",
      "type": "function"
    },
    {
      "inputs": [
        {
          "internalType": "uint256",
          "name": "",
          "type": "uint256"
        }
      ],
      "name": "tokenIdToEventId",
      "outputs": [
        {
          "internalType": "uint256",
          "name": "",
          "type": "uint256"
        }
      ],
      "stateMutability": "view",
      "type": "function"
    },
    {
      "inputs": [
        {
          "internalType": "uint256",
          "name": "",
          "type": "uint256"
        }
      ],
      "name": "tokenIdToSeatId",
      "outputs": [
        {
          "internalType": "string",
          "name": "",
          "type": "string"
        }
      ],
      "stateMutability": "view",
      "type": "function"
    },
    {
      "inputs": [
        {
          "internalType": "uint256",
          "name": "",
          "type": "uint256"
        }
      ],
      "name": "tokenIdToTierId",
      "outputs": [
        {
          "internalType": "uint256",
          "name": "",
          "type": "uint256"
        }
      ],
      "stateMutability": "view",
      "type": "function"
    },
    {
      "inputs": [
        {
          "internalType": "uint256",
          "name": "tokenId",
          "type": "uint256"
        }
      ],
      "name": "tokenURI",
      "outputs": [
        {
          "internalType": "string",
          "name": "",
          "type": "string"
        }
      ],
      "stateMutability": "view",
      "type": "function"
    },
    {
      "inputs": [
        {
          "internalType": "address",
          "name": "from",
          "type": "address"
        },
        {
          "internalType": "address",
          "name": "to",
          "type": "address"
        },
        {
          "internalType": "uint256",
          "name": "tokenId",
          "type": "uint256"
        }
      ],
      "name": "transferFrom",
      "outputs": [],
      "stateMutability": "nonpayable",
      "type": "function"
    },
    {
      "inputs": [
        {
          "internalType": "address",
          "name": "newOwner",
          "type": "address"
        }
      ],
      "name": "transferOwnership",
      "outputs": [],
      "stateMutability": "nonpayable",
      "type": "function"
    },
    {
      "inputs": [
        {
          "internalType": "uint256",
          "name": "_eventId",
          "type": "uint256"
        }
      ],
      "name": "withdrawEventRevenue",
      "outputs": [],
      "stateMutability": "nonpayable",
      "type": "function"
    },
    {
      "inputs": [],
      "name": "withdrawPlatformFee",
      "outputs": [],
      "stateMutability": "nonpayable",
      "type": "function"
    },
    {
      "stateMutability": "payable",
      "type": "receive"
    }
  ],
  "transactionHash": "0x522be30388cd900c21ec4e3aa696c2af81e475ce21ee04d9948d7f8a8393c31f",
  "args": [],
  "numDeployments": 1,
  "solcInputHash": "a66d4e63d5bdb6b6f3608c1a49ef32f5",
  "bytecode": "0x608060405260016007556001600855600160095560026017553480156200002557600080fd5b50336040518060400160405280600b81526020016a135bdb9859151a58dad95d60aa1b81525060405180604001604052806004815260200163135512d560e21b81525081600090816200007991906200028e565b5060016200008882826200028e565b5050506001600160a01b038116620000ba57604051631e4fbdf760e01b81526000600482015260240160405180910390fd5b620000c5816200010c565b5060408051808201909152601c81527f4d6f6e61645469636b657453616c65206465706c6f7965642062793a0000000060208201526200010690336200015e565b620003bc565b600680546001600160a01b038381166001600160a01b0319831681179093556040519116919082907f8be0079c531659141344cd1fd0a4f28419497f9722a3daafe3b4186f6b6457e090600090a35050565b620001ab8282604051602401620001779291906200035a565b60408051601f198184030181529190526020810180516001600160e01b0390811663319af33360e01b17909152620001af16565b5050565b620001c581620001c860201b62002af31760201c565b50565b60006a636f6e736f6c652e6c6f679050600080835160208501845afa505050565b634e487b7160e01b600052604160045260246000fd5b600181811c908216806200021457607f821691505b6020821081036200023557634e487b7160e01b600052602260045260246000fd5b50919050565b601f8211156200028957600081815260208120601f850160051c81016020861015620002645750805b601f850160051c820191505b81811015620002855782815560010162000270565b5050505b505050565b81516001600160401b03811115620002aa57620002aa620001e9565b620002c281620002bb8454620001ff565b846200023b565b602080601f831160018114620002fa5760008415620002e15750858301515b600019600386901b1c1916600185901b17855562000285565b600085815260208120601f198616915b828110156200032b578886015182559484019460019091019084016200030a565b50858210156200034a5787850151600019600388901b60f8161c191681555b5050505050600190811b01905550565b604081526000835180604084015260005b818110156200038a57602081870181015160608684010152016200036b565b50600060608285018101919091526001600160a01b03949094166020840152601f01601f191690910190910192915050565b61416b80620003cc6000396000f3fe6080604052600436106102605760003560e01c80637132221311610144578063b669296b116100b6578063d9e48f5c1161007a578063d9e48f5c146107c5578063e3c98ba0146107da578063e985e9c5146107f0578063f2918b8d14610810578063f2fde38b14610830578063fe675e8c1461085057600080fd5b8063b669296b14610707578063b6d9e86814610750578063b88d4fde14610770578063c27a500d14610790578063c87b56dd146107a557600080fd5b80638da5cb5b116101085780638da5cb5b14610661578063957a632e1461067f57806395d89b411461069f5780639afb93cb146106b4578063a22cb465146106c7578063ab636d49146106e757600080fd5b806371322213146105af578063715018a6146105dc5780637d51d214146105f1578063814058be1461061e5780638c639a851461064b57600080fd5b80633321ffb1116101dd578063550a528c116101a1578063550a528c146104d5578063565bee0b146104f55780636352211e146105225780636f2e3901146105425780636fa605e31461056257806370a082311461058f57600080fd5b80633321ffb1146103fb5780633af8586b1461042d57806342842e0e1461046857806346fe9fd214610488578063514d7ed4146104b557600080fd5b80630b791430116102245780630b79143014610351578063202cefd51461038657806323b872dd1461039b5780632babb77f146103bb57806331a215f6146103db57600080fd5b806301ffc9a71461026c578063039af9eb146102a157806306fdde03146102d5578063081812fc146102f7578063095ea7b31461032f57600080fd5b3661026757005b600080fd5b34801561027857600080fd5b5061028c6102873660046133cd565b610880565b60405190151581526020015b60405180910390f35b3480156102ad57600080fd5b506102c16102bc3660046133ea565b6108d2565b604051610298989796959493929190613453565b3480156102e157600080fd5b506102ea61099b565b604051610298919061349f565b34801561030357600080fd5b506103176103123660046133ea565b610a2d565b6040516001600160a01b039091168152602001610298565b34801561033b57600080fd5b5061034f61034a3660046134ce565b610a56565b005b34801561035d57600080fd5b5061037161036c3660046133ea565b610a65565b604051610298999897969594939291906134f8565b34801561039257600080fd5b5061034f610b44565b3480156103a757600080fd5b5061034f6103b636600461355a565b610cab565b3480156103c757600080fd5b506102ea6103d63660046133ea565b610d36565b3480156103e757600080fd5b5061028c6103f6366004613653565b610dd0565b34801561040757600080fd5b5061041b6104163660046133ea565b610e2f565b60405161029896959493929190613758565b34801561043957600080fd5b5061045a6104483660046133ea565b600f6020526000908152604090205481565b604051908152602001610298565b34801561047457600080fd5b5061034f61048336600461355a565b61122b565b34801561049457600080fd5b506104a86104a3366004613653565b61124b565b6040516102989190613807565b3480156104c157600080fd5b5061045a6104d0366004613876565b611379565b3480156104e157600080fd5b5061045a6104f0366004613876565b6113aa565b34801561050157600080fd5b50610515610510366004613898565b6113c6565b60405161029891906138b3565b34801561052e57600080fd5b5061031761053d3660046133ea565b61160e565b34801561054e57600080fd5b5061045a61055d3660046133ea565b611619565b34801561056e57600080fd5b5061045a61057d3660046133ea565b60146020526000908152604090205481565b34801561059b57600080fd5b5061045a6105aa366004613898565b61166b565b3480156105bb57600080fd5b5061045a6105ca3660046133ea565b600e6020526000908152604090205481565b3480156105e857600080fd5b5061034f6116b3565b3480156105fd57600080fd5b5061061161060c3660046133ea565b6116c7565b604051610298919061397f565b34801561062a57600080fd5b5061063e6106393660046134ce565b611906565b6040516102989190613a25565b34801561065757600080fd5b5061045a60175481565b34801561066d57600080fd5b506006546001600160a01b0316610317565b34801561068b57600080fd5b5061034f61069a3660046133ea565b611b53565b3480156106ab57600080fd5b506102ea611bca565b61034f6106c2366004613653565b611bd9565b3480156106d357600080fd5b5061034f6106e2366004613a38565b611f03565b3480156106f357600080fd5b5061045a6107023660046134ce565b611f0e565b34801561071357600080fd5b5061045a610722366004613653565b600d602090815260009283526040909220815180830184018051928152908401929093019190912091525481565b34801561075c57600080fd5b5061034f61076b3660046133ea565b611f2a565b34801561077c57600080fd5b5061034f61078b366004613a74565b6121ff565b34801561079c57600080fd5b50610515612216565b3480156107b157600080fd5b506102ea6107c03660046133ea565b6123e6565b3480156107d157600080fd5b5060135461045a565b3480156107e657600080fd5b5061045a60165481565b3480156107fc57600080fd5b5061028c61080b366004613aef565b61245b565b34801561081c57600080fd5b5061045a61082b366004613cae565b612489565b34801561083c57600080fd5b5061034f61084b366004613898565b612ab5565b34801561085c57600080fd5b5061028c61086b3660046133ea565b60156020526000908152604090205460ff1681565b60006001600160e01b031982166380ac58cd60e01b14806108b157506001600160e01b03198216635b5e139f60e01b145b806108cc57506301ffc9a760e01b6001600160e01b03198316145b92915050565b600b60205260009081526040902080546001820154600283018054929391926108fa90613d87565b80601f016020809104026020016040519081016040528092919081815260200182805461092690613d87565b80156109735780601f1061094857610100808354040283529160200191610973565b820191906000526020600020905b81548152906001019060200180831161095657829003601f168201915b5050505050908060030154908060040154908060050154908060060154908060070154905088565b6060600080546109aa90613d87565b80601f01602080910402602001604051908101604052809291908181526020018280546109d690613d87565b8015610a235780601f106109f857610100808354040283529160200191610a23565b820191906000526020600020905b815481529060010190602001808311610a0657829003601f168201915b5050505050905090565b6000610a3882612b14565b506000828152600460205260409020546001600160a01b03166108cc565b610a61828233612b4c565b5050565b600a6020526000908152604090208054600182015460028301805492936001600160a01b0390921692610a9790613d87565b80601f0160208091040260200160405190810160405280929190818152602001828054610ac390613d87565b8015610b105780601f10610ae557610100808354040283529160200191610b10565b820191906000526020600020905b815481529060010190602001808311610af357829003601f168201915b50505060038401546004850154600586015460068701546007880154600890980154969793969295509093509160ff169089565b610b4c612b59565b600060165411610ba35760405162461bcd60e51b815260206004820152601c60248201527f4e6f20706c6174666f726d206665657320746f2077697468647261770000000060448201526064015b60405180910390fd5b60168054600091829055604051909190339083908381818185875af1925050503d8060008114610bef576040519150601f19603f3d011682016040523d82523d6000602084013e610bf4565b606091505b5050905080610c375760405162461bcd60e51b815260206004820152600f60248201526e151c985b9cd9995c8819985a5b1959608a1b6044820152606401610b9a565b60405182815233907fd116803f8b8538a601b6096e8d1196e3ce3ef43dec6dbbe4cd4e5c69dd171d8b9060200160405180910390a2610a616040518060400160405280601781526020017f506c6174666f726d206665652077697468647261776e3a00000000000000000081525083612b86565b6001600160a01b038216610cd557604051633250574960e11b815260006004820152602401610b9a565b6000610ce2838333612bcb565b9050836001600160a01b0316816001600160a01b031614610d30576040516364283d7b60e01b81526001600160a01b0380861660048301526024820184905282166044820152606401610b9a565b50505050565b600c6020526000908152604090208054610d4f90613d87565b80601f0160208091040260200160405190810160405280929190818152602001828054610d7b90613d87565b8015610dc85780601f10610d9d57610100808354040283529160200191610dc8565b820191906000526020600020905b815481529060010190602001808311610dab57829003601f168201915b505050505081565b6000828152600d60205260408082209051829190610def908590613dbb565b908152602001604051809103902054905080600003610e125760009150506108cc565b6000610e1d82612cbf565b6001600160a01b031614949350505050565b606080606080606080600060106000898152602001908152602001600020805480602002602001604051908101604052809291908181526020018280548015610e9757602002820191906000526020600020905b815481526020019060010190808311610e83575b5050835193945083925050506001600160401b03811115610eba57610eba613596565b604051908082528060200260200182016040528015610eed57816020015b6060815260200190600190039081610ed85790505b509750806001600160401b03811115610f0857610f08613596565b604051908082528060200260200182016040528015610f31578160200160208202803683370190505b509650806001600160401b03811115610f4c57610f4c613596565b604051908082528060200260200182016040528015610f75578160200160208202803683370190505b509550806001600160401b03811115610f9057610f90613596565b604051908082528060200260200182016040528015610fb9578160200160208202803683370190505b509450806001600160401b03811115610fd457610fd4613596565b604051908082528060200260200182016040528015610ffd578160200160208202803683370190505b509350806001600160401b0381111561101857611018613596565b604051908082528060200260200182016040528015611041578160200160208202803683370190505b50925060005b8181101561121f57600083828151811061106357611063613dd7565b602002602001015190506000600f6000838152602001908152602001600020549050600061109083612cbf565b6000848152600c602052604090208054919250906110ad90613d87565b80601f01602080910402602001604051908101604052809291908181526020018280546110d990613d87565b80156111265780601f106110fb57610100808354040283529160200191611126565b820191906000526020600020905b81548152906001019060200180831161110957829003601f168201915b50505050508c858151811061113d5761113d613dd7565b6020026020010181905250828b858151811061115b5761115b613dd7565b602002602001018181525050808a858151811061117a5761117a613dd7565b6001600160a01b039283166020918202929092010152895190821615908a90869081106111a9576111a9613dd7565b9115156020928302919091018201526000838152600b909152604090206003015488518990869081106111de576111de613dd7565b602002602001018181525050818785815181106111fd576111fd613dd7565b602002602001018181525050505050808061121790613e03565b915050611047565b50505091939550919395565b611246838383604051806020016040528060008152506121ff565b505050565b6112966040518060e001604052806060815260200160008152602001600081526020016000815260200160006001600160a01b03168152602001600015158152602001600081525090565b6000838152600d602052604080822090516112b2908590613dbb565b9081526020016040518091039020549050806000036113095760405162461bcd60e51b815260206004820152601360248201527214d9585d08191bd95cc81b9bdd08195e1a5cdd606a1b6044820152606401610b9a565b6000818152600f60205260408120549061132283612cbf565b6040805160e08101825296875260208088019590955286810197909752606086018390526001600160a01b0316608086018190521560a0860152506000908152600b909152929092206003015460c0820152919050565b6011602052816000526040600020818154811061139557600080fd5b90600052602060002001600091509150505481565b6010602052816000526040600020818154811061139557600080fd5b6001600160a01b038116600090815260126020908152604080832080548251818502810185019093528083526060949383018282801561142557602002820191906000526020600020905b815481526020019060010190808311611411575b50505050509050600081516001600160401b0381111561144757611447613596565b60405190808252806020026020018201604052801561148057816020015b61146d613360565b8152602001906001900390816114655790505b50905060005b825181101561160657600a60008483815181106114a5576114a5613dd7565b6020026020010151815260200190815260200160002060405180610120016040529081600082015481526020016001820160009054906101000a90046001600160a01b03166001600160a01b03166001600160a01b0316815260200160028201805461151090613d87565b80601f016020809104026020016040519081016040528092919081815260200182805461153c90613d87565b80156115895780601f1061155e57610100808354040283529160200191611589565b820191906000526020600020905b81548152906001019060200180831161156c57829003601f168201915b505050918352505060038201546020820152600482015460408201526005820154606082015260068201546080820152600782015460ff16151560a082015260089091015460c09091015282518390839081106115e8576115e8613dd7565b602002602001018190525080806115fe90613e03565b915050611486565b509392505050565b60006108cc82612b14565b60008181526015602052604081205460ff161561163857506000919050565b6000828152600a6020526040902060030154421161165857506000919050565b5060009081526014602052604090205490565b60006001600160a01b038216611697576040516322718ad960e21b815260006004820152602401610b9a565b506001600160a01b031660009081526003602052604090205490565b6116bb612b59565b6116c56000612cda565b565b600081815260116020908152604080832080548251818502810185019093528083526060949383018282801561171c57602002820191906000526020600020905b815481526020019060010190808311611708575b50505050509050600081516001600160401b0381111561173e5761173e613596565b6040519080825280602002602001820160405280156117b757816020015b6117a460405180610100016040528060008152602001600081526020016060815260200160008152602001600081526020016000815260200160008152602001600081525090565b81526020019060019003908161175c5790505b50905060005b825181101561160657600b60008483815181106117dc576117dc613dd7565b6020026020010151815260200190815260200160002060405180610100016040529081600082015481526020016001820154815260200160028201805461182290613d87565b80601f016020809104026020016040519081016040528092919081815260200182805461184e90613d87565b801561189b5780601f106118705761010080835404028352916020019161189b565b820191906000526020600020905b81548152906001019060200180831161187e57829003601f168201915b50505050508152602001600382015481526020016004820154815260200160058201548152602001600682015481526020016007820154815250508282815181106118e8576118e8613dd7565b602002602001018190525080806118fe90613e03565b9150506117bd565b600081815260106020908152604080832080548251818502810185019093528083526060949383018282801561195b57602002820191906000526020600020905b815481526020019060010190808311611947575b505050505090506000805b82518110156119c957856001600160a01b031661199b84838151811061198e5761198e613dd7565b6020026020010151612cbf565b6001600160a01b0316036119b757816119b381613e03565b9250505b806119c181613e03565b915050611966565b506000816001600160401b038111156119e4576119e4613596565b604051908082528060200260200182016040528015611a1757816020015b6060815260200190600190039081611a025790505b5090506000805b8451811015611b4757876001600160a01b0316611a4686838151811061198e5761198e613dd7565b6001600160a01b031603611b3557600c6000868381518110611a6a57611a6a613dd7565b602002602001015181526020019081526020016000208054611a8b90613d87565b80601f0160208091040260200160405190810160405280929190818152602001828054611ab790613d87565b8015611b045780601f10611ad957610100808354040283529160200191611b04565b820191906000526020600020905b815481529060010190602001808311611ae757829003601f168201915b5050505050838381518110611b1b57611b1b613dd7565b60200260200101819052508180611b3190613e03565b9250505b80611b3f81613e03565b915050611a1e565b50909695505050505050565b6000818152600a60205260409020600101546001600160a01b03163314611baf5760405162461bcd60e51b815260206004820152601060248201526f2737ba1032bb32b73a1034b9b9bab2b960811b6044820152606401610b9a565b6000908152600a60205260409020600701805460ff19169055565b6060600180546109aa90613d87565b6000828152600a602052604090206007015460ff16611c2d5760405162461bcd60e51b815260206004820152601060248201526f4576656e74206e6f742061637469766560801b6044820152606401610b9a565b6000828152600a60205260409020600301544210611c805760405162461bcd60e51b815260206004820152601060248201526f115d995b9d081a185cc81c185cdcd95960821b6044820152606401610b9a565b6000828152600d60205260408082209051611c9c908490613dbb565b908152602001604051809103902054905080600003611cf35760405162461bcd60e51b815260206004820152601360248201527214d9585d08191bd95cc81b9bdd08195e1a5cdd606a1b6044820152606401610b9a565b6000611cfe82612cbf565b6001600160a01b031614611d485760405162461bcd60e51b815260206004820152601160248201527014d9585d08185b1c9958591e481cdbdb19607a1b6044820152606401610b9a565b6000818152600f6020908152604080832054808452600b90925290912060038101543414611db85760405162461bcd60e51b815260206004820152601860248201527f496e636f7272656374207061796d656e7420616d6f756e7400000000000000006044820152606401610b9a565b611dc23384612d2c565b600581018054906000611dd483613e03565b90915550506000858152600a60205260408120600601805491611df683613e03565b91905055506000606460175434611e0d9190613e1c565b611e179190613e33565b90506000611e258234613e55565b905080601460008981526020019081526020016000206000828254611e4a9190613e68565b925050819055508160166000828254611e639190613e68565b909155505060038301546040513391899188917f899587eb3754bd529707b2a0ac09bad5a3bea685eb9747031430aaece406681391611ea3918c91613e7b565b60405180910390a4611efa604051806040016040528060118152602001702a34b1b5b2ba10383ab931b430b9b2b21d60791b8152508760405180604001604052806002815260200161627960f01b81525033612d46565b50505050505050565b610a61338383612d8f565b6012602052816000526040600020818154811061139557600080fd5b6000818152600a6020526040902060018101546001600160a01b03163314611f875760405162461bcd60e51b815260206004820152601060248201526f2737ba1032bb32b73a1034b9b9bab2b960811b6044820152606401610b9a565b80600301544211611fd05760405162461bcd60e51b8152602060048201526013602482015272115d995b9d081b9bdd08195b991959081e595d606a1b6044820152606401610b9a565b60008281526015602052604090205460ff161561202f5760405162461bcd60e51b815260206004820152601960248201527f526576656e756520616c72656164792077697468647261776e000000000000006044820152606401610b9a565b6000828152601460205260409020546120835760405162461bcd60e51b81526020600482015260166024820152754e6f20726576656e756520746f20776974686472617760501b6044820152606401610b9a565b6000828152601460209081526040808320546015909252808320805460ff1916600117905551909190339083908381818185875af1925050503d80600081146120e8576040519150601f19603f3d011682016040523d82523d6000602084013e6120ed565b606091505b50509050806121305760405162461bcd60e51b815260206004820152600f60248201526e151c985b9cd9995c8819985a5b1959608a1b6044820152606401610b9a565b600060175460646121419190613e55565b60175461214e9085613e1c565b6121589190613e33565b6040805185815260208101839052919250339187917f68b639709b4ca02aaf059658ae1245f7353bc96a084d8b080b39fecb2f01cad0910160405180910390a36121f86040518060400160405280601c81526020017f526576656e75652077697468647261776e20666f72206576656e743a00000000815250866040518060400160405280600781526020016620b6b7bab73a1d60c91b81525086612e2e565b5050505050565b61220a848484610cab565b610d3084848484612e77565b6013546060906000906001600160401b0381111561223657612236613596565b60405190808252806020026020018201604052801561226f57816020015b61225c613360565b8152602001906001900390816122545790505b50905060005b6013548110156123e057600a60006013838154811061229657612296613dd7565b6000918252602080832090910154835282810193909352604091820190208151610120810183528154815260018201546001600160a01b03169381019390935260028101805491928401916122ea90613d87565b80601f016020809104026020016040519081016040528092919081815260200182805461231690613d87565b80156123635780601f1061233857610100808354040283529160200191612363565b820191906000526020600020905b81548152906001019060200180831161234657829003601f168201915b505050918352505060038201546020820152600482015460408201526005820154606082015260068201546080820152600782015460ff16151560a082015260089091015460c09091015282518390839081106123c2576123c2613dd7565b602002602001018190525080806123d890613e03565b915050612275565b50919050565b60606123f182612b14565b50600061240960408051602081019091526000815290565b905060008151116124295760405180602001604052806000815250612454565b8061243384612f99565b604051602001612444929190613e9d565b6040516020818303038152906040525b9392505050565b6001600160a01b03918216600090815260056020908152604080832093909416825291909152205460ff1690565b600083518551146124ac5760405162461bcd60e51b8152600401610b9a90613ecc565b82518551146124cd5760405162461bcd60e51b8152600401610b9a90613ecc565b81518551146124ee5760405162461bcd60e51b8152600401610b9a90613ecc565b42861161253d5760405162461bcd60e51b815260206004820181905260248201527f4576656e742064617465206d75737420626520696e20746865206675747572656044820152606401610b9a565b600880546000918261254e83613e03565b9091555060408051610120810182528281523360208083019182528284018d8152606084018d90528b516080850152600060a0850181905260c08501819052600160e0860181905242610100870152878252600a90935294852084518155925191830180546001600160a01b0319166001600160a01b039093169290921790915551939450919290919060028201906125e79082613f51565b50606082015160038201556080820151600482015560a0820151600582015560c0820151600682015560e082015160078201805460ff19169115159190911790556101009091015160089091015560005b87518110156129ad5785818151811061265357612653613dd7565b602002602001015185828151811061266d5761266d613dd7565b602002602001015151146126b95760405162461bcd60e51b81526020600482015260136024820152720a6cac2e840c6deeadce840dad2e6dac2e8c6d606b1b6044820152606401610b9a565b60098054600091826126ca83613e03565b919050559050600060075490506040518061010001604052808381526020018681526020018b858151811061270157612701613dd7565b602002602001015181526020018a858151811061272057612720613dd7565b6020026020010151815260200189858151811061273f5761273f613dd7565b602002602001015181526020016000815260200182815260200142815250600b6000848152602001908152602001600020600082015181600001556020820151816001015560408201518160020190816127999190613f51565b50606082015160038201556080820151600482015560a0820151600582015560c0820151600682015560e090910151600790910155600085815260116020908152604082208054600181018255908352908220018390555b87848151811061280357612803613dd7565b60200260200101515181101561290f57600780546000918261282483613e03565b919050559050600089868151811061283e5761283e613dd7565b6020026020010151838151811061285757612857613dd7565b6020026020010151905080600c600084815260200190815260200160002090816128819190613f51565b5081600d60008a8152602001908152602001600020826040516128a49190613dbb565b9081526040805160209281900383019020929092556000848152600e82528281208b9055600f82528281208890558a8152601082529182208054600181018255908352912001829055866128f781613e03565b9750505050808061290790613e03565b9150506127f1565b5084827f10bc7139f79795b4a3dfe9413226081837469c54506ae5405b0666a35c7cac008c868151811061294557612945613dd7565b60200260200101518c878151811061295f5761295f613dd7565b60200260200101518c888151811061297957612979613dd7565b602002602001015160405161299093929190614010565b60405180910390a3505080806129a590613e03565b915050612638565b506000828152600a602090815260408083206005018490556013805460018181019092557f66de8ffda797e3de9c05e8fc57b3bf0ec28a930d40b0d285d93c06501cf6a09001869055338085526012845282852080549283018155855292909320909201849055905183907f3e1e16dc53562886fa9ab2acde567c1067c24a0c4daad0e47ab75c7b194a90ed90612a49908d908d908790614010565b60405180910390a3612aa96040518060400160405280600e81526020016d22bb32b73a1031b932b0ba32b21d60911b815250836040518060400160405280600e81526020016d2a37ba30b6103a34b1b5b2ba399d60911b81525084612e2e565b50979650505050505050565b612abd612b59565b6001600160a01b038116612ae757604051631e4fbdf760e01b815260006004820152602401610b9a565b612af081612cda565b50565b60006a636f6e736f6c652e6c6f679050600080835160208501845afa505050565b600080612b2083612cbf565b90506001600160a01b0381166108cc57604051637e27328960e01b815260048101849052602401610b9a565b611246838383600161302b565b6006546001600160a01b031633146116c55760405163118cdaa760e01b8152336004820152602401610b9a565b610a618282604051602401612b9c929190613e7b565b60408051601f198184030181529190526020810180516001600160e01b0316632d839cb360e21b179052613131565b600080612bd784612cbf565b90506001600160a01b03831615612bf357612bf381848661313a565b6001600160a01b03811615612c3157612c1060008560008061302b565b6001600160a01b038116600090815260036020526040902080546000190190555b6001600160a01b03851615612c60576001600160a01b0385166000908152600360205260409020805460010190555b60008481526002602052604080822080546001600160a01b0319166001600160a01b0389811691821790925591518793918516917fddf252ad1be2c89b69c2b068fc378daa952ba7f163c4a11628f55a4df523b3ef91a4949350505050565b6000908152600260205260409020546001600160a01b031690565b600680546001600160a01b038381166001600160a01b0319831681179093556040519116919082907f8be0079c531659141344cd1fd0a4f28419497f9722a3daafe3b4186f6b6457e090600090a35050565b610a6182826040518060200160405280600081525061319e565b610d3084848484604051602401612d609493929190614035565b60408051601f198184030181529190526020810180516001600160e01b0316631b55cbd160e21b179052613131565b6001600160a01b038216612dc157604051630b61174360e31b81526001600160a01b0383166004820152602401610b9a565b6001600160a01b03838116600081815260056020908152604080832094871680845294825291829020805460ff191686151590811790915591519182527f17307eab39ab6107e8899845ad3d59bd9653f200f220920489ca2b5937696c31910160405180910390a3505050565b610d3084848484604051602401612e489493929190614088565b60408051601f198184030181529190526020810180516001600160e01b031663c67ea9d160e01b179052613131565b6001600160a01b0383163b15610d3057604051630a85bd0160e11b81526001600160a01b0384169063150b7a0290612eb99033908890879087906004016140c5565b6020604051808303816000875af1925050508015612ef4575060408051601f3d908101601f19168201909252612ef191810190614102565b60015b612f5d573d808015612f22576040519150601f19603f3d011682016040523d82523d6000602084013e612f27565b606091505b508051600003612f5557604051633250574960e11b81526001600160a01b0385166004820152602401610b9a565b805181602001fd5b6001600160e01b03198116630a85bd0160e11b146121f857604051633250574960e11b81526001600160a01b0385166004820152602401610b9a565b60606000612fa6836131b5565b60010190506000816001600160401b03811115612fc557612fc5613596565b6040519080825280601f01601f191660200182016040528015612fef576020820181803683370190505b5090508181016020015b600019016f181899199a1a9b1b9c1cb0b131b232b360811b600a86061a8153600a8504945084612ff957509392505050565b808061303f57506001600160a01b03821615155b1561310157600061304f84612b14565b90506001600160a01b0383161580159061307b5750826001600160a01b0316816001600160a01b031614155b801561308e575061308c818461245b565b155b156130b75760405163a9fbf51f60e01b81526001600160a01b0384166004820152602401610b9a565b81156130ff5783856001600160a01b0316826001600160a01b03167f8c5be1e5ebec7d5bd14f71427d1e84f3dd0314c0f7b2291e5b200ac8c7c3b92560405160405180910390a45b505b5050600090815260046020526040902080546001600160a01b0319166001600160a01b0392909216919091179055565b612af081612af3565b61314583838361328d565b611246576001600160a01b03831661317357604051637e27328960e01b815260048101829052602401610b9a565b60405163177e802f60e01b81526001600160a01b038316600482015260248101829052604401610b9a565b6131a883836132f3565b6112466000848484612e77565b60008072184f03e93ff9f4daa797ed6e38ed64bf6a1f0160401b83106131f45772184f03e93ff9f4daa797ed6e38ed64bf6a1f0160401b830492506040015b6d04ee2d6d415b85acef81000000008310613220576d04ee2d6d415b85acef8100000000830492506020015b662386f26fc10000831061323e57662386f26fc10000830492506010015b6305f5e1008310613256576305f5e100830492506008015b612710831061326a57612710830492506004015b6064831061327c576064830492506002015b600a83106108cc5760010192915050565b60006001600160a01b038316158015906132eb5750826001600160a01b0316846001600160a01b031614806132c757506132c7848461245b565b806132eb57506000828152600460205260409020546001600160a01b038481169116145b949350505050565b6001600160a01b03821661331d57604051633250574960e11b815260006004820152602401610b9a565b600061332b83836000612bcb565b90506001600160a01b03811615611246576040516339e3563760e11b815260006004820152602401610b9a565b6116c561411f565b6040518061012001604052806000815260200160006001600160a01b031681526020016060815260200160008152602001600081526020016000815260200160008152602001600015158152602001600081525090565b6001600160e01b031981168114612af057600080fd5b6000602082840312156133df57600080fd5b8135612454816133b7565b6000602082840312156133fc57600080fd5b5035919050565b60005b8381101561341e578181015183820152602001613406565b50506000910152565b6000815180845261343f816020860160208601613403565b601f01601f19169290920160200192915050565b60006101008a83528960208401528060408401526134738184018a613427565b60608401989098525050608081019490945260a084019290925260c083015260e0909101529392505050565b6020815260006124546020830184613427565b80356001600160a01b03811681146134c957600080fd5b919050565b600080604083850312156134e157600080fd5b6134ea836134b2565b946020939093013593505050565b8981526001600160a01b0389166020820152610120604082018190526000906135238382018b613427565b60608401999099525050608081019590955260a085019390935260c0840191909152151560e0830152610100909101529392505050565b60008060006060848603121561356f57600080fd5b613578846134b2565b9250613586602085016134b2565b9150604084013590509250925092565b634e487b7160e01b600052604160045260246000fd5b604051601f8201601f191681016001600160401b03811182821017156135d4576135d4613596565b604052919050565b60006001600160401b038311156135f5576135f5613596565b613608601f8401601f19166020016135ac565b905082815283838301111561361c57600080fd5b828260208301376000602084830101529392505050565b600082601f83011261364457600080fd5b612454838335602085016135dc565b6000806040838503121561366657600080fd5b8235915060208301356001600160401b0381111561368357600080fd5b61368f85828601613633565b9150509250929050565b6000815180845260208085019450848260051b860182860160005b858110156136de5783830389526136cc838351613427565b988501989250908401906001016136b4565b5090979650505050505050565b600081518084526020808501945080840160005b8381101561371b578151875295820195908201906001016136ff565b509495945050505050565b600081518084526020808501945080840160005b8381101561371b57815115158752958201959082019060010161373a565b60c08152600061376b60c0830189613699565b60208382038185015261377e828a6136eb565b84810360408601528851808252828a0193509082019060005b818110156137bc5784516001600160a01b031683529383019391830191600101613797565b505084810360608601526137d08189613726565b9250505082810360808401526137e681866136eb565b905082810360a08401526137fa81856136eb565b9998505050505050505050565b602081526000825160e06020840152613824610100840182613427565b905060208401516040840152604084015160608401526060840151608084015260018060a01b0360808501511660a084015260a0840151151560c084015260c084015160e08401528091505092915050565b6000806040838503121561388957600080fd5b50508035926020909101359150565b6000602082840312156138aa57600080fd5b612454826134b2565b60006020808301818452808551808352604092508286019150828160051b87010184880160005b8381101561397157603f19898403018552815180518452878101516001600160a01b031688850152868101516101208886018190529061391c82870182613427565b606084810151908801526080808501519088015260a0808501519088015260c0808501519088015260e080850151151590880152610100938401519390960192909252505093860193908601906001016138da565b509098975050505050505050565b60006020808301818452808551808352604092508286019150828160051b87010184880160005b8381101561397157603f1989840301855281516101008151855288820151898601528782015181898701526139dd82870182613427565b606084810151908801526080808501519088015260a0808501519088015260c0808501519088015260e0938401519390960192909252505093860193908601906001016139a6565b6020815260006124546020830184613699565b60008060408385031215613a4b57600080fd5b613a54836134b2565b915060208301358015158114613a6957600080fd5b809150509250929050565b60008060008060808587031215613a8a57600080fd5b613a93856134b2565b9350613aa1602086016134b2565b92506040850135915060608501356001600160401b03811115613ac357600080fd5b8501601f81018713613ad457600080fd5b613ae3878235602084016135dc565b91505092959194509250565b60008060408385031215613b0257600080fd5b613b0b836134b2565b9150613b19602084016134b2565b90509250929050565b60006001600160401b03821115613b3b57613b3b613596565b5060051b60200190565b600082601f830112613b5657600080fd5b81356020613b6b613b6683613b22565b6135ac565b82815260059290921b84018101918181019086841115613b8a57600080fd5b8286015b84811015613bc95780356001600160401b03811115613bad5760008081fd5b613bbb8986838b0101613633565b845250918301918301613b8e565b509695505050505050565b600082601f830112613be557600080fd5b81356020613bf5613b6683613b22565b82815260059290921b84018101918181019086841115613c1457600080fd5b8286015b84811015613bc95780358352918301918301613c18565b600082601f830112613c4057600080fd5b81356020613c50613b6683613b22565b82815260059290921b84018101918181019086841115613c6f57600080fd5b8286015b84811015613bc95780356001600160401b03811115613c925760008081fd5b613ca08986838b0101613b45565b845250918301918301613c73565b60008060008060008060c08789031215613cc757600080fd5b86356001600160401b0380821115613cde57600080fd5b613cea8a838b01613633565b9750602089013596506040890135915080821115613d0757600080fd5b613d138a838b01613b45565b95506060890135915080821115613d2957600080fd5b613d358a838b01613bd4565b94506080890135915080821115613d4b57600080fd5b613d578a838b01613bd4565b935060a0890135915080821115613d6d57600080fd5b50613d7a89828a01613c2f565b9150509295509295509295565b600181811c90821680613d9b57607f821691505b6020821081036123e057634e487b7160e01b600052602260045260246000fd5b60008251613dcd818460208701613403565b9190910192915050565b634e487b7160e01b600052603260045260246000fd5b634e487b7160e01b600052601160045260246000fd5b600060018201613e1557613e15613ded565b5060010190565b80820281158282048414176108cc576108cc613ded565b600082613e5057634e487b7160e01b600052601260045260246000fd5b500490565b818103818111156108cc576108cc613ded565b808201808211156108cc576108cc613ded565b604081526000613e8e6040830185613427565b90508260208301529392505050565b60008351613eaf818460208801613403565b835190830190613ec3818360208801613403565b01949350505050565b60208082526019908201527f546965722064617461206c656e677468206d69736d6174636800000000000000604082015260600190565b601f82111561124657600081815260208120601f850160051c81016020861015613f2a5750805b601f850160051c820191505b81811015613f4957828155600101613f36565b505050505050565b81516001600160401b03811115613f6a57613f6a613596565b613f7e81613f788454613d87565b84613f03565b602080601f831160018114613fb35760008415613f9b5750858301515b600019600386901b1c1916600185901b178555613f49565b600085815260208120601f198616915b82811015613fe257888601518255948401946001909101908401613fc3565b50858210156140005787850151600019600388901b60f8161c191681555b5050505050600190811b01905550565b6060815260006140236060830186613427565b60208301949094525060400152919050565b6080815260006140486080830187613427565b828103602084015261405a8187613427565b9050828103604084015261406e8186613427565b91505060018060a01b038316606083015295945050505050565b60808152600061409b6080830187613427565b85602084015282810360408401526140b38186613427565b91505082606083015295945050505050565b6001600160a01b03858116825284166020820152604081018390526080606082018190526000906140f890830184613427565b9695505050505050565b60006020828403121561411457600080fd5b8151612454816133b7565b634e487b7160e01b600052605160045260246000fdfea2646970667358221220907b0d2623bca2f9498041cd74b350d66c5b0cf3732adff7b4669a545b80660764736f6c63430008140033",
  "devdoc": {
    "author": "Monad Ticket Team",
    "details": "All seat data and ticket information stored on-chain",
    "errors": {
      "ERC721IncorrectOwner(address,uint256,address)": [
        {
          "details": "Indicates an error related to the ownership over a particular token. Used in transfers.",
          "params": {
            "owner": "Address of the current owner of a token.",
            "sender": "Address whose tokens are being transferred.",
            "tokenId": "Identifier number of a token."
          }
        }
      ],
      "ERC721InsufficientApproval(address,uint256)": [
        {
          "details": "Indicates a failure with the `operator`s approval. Used in transfers.",
          "params": {
            "operator": "Address that may be allowed to operate on tokens without being their owner.",
            "tokenId": "Identifier number of a token."
          }
        }
      ],
      "ERC721InvalidApprover(address)": [
        {
          "details": "Indicates a failure with the `approver` of a token to be approved. Used in approvals.",
          "params": {
            "approver": "Address initiating an approval operation."
          }
        }
      ],
      "ERC721InvalidOperator(address)": [
        {
          "details": "Indicates a failure with the `operator` to be approved. Used in approvals.",
          "params": {
            "operator": "Address that may be allowed to operate on tokens without being their owner."
          }
        }
      ],
      "ERC721InvalidOwner(address)": [
        {
          "details": "Indicates that an address can't be an owner. For example, `address(0)` is a forbidden owner in EIP-20. Used in balance queries.",
          "params": {
            "owner": "Address of the current owner of a token."
          }
        }
      ],
      "ERC721InvalidReceiver(address)": [
        {
          "details": "Indicates a failure with the token `receiver`. Used in transfers.",
          "params": {
            "receiver": "Address to which tokens are being transferred."
          }
        }
      ],
      "ERC721InvalidSender(address)": [
        {
          "details": "Indicates a failure with the token `sender`. Used in transfers.",
          "params": {
            "sender": "Address whose tokens are being transferred."
          }
        }
      ],
      "ERC721NonexistentToken(uint256)": [
        {
          "details": "Indicates a `tokenId` whose `owner` is the zero address.",
          "params": {
            "tokenId": "Identifier number of a token."
          }
        }
      ],
      "OwnableInvalidOwner(address)": [
        {
          "details": "The owner is not a valid owner account. (eg. `address(0)`)"
        }
      ],
      "OwnableUnauthorizedAccount(address)": [
        {
          "details": "The caller account is not authorized to perform an operation."
        }
      ]
    },
    "events": {
      "Approval(address,address,uint256)": {
        "details": "Emitted when `owner` enables `approved` to manage the `tokenId` token."
      },
      "ApprovalForAll(address,address,bool)": {
        "details": "Emitted when `owner` enables or disables (`approved`) `operator` to manage all of its assets."
      },
      "Transfer(address,address,uint256)": {
        "details": "Emitted when `tokenId` token is transferred from `from` to `to`."
      }
    },
    "kind": "dev",
    "methods": {
      "approve(address,uint256)": {
        "details": "See {IERC721-approve}."
      },
      "balanceOf(address)": {
        "details": "See {IERC721-balanceOf}."
      },
      "buyTicket(uint256,string)": {
        "params": {
          "_eventId": "Event ID",
          "_seatId": "Seat ID (e.g., \"A-01\")"
        }
      },
      "createEvent(string,uint256,string[],uint256[],uint256[],string[][])": {
        "params": {
          "_eventDate": "Event date (Unix timestamp)",
          "_name": "Event name",
          "_tierCounts": "Array of seat counts per tier",
          "_tierNames": "Array of tier names (e.g., [\"VIP\", \"Standard\"])",
          "_tierPrices": "Array of tier prices (in wei)",
          "_tierSeatIds": "2D array of seat IDs per tier (e.g., [[\"A-01\", \"A-02\"], [\"B-01\", \"B-02\"]])"
        }
      },
      "deactivateEvent(uint256)": {
        "params": {
          "_eventId": "Event ID"
        }
      },
      "getAllEvents()": {
        "returns": {
          "_0": "Array of all events"
        }
      },
      "getApproved(uint256)": {
        "details": "See {IERC721-getApproved}."
      },
      "getEventAllSeatsWithStatus(uint256)": {
        "params": {
          "_eventId": "Event ID"
        },
        "returns": {
          "availabilities": "Array of availability status",
          "owners": "Array of current owners (address(0) if available)",
          "prices": "Array of prices per seat",
          "seatIds": "Array of seat IDs",
          "tierIds": "Array of tier IDs per seat",
          "tokenIds": "Array of token IDs"
        }
      },
      "getEventTiers(uint256)": {
        "params": {
          "_eventId": "Event ID"
        },
        "returns": {
          "_0": "Array of tiers"
        }
      },
      "getEventsByIssuer(address)": {
        "params": {
          "_issuer": "Issuer address"
        },
        "returns": {
          "_0": "Array of events created by the issuer"
        }
      },
      "getSeatInfo(uint256,string)": {
        "params": {
          "_eventId": "Event ID",
          "_seatId": "Seat ID"
        },
        "returns": {
          "_0": "SeatInfo struct"
        }
      },
      "getUserTickets(address,uint256)": {
        "params": {
          "_eventId": "Event ID",
          "_user": "User address"
        },
        "returns": {
          "_0": "Array of seat IDs owned by the user"
        }
      },
      "getWithdrawableRevenue(uint256)": {
        "params": {
          "_eventId": "Event ID"
        },
        "returns": {
          "_0": "amount Withdrawable amount"
        }
      },
      "isApprovedForAll(address,address)": {
        "details": "See {IERC721-isApprovedForAll}."
      },
      "isSeatAvailable(uint256,string)": {
        "params": {
          "_eventId": "Event ID",
          "_seatId": "Seat ID"
        },
        "returns": {
          "_0": "True if available, false if sold"
        }
      },
      "name()": {
        "details": "See {IERC721Metadata-name}."
      },
      "owner()": {
        "details": "Returns the address of the current owner."
      },
      "ownerOf(uint256)": {
        "details": "See {IERC721-ownerOf}."
      },
      "renounceOwnership()": {
        "details": "Leaves the contract without owner. It will not be possible to call `onlyOwner` functions. Can only be called by the current owner. NOTE: Renouncing ownership will leave the contract without an owner, thereby disabling any functionality that is only available to the owner."
      },
      "safeTransferFrom(address,address,uint256)": {
        "details": "See {IERC721-safeTransferFrom}."
      },
      "safeTransferFrom(address,address,uint256,bytes)": {
        "details": "See {IERC721-safeTransferFrom}."
      },
      "setApprovalForAll(address,bool)": {
        "details": "See {IERC721-setApprovalForAll}."
      },
      "supportsInterface(bytes4)": {
        "details": "See {IERC165-supportsInterface}."
      },
      "symbol()": {
        "details": "See {IERC721Metadata-symbol}."
      },
      "tokenURI(uint256)": {
        "details": "See {IERC721Metadata-tokenURI}."
      },
      "transferFrom(address,address,uint256)": {
        "details": "See {IERC721-transferFrom}."
      },
      "transferOwnership(address)": {
        "details": "Transfers ownership of the contract to a new account (`newOwner`). Can only be called by the current owner."
      },
      "withdrawEventRevenue(uint256)": {
        "params": {
          "_eventId": "Event ID"
        }
      }
    },
    "title": "MonadTicketSale",
    "version": 1
  },
  "userdoc": {
    "kind": "user",
    "methods": {
      "buyTicket(uint256,string)": {
        "notice": "Buy a specific ticket by seat ID"
      },
      "createEvent(string,uint256,string[],uint256[],uint256[],string[][])": {
        "notice": "Create a new event with multiple tiers"
      },
      "deactivateEvent(uint256)": {
        "notice": "Deactivate an event"
      },
      "getAllEvents()": {
        "notice": "Get all events"
      },
      "getEventAllSeatsWithStatus(uint256)": {
        "notice": "Get all seats with status for an event (for seat map visualization)"
      },
      "getEventCount()": {
        "notice": "Get total number of events"
      },
      "getEventTiers(uint256)": {
        "notice": "Get all tiers for an event"
      },
      "getEventsByIssuer(address)": {
        "notice": "Get events by issuer"
      },
      "getSeatInfo(uint256,string)": {
        "notice": "Get detailed seat information"
      },
      "getUserTickets(address,uint256)": {
        "notice": "Get user's owned tickets for an event"
      },
      "getWithdrawableRevenue(uint256)": {
        "notice": "Get withdrawable revenue for an event"
      },
      "isSeatAvailable(uint256,string)": {
        "notice": "Check if a seat is available"
      },
      "withdrawEventRevenue(uint256)": {
        "notice": "Withdraw event revenue after event ends"
      },
      "withdrawPlatformFee()": {
        "notice": "Withdraw accumulated platform fees (owner only)"
      }
    },
    "notice": "100% on-chain NFT ticketing system for Monad blockchain",
    "version": 1
  },
  "storageLayout": {
    "storage": [
      {
        "astId": 317,
        "contract": "contracts/MonadTicketSale.sol:MonadTicketSale",
        "label": "_name",
        "offset": 0,
        "slot": "0",
        "type": "t_string_storage"
      },
      {
        "astId": 319,
        "contract": "contracts/MonadTicketSale.sol:MonadTicketSale",
        "label": "_symbol",
        "offset": 0,
        "slot": "1",
        "type": "t_string_storage"
      },
      {
        "astId": 323,
        "contract": "contracts/MonadTicketSale.sol:MonadTicketSale",
        "label": "_owners",
        "offset": 0,
        "slot": "2",
        "type": "t_mapping(t_uint256,t_address)"
      },
      {
        "astId": 327,
        "contract": "contracts/MonadTicketSale.sol:MonadTicketSale",
        "label": "_balances",
        "offset": 0,
        "slot": "3",
        "type": "t_mapping(t_address,t_uint256)"
      },
      {
        "astId": 331,
        "contract": "contracts/MonadTicketSale.sol:MonadTicketSale",
        "label": "_tokenApprovals",
        "offset": 0,
        "slot": "4",
        "type": "t_mapping(t_uint256,t_address)"
      },
      {
        "astId": 337,
        "contract": "contracts/MonadTicketSale.sol:MonadTicketSale",
        "label": "_operatorApprovals",
        "offset": 0,
        "slot": "5",
        "type": "t_mapping(t_address,t_mapping(t_address,t_bool))"
      },
      {
        "astId": 8,
        "contract": "contracts/MonadTicketSale.sol:MonadTicketSale",
        "label": "_owner",
        "offset": 0,
        "slot": "6",
        "type": "t_address"
      },
      {
        "astId": 2950,
        "contract": "contracts/MonadTicketSale.sol:MonadTicketSale",
        "label": "_nextTokenId",
        "offset": 0,
        "slot": "7",
        "type": "t_uint256"
      },
      {
        "astId": 2953,
        "contract": "contracts/MonadTicketSale.sol:MonadTicketSale",
        "label": "_nextEventId",
        "offset": 0,
        "slot": "8",
        "type": "t_uint256"
      },
      {
        "astId": 2956,
        "contract": "contracts/MonadTicketSale.sol:MonadTicketSale",
        "label": "_nextTierId",
        "offset": 0,
        "slot": "9",
        "type": "t_uint256"
      },
      {
        "astId": 2961,
        "contract": "contracts/MonadTicketSale.sol:MonadTicketSale",
        "label": "events",
        "offset": 0,
        "slot": "10",
        "type": "t_mapping(t_uint256,t_struct(Event)4275_storage)"
      },
      {
        "astId": 2966,
        "contract": "contracts/MonadTicketSale.sol:MonadTicketSale",
        "label": "tiers",
        "offset": 0,
        "slot": "11",
        "type": "t_mapping(t_uint256,t_struct(Tier)4293_storage)"
      },
      {
        "astId": 2970,
        "contract": "contracts/MonadTicketSale.sol:MonadTicketSale",
        "label": "tokenIdToSeatId",
        "offset": 0,
        "slot": "12",
        "type": "t_mapping(t_uint256,t_string_storage)"
      },
      {
        "astId": 2976,
        "contract": "contracts/MonadTicketSale.sol:MonadTicketSale",
        "label": "eventSeatToTokenId",
        "offset": 0,
        "slot": "13",
        "type": "t_mapping(t_uint256,t_mapping(t_string_memory_ptr,t_uint256))"
      },
      {
        "astId": 2980,
        "contract": "contracts/MonadTicketSale.sol:MonadTicketSale",
        "label": "tokenIdToEventId",
        "offset": 0,
        "slot": "14",
        "type": "t_mapping(t_uint256,t_uint256)"
      },
      {
        "astId": 2984,
        "contract": "contracts/MonadTicketSale.sol:MonadTicketSale",
        "label": "tokenIdToTierId",
        "offset": 0,
        "slot": "15",
        "type": "t_mapping(t_uint256,t_uint256)"
      },
      {
        "astId": 2989,
        "contract": "contracts/MonadTicketSale.sol:MonadTicketSale",
        "label": "eventTokenIds",
        "offset": 0,
        "slot": "16",
        "type": "t_mapping(t_uint256,t_array(t_uint256)dyn_storage)"
      },
      {
        "astId": 2994,
        "contract": "contracts/MonadTicketSale.sol:MonadTicketSale",
        "label": "eventTierIds",
        "offset": 0,
        "slot": "17",
        "type": "t_mapping(t_uint256,t_array(t_uint256)dyn_storage)"
      },
      {
        "astId": 2999,
        "contract": "contracts/MonadTicketSale.sol:MonadTicketSale",
        "label": "issuerEventIds",
        "offset": 0,
        "slot": "18",
        "type": "t_mapping(t_address,t_array(t_uint256)dyn_storage)"
      },
      {
        "astId": 3002,
        "contract": "contracts/MonadTicketSale.sol:MonadTicketSale",
        "label": "allEventIds",
        "offset": 0,
        "slot": "19",
        "type": "t_array(t_uint256)dyn_storage"
      },
      {
        "astId": 3006,
        "contract": "contracts/MonadTicketSale.sol:MonadTicketSale",
        "label": "eventRevenue",
        "offset": 0,
        "slot": "20",
        "type": "t_mapping(t_uint256,t_uint256)"
      },
      {
        "astId": 3010,
        "contract": "contracts/MonadTicketSale.sol:MonadTicketSale",
        "label": "eventWithdrawn",
        "offset": 0,
        "slot": "21",
        "type": "t_mapping(t_uint256,t_bool)"
      },
      {
        "astId": 3012,
        "contract": "contracts/MonadTicketSale.sol:MonadTicketSale",
        "label": "platformFeeBalance",
        "offset": 0,
        "slot": "22",
        "type": "t_uint256"
      },
      {
        "astId": 3015,
        "contract": "contracts/MonadTicketSale.sol:MonadTicketSale",
        "label": "platformFeePercent",
        "offset": 0,
        "slot": "23",
        "type": "t_uint256"
      }
    ],
    "types": {
      "t_address": {
        "encoding": "inplace",
        "label": "address",
        "numberOfBytes": "20"
      },
      "t_array(t_uint256)dyn_storage": {
        "base": "t_uint256",
        "encoding": "dynamic_array",
        "label": "uint256[]",
        "numberOfBytes": "32"
      },
      "t_bool": {
        "encoding": "inplace",
        "label": "bool",
        "numberOfBytes": "1"
      },
      "t_mapping(t_address,t_array(t_uint256)dyn_storage)": {
        "encoding": "mapping",
        "key": "t_address",
        "label": "mapping(address => uint256[])",
        "numberOfBytes": "32",
        "value": "t_array(t_uint256)dyn_storage"
      },
      "t_mapping(t_address,t_bool)": {
        "encoding": "mapping",
        "key": "t_address",
        "label": "mapping(address => bool)",
        "numberOfBytes": "32",
        "value": "t_bool"
      },
      "t_mapping(t_address,t_mapping(t_address,t_bool))": {
        "encoding": "mapping",
        "key": "t_address",
        "label": "mapping(address => mapping(address => bool))",
        "numberOfBytes": "32",
        "value": "t_mapping(t_address,t_bool)"
      },
      "t_mapping(t_address,t_uint256)": {
        "encoding": "mapping",
        "key": "t_address",
        "label": "mapping(address => uint256)",
        "numberOfBytes": "32",
        "value": "t_uint256"
      },
      "t_mapping(t_string_memory_ptr,t_uint256)": {
        "encoding": "mapping",
        "key": "t_string_memory_ptr",
        "label": "mapping(string => uint256)",
        "numberOfBytes": "32",
        "value": "t_uint256"
      },
      "t_mapping(t_uint256,t_address)": {
        "encoding": "mapping",
        "key": "t_uint256",
        "label": "mapping(uint256 => address)",
        "numberOfBytes": "32",
        "value": "t_address"
      },
      "t_mapping(t_uint256,t_array(t_uint256)dyn_storage)": {
        "encoding": "mapping",
        "key": "t_uint256",
        "label": "mapping(uint256 => uint256[])",
        "numberOfBytes": "32",
        "value": "t_array(t_uint256)dyn_storage"
      },
      "t_mapping(t_uint256,t_bool)": {
        "encoding": "mapping",
        "key": "t_uint256",
        "label": "mapping(uint256 => bool)",
        "numberOfBytes": "32",
        "value": "t_bool"
      },
      "t_mapping(t_uint256,t_mapping(t_string_memory_ptr,t_uint256))": {
        "encoding": "mapping",
        "key": "t_uint256",
        "label": "mapping(uint256 => mapping(string => uint256))",
        "numberOfBytes": "32",
        "value": "t_mapping(t_string_memory_ptr,t_uint256)"
      },
      "t_mapping(t_uint256,t_string_storage)": {
        "encoding": "mapping",
        "key": "t_uint256",
        "label": "mapping(uint256 => string)",
        "numberOfBytes": "32",
        "value": "t_string_storage"
      },
      "t_mapping(t_uint256,t_struct(Event)4275_storage)": {
        "encoding": "mapping",
        "key": "t_uint256",
        "label": "mapping(uint256 => struct Event)",
        "numberOfBytes": "32",
        "value": "t_struct(Event)4275_storage"
      },
      "t_mapping(t_uint256,t_struct(Tier)4293_storage)": {
        "encoding": "mapping",
        "key": "t_uint256",
        "label": "mapping(uint256 => struct Tier)",
        "numberOfBytes": "32",
        "value": "t_struct(Tier)4293_storage"
      },
      "t_mapping(t_uint256,t_uint256)": {
        "encoding": "mapping",
        "key": "t_uint256",
        "label": "mapping(uint256 => uint256)",
        "numberOfBytes": "32",
        "value": "t_uint256"
      },
      "t_string_memory_ptr": {
        "encoding": "bytes",
        "label": "string",
        "numberOfBytes": "32"
      },
      "t_string_storage": {
        "encoding": "bytes",
        "label": "string",
        "numberOfBytes": "32"
      },
      "t_struct(Event)4275_storage": {
        "encoding": "inplace",
        "label": "struct Event",
        "members": [
          {
            "astId": 4258,
            "contract": "contracts/MonadTicketSale.sol:MonadTicketSale",
            "label": "eventId",
            "offset": 0,
            "slot": "0",
            "type": "t_uint256"
          },
          {
            "astId": 4260,
            "contract": "contracts/MonadTicketSale.sol:MonadTicketSale",
            "label": "issuer",
            "offset": 0,
            "slot": "1",
            "type": "t_address"
          },
          {
            "astId": 4262,
            "contract": "contracts/MonadTicketSale.sol:MonadTicketSale",
            "label": "name",
            "offset": 0,
            "slot": "2",
            "type": "t_string_storage"
          },
          {
            "astId": 4264,
            "contract": "contracts/MonadTicketSale.sol:MonadTicketSale",
            "label": "eventDate",
            "offset": 0,
            "slot": "3",
            "type": "t_uint256"
          },
          {
            "astId": 4266,
            "contract": "contracts/MonadTicketSale.sol:MonadTicketSale",
            "label": "tierCount",
            "offset": 0,
            "slot": "4",
            "type": "t_uint256"
          },
          {
            "astId": 4268,
            "contract": "contracts/MonadTicketSale.sol:MonadTicketSale",
            "label": "totalTickets",
            "offset": 0,
            "slot": "5",
            "type": "t_uint256"
          },
          {
            "astId": 4270,
            "contract": "contracts/MonadTicketSale.sol:MonadTicketSale",
            "label": "soldTickets",
            "offset": 0,
            "slot": "6",
            "type": "t_uint256"
          },
          {
            "astId": 4272,
            "contract": "contracts/MonadTicketSale.sol:MonadTicketSale",
            "label": "isActive",
            "offset": 0,
            "slot": "7",
            "type": "t_bool"
          },
          {
            "astId": 4274,
            "contract": "contracts/MonadTicketSale.sol:MonadTicketSale",
            "label": "createdAt",
            "offset": 0,
            "slot": "8",
            "type": "t_uint256"
          }
        ],
        "numberOfBytes": "288"
      },
      "t_struct(Tier)4293_storage": {
        "encoding": "inplace",
        "label": "struct Tier",
        "members": [
          {
            "astId": 4278,
            "contract": "contracts/MonadTicketSale.sol:MonadTicketSale",
            "label": "tierId",
            "offset": 0,
            "slot": "0",
            "type": "t_uint256"
          },
          {
            "astId": 4280,
            "contract": "contracts/MonadTicketSale.sol:MonadTicketSale",
            "label": "eventId",
            "offset": 0,
            "slot": "1",
            "type": "t_uint256"
          },
          {
            "astId": 4282,
            "contract": "contracts/MonadTicketSale.sol:MonadTicketSale",
            "label": "name",
            "offset": 0,
            "slot": "2",
            "type": "t_string_storage"
          },
          {
            "astId": 4284,
            "contract": "contracts/MonadTicketSale.sol:MonadTicketSale",
            "label": "price",
            "offset": 0,
            "slot": "3",
            "type": "t_uint256"
          },
          {
            "astId": 4286,
            "contract": "contracts/MonadTicketSale.sol:MonadTicketSale",
            "label": "totalCount",
            "offset": 0,
            "slot": "4",
            "type": "t_uint256"
          },
          {
            "astId": 4288,
            "contract": "contracts/MonadTicketSale.sol:MonadTicketSale",
            "label": "soldCount",
            "offset": 0,
            "slot": "5",
            "type": "t_uint256"
          },
          {
            "astId": 4290,
            "contract": "contracts/MonadTicketSale.sol:MonadTicketSale",
            "label": "startTokenId",
            "offset": 0,
            "slot": "6",
            "type": "t_uint256"
          },
          {
            "astId": 4292,
            "contract": "contracts/MonadTicketSale.sol:MonadTicketSale",
            "label": "createdAt",
            "offset": 0,
            "slot": "7",
            "type": "t_uint256"
          }
        ],
        "numberOfBytes": "256"
      },
      "t_uint256": {
        "encoding": "inplace",
        "label": "uint256",
        "numberOfBytes": "32"
      }
    }
  }
}