{
  "address": "0xBc2fcbCc0fB8076f3f6F7B4c47365e4730aF48E0",
  "abi": [
    {
      "inputs": [],
      "name": "InvalidInitialization",
      "type": "error"
    },
    {
      "inputs": [],
      "name": "NotInitializing",
      "type": "error"
    },
    {
      "inputs": [
        {
          "internalType": "address",
          "name": "owner",
          "type": "address"
        }
      ],
      "name": "OwnableInvalidOwner",
      "type": "error"
    },
    {
      "inputs": [
        {
          "internalType": "address",
          "name": "account",
          "type": "address"
        }
      ],
      "name": "OwnableUnauthorizedAccount",
      "type": "error"
    },
    {
      "anonymous": false,
      "inputs": [
        {
          "indexed": false,
          "internalType": "uint256",
          "name": "delivery_request_index",
          "type": "uint256"
        },
        {
          "indexed": false,
          "internalType": "uint256",
          "name": "order_index",
          "type": "uint256"
        }
      ],
      "name": "ConfirmDelivery",
      "type": "event"
    },
    {
      "anonymous": false,
      "inputs": [
        {
          "indexed": false,
          "internalType": "address",
          "name": "user_addr",
          "type": "address"
        },
        {
          "indexed": false,
          "internalType": "address",
          "name": "store_addr",
          "type": "address"
        },
        {
          "indexed": false,
          "internalType": "address",
          "name": "deliver_addr",
          "type": "address"
        }
      ],
      "name": "ConfirmOrder",
      "type": "event"
    },
    {
      "anonymous": false,
      "inputs": [
        {
          "indexed": false,
          "internalType": "uint64",
          "name": "version",
          "type": "uint64"
        }
      ],
      "name": "Initialized",
      "type": "event"
    },
    {
      "anonymous": false,
      "inputs": [
        {
          "indexed": false,
          "internalType": "uint256",
          "name": "order_index",
          "type": "uint256"
        },
        {
          "indexed": false,
          "internalType": "address",
          "name": "store_address",
          "type": "address"
        },
        {
          "indexed": false,
          "internalType": "address",
          "name": "user_address",
          "type": "address"
        },
        {
          "indexed": false,
          "internalType": "int256",
          "name": "distance",
          "type": "int256"
        },
        {
          "indexed": false,
          "internalType": "int256",
          "name": "total_price",
          "type": "int256"
        },
        {
          "indexed": false,
          "internalType": "int256",
          "name": "delivery_fee",
          "type": "int256"
        }
      ],
      "name": "OrderMenu",
      "type": "event"
    },
    {
      "anonymous": false,
      "inputs": [
        {
          "indexed": true,
          "internalType": "address",
          "name": "previousOwner",
          "type": "address"
        },
        {
          "indexed": true,
          "internalType": "address",
          "name": "newOwner",
          "type": "address"
        }
      ],
      "name": "OwnershipTransferred",
      "type": "event"
    },
    {
      "inputs": [],
      "name": "GetOrders",
      "outputs": [
        {
          "components": [
            {
              "internalType": "uint256",
              "name": "index",
              "type": "uint256"
            },
            {
              "internalType": "uint256[]",
              "name": "menu",
              "type": "uint256[]"
            },
            {
              "internalType": "int256",
              "name": "total_price",
              "type": "int256"
            },
            {
              "internalType": "uint256",
              "name": "request_index",
              "type": "uint256"
            },
            {
              "internalType": "int256",
              "name": "delivery_fee",
              "type": "int256"
            }
          ],
          "internalType": "struct Order[]",
          "name": "",
          "type": "tuple[]"
        }
      ],
      "stateMutability": "nonpayable",
      "type": "function"
    },
    {
      "inputs": [
        {
          "internalType": "string",
          "name": "name",
          "type": "string"
        },
        {
          "internalType": "string",
          "name": "description",
          "type": "string"
        },
        {
          "internalType": "int256",
          "name": "price",
          "type": "int256"
        },
        {
          "internalType": "string",
          "name": "image_url",
          "type": "string"
        }
      ],
      "name": "addMenu",
      "outputs": [],
      "stateMutability": "nonpayable",
      "type": "function"
    },
    {
      "inputs": [
        {
          "internalType": "uint256",
          "name": "delivery_request_index",
          "type": "uint256"
        }
      ],
      "name": "approveDelivery",
      "outputs": [],
      "stateMutability": "nonpayable",
      "type": "function"
    },
    {
      "inputs": [
        {
          "internalType": "uint256",
          "name": "order_index",
          "type": "uint256"
        }
      ],
      "name": "confirmOrder",
      "outputs": [],
      "stateMutability": "payable",
      "type": "function"
    },
    {
      "inputs": [
        {
          "internalType": "address",
          "name": "",
          "type": "address"
        }
      ],
      "name": "deliverMap",
      "outputs": [
        {
          "internalType": "string",
          "name": "name",
          "type": "string"
        },
        {
          "internalType": "address",
          "name": "addr",
          "type": "address"
        }
      ],
      "stateMutability": "view",
      "type": "function"
    },
    {
      "inputs": [
        {
          "internalType": "uint256",
          "name": "",
          "type": "uint256"
        }
      ],
      "name": "deliveryRequests",
      "outputs": [
        {
          "internalType": "uint256",
          "name": "index",
          "type": "uint256"
        },
        {
          "internalType": "address",
          "name": "user_addr",
          "type": "address"
        },
        {
          "internalType": "address",
          "name": "store_addr",
          "type": "address"
        },
        {
          "internalType": "address",
          "name": "deliver_addr",
          "type": "address"
        },
        {
          "internalType": "uint256",
          "name": "order_index",
          "type": "uint256"
        }
      ],
      "stateMutability": "view",
      "type": "function"
    },
    {
      "inputs": [
        {
          "internalType": "address",
          "name": "store_address",
          "type": "address"
        }
      ],
      "name": "getStoreMenu",
      "outputs": [
        {
          "components": [
            {
              "internalType": "uint256",
              "name": "index",
              "type": "uint256"
            },
            {
              "internalType": "address",
              "name": "store_address",
              "type": "address"
            },
            {
              "internalType": "string",
              "name": "name",
              "type": "string"
            },
            {
              "internalType": "string",
              "name": "description",
              "type": "string"
            },
            {
              "internalType": "int256",
              "name": "price",
              "type": "int256"
            },
            {
              "internalType": "string",
              "name": "image_url",
              "type": "string"
            }
          ],
          "internalType": "struct Menu[]",
          "name": "",
          "type": "tuple[]"
        }
      ],
      "stateMutability": "view",
      "type": "function"
    },
    {
      "inputs": [],
      "name": "getStores",
      "outputs": [
        {
          "components": [
            {
              "internalType": "address",
              "name": "addr",
              "type": "address"
            },
            {
              "internalType": "string",
              "name": "location",
              "type": "string"
            },
            {
              "internalType": "int256",
              "name": "pos",
              "type": "int256"
            },
            {
              "internalType": "string",
              "name": "name",
              "type": "string"
            },
            {
              "internalType": "string",
              "name": "description",
              "type": "string"
            }
          ],
          "internalType": "struct Store[]",
          "name": "",
          "type": "tuple[]"
        }
      ],
      "stateMutability": "view",
      "type": "function"
    },
    {
      "inputs": [],
      "name": "initialize",
      "outputs": [],
      "stateMutability": "nonpayable",
      "type": "function"
    },
    {
      "inputs": [],
      "name": "initializeMockData",
      "outputs": [],
      "stateMutability": "nonpayable",
      "type": "function"
    },
    {
      "inputs": [
        {
          "internalType": "address",
          "name": "store_address",
          "type": "address"
        },
        {
          "internalType": "uint256[]",
          "name": "menu_index",
          "type": "uint256[]"
        }
      ],
      "name": "order",
      "outputs": [],
      "stateMutability": "payable",
      "type": "function"
    },
    {
      "inputs": [
        {
          "internalType": "address",
          "name": "",
          "type": "address"
        },
        {
          "internalType": "uint256",
          "name": "",
          "type": "uint256"
        }
      ],
      "name": "orderMap",
      "outputs": [
        {
          "internalType": "uint256",
          "name": "index",
          "type": "uint256"
        },
        {
          "internalType": "int256",
          "name": "total_price",
          "type": "int256"
        },
        {
          "internalType": "uint256",
          "name": "request_index",
          "type": "uint256"
        },
        {
          "internalType": "int256",
          "name": "delivery_fee",
          "type": "int256"
        }
      ],
      "stateMutability": "view",
      "type": "function"
    },
    {
      "inputs": [
        {
          "internalType": "uint256",
          "name": "",
          "type": "uint256"
        }
      ],
      "name": "orders",
      "outputs": [
        {
          "internalType": "uint256",
          "name": "index",
          "type": "uint256"
        },
        {
          "internalType": "int256",
          "name": "total_price",
          "type": "int256"
        },
        {
          "internalType": "uint256",
          "name": "request_index",
          "type": "uint256"
        },
        {
          "internalType": "int256",
          "name": "delivery_fee",
          "type": "int256"
        }
      ],
      "stateMutability": "view",
      "type": "function"
    },
    {
      "inputs": [],
      "name": "owner",
      "outputs": [
        {
          "internalType": "address",
          "name": "",
          "type": "address"
        }
      ],
      "stateMutability": "view",
      "type": "function"
    },
    {
      "inputs": [
        {
          "internalType": "uint256",
          "name": "",
          "type": "uint256"
        }
      ],
      "name": "pending_delivery",
      "outputs": [
        {
          "internalType": "uint256",
          "name": "",
          "type": "uint256"
        }
      ],
      "stateMutability": "view",
      "type": "function"
    },
    {
      "inputs": [
        {
          "internalType": "string",
          "name": "name",
          "type": "string"
        }
      ],
      "name": "registerDeliver",
      "outputs": [],
      "stateMutability": "nonpayable",
      "type": "function"
    },
    {
      "inputs": [
        {
          "internalType": "string",
          "name": "name",
          "type": "string"
        },
        {
          "internalType": "string",
          "name": "description",
          "type": "string"
        },
        {
          "internalType": "string",
          "name": "location",
          "type": "string"
        },
        {
          "internalType": "int256",
          "name": "pos",
          "type": "int256"
        }
      ],
      "name": "registerStore",
      "outputs": [],
      "stateMutability": "nonpayable",
      "type": "function"
    },
    {
      "inputs": [
        {
          "internalType": "string",
          "name": "name",
          "type": "string"
        },
        {
          "internalType": "string",
          "name": "location",
          "type": "string"
        },
        {
          "internalType": "int256",
          "name": "pos",
          "type": "int256"
        }
      ],
      "name": "registerUser",
      "outputs": [],
      "stateMutability": "nonpayable",
      "type": "function"
    },
    {
      "inputs": [
        {
          "internalType": "address",
          "name": "user_addr",
          "type": "address"
        }
      ],
      "name": "removeDelivery",
      "outputs": [],
      "stateMutability": "nonpayable",
      "type": "function"
    },
    {
      "inputs": [
        {
          "internalType": "uint256",
          "name": "menu_index",
          "type": "uint256"
        }
      ],
      "name": "removeMenu",
      "outputs": [],
      "stateMutability": "nonpayable",
      "type": "function"
    },
    {
      "inputs": [
        {
          "internalType": "address",
          "name": "user_addr",
          "type": "address"
        }
      ],
      "name": "removeStore",
      "outputs": [],
      "stateMutability": "nonpayable",
      "type": "function"
    },
    {
      "inputs": [
        {
          "internalType": "address",
          "name": "user_addr",
          "type": "address"
        }
      ],
      "name": "removeUser",
      "outputs": [],
      "stateMutability": "nonpayable",
      "type": "function"
    },
    {
      "inputs": [],
      "name": "renounceOwnership",
      "outputs": [],
      "stateMutability": "nonpayable",
      "type": "function"
    },
    {
      "inputs": [
        {
          "internalType": "address",
          "name": "",
          "type": "address"
        }
      ],
      "name": "storeMap",
      "outputs": [
        {
          "internalType": "address",
          "name": "addr",
          "type": "address"
        },
        {
          "internalType": "string",
          "name": "location",
          "type": "string"
        },
        {
          "internalType": "int256",
          "name": "pos",
          "type": "int256"
        },
        {
          "internalType": "string",
          "name": "name",
          "type": "string"
        },
        {
          "internalType": "string",
          "name": "description",
          "type": "string"
        }
      ],
      "stateMutability": "view",
      "type": "function"
    },
    {
      "inputs": [
        {
          "internalType": "address",
          "name": "",
          "type": "address"
        },
        {
          "internalType": "uint256",
          "name": "",
          "type": "uint256"
        }
      ],
      "name": "storeMenuMap",
      "outputs": [
        {
          "internalType": "uint256",
          "name": "index",
          "type": "uint256"
        },
        {
          "internalType": "address",
          "name": "store_address",
          "type": "address"
        },
        {
          "internalType": "string",
          "name": "name",
          "type": "string"
        },
        {
          "internalType": "string",
          "name": "description",
          "type": "string"
        },
        {
          "internalType": "int256",
          "name": "price",
          "type": "int256"
        },
        {
          "internalType": "string",
          "name": "image_url",
          "type": "string"
        }
      ],
      "stateMutability": "view",
      "type": "function"
    },
    {
      "inputs": [
        {
          "internalType": "uint256",
          "name": "",
          "type": "uint256"
        }
      ],
      "name": "stores",
      "outputs": [
        {
          "internalType": "address",
          "name": "addr",
          "type": "address"
        },
        {
          "internalType": "string",
          "name": "location",
          "type": "string"
        },
        {
          "internalType": "int256",
          "name": "pos",
          "type": "int256"
        },
        {
          "internalType": "string",
          "name": "name",
          "type": "string"
        },
        {
          "internalType": "string",
          "name": "description",
          "type": "string"
        }
      ],
      "stateMutability": "view",
      "type": "function"
    },
    {
      "inputs": [
        {
          "internalType": "address",
          "name": "newOwner",
          "type": "address"
        }
      ],
      "name": "transferOwnership",
      "outputs": [],
      "stateMutability": "nonpayable",
      "type": "function"
    },
    {
      "inputs": [
        {
          "internalType": "address",
          "name": "",
          "type": "address"
        }
      ],
      "name": "userMap",
      "outputs": [
        {
          "internalType": "string",
          "name": "name",
          "type": "string"
        },
        {
          "internalType": "address",
          "name": "addr",
          "type": "address"
        },
        {
          "internalType": "string",
          "name": "location",
          "type": "string"
        },
        {
          "internalType": "int256",
          "name": "pos",
          "type": "int256"
        }
      ],
      "stateMutability": "view",
      "type": "function"
    },
    {
      "inputs": [
        {
          "internalType": "address",
          "name": "",
          "type": "address"
        },
        {
          "internalType": "uint256",
          "name": "",
          "type": "uint256"
        }
      ],
      "name": "userOrderMap",
      "outputs": [
        {
          "internalType": "uint256",
          "name": "",
          "type": "uint256"
        }
      ],
      "stateMutability": "view",
      "type": "function"
    },
    {
      "inputs": [],
      "name": "wti_price",
      "outputs": [
        {
          "internalType": "uint256",
          "name": "",
          "type": "uint256"
        }
      ],
      "stateMutability": "view",
      "type": "function"
    }
  ],
  "transactionHash": "0x869a91a1933c22f4b3d574cc934717e2d7fccbc1e2111aae129c7b61c7f86dc9",
  "args": [],
  "numDeployments": 1,
  "solcInputHash": "259001e165f9717608586693fd79b2a7",
  "bytecode": "0x608060405234801561001057600080fd5b50613e3a806100206000396000f3fe6080604052600436106101cd5760003560e01c80638dbe1a17116100f7578063ca37f77211610095578063e8a59cd811610064578063e8a59cd814610578578063ed4d758e14610598578063f0084553146105b8578063f2fde38b146105ce57600080fd5b8063ca37f772146104f0578063d0ce474d14610510578063e4f89b681461052b578063e80fd77a1461054b57600080fd5b8063b302368a116100d1578063b302368a1461041a578063b66889f91461044c578063c710ea95146104a2578063c94b674b146104d057600080fd5b80638dbe1a17146101d257806398575188146101d2578063a85c38ef146103fa57600080fd5b80634f4708d01161016f5780638129fc1c1161013e5780638129fc1c1461037857806388478c861461038d5780638ac7d79c146103a25780638da5cb5b146103b357600080fd5b80634f4708d0146102f15780635dc917f0146103135780635e3e554a14610335578063715018a61461036357600080fd5b80632d4e5ca7116101ab5780632d4e5ca7146102405780632df7fb921461026057806338ad2f82146102a0578063416a933a146102c057600080fd5b806318c83917146101d257806327242c9b146101f45780632bcc23f814610207575b600080fd5b3480156101de57600080fd5b506101f26101ed366004612ed2565b6105ee565b005b6101f2610202366004612f0a565b61062b565b34801561021357600080fd5b50610227610222366004612ed2565b610bf9565b6040516102379493929190613021565b60405180910390f35b34801561024c57600080fd5b506101f261025b3660046130b0565b610d40565b34801561026c57600080fd5b5061028061027b3660046130f2565b610e36565b604080519485526020850193909352918301526060820152608001610237565b3480156102ac57600080fd5b506101f26102bb36600461311c565b610e7c565b3480156102cc57600080fd5b506102e06102db366004612ed2565b610fdb565b604051610237959493929190613190565b3480156102fd57600080fd5b506103066111ac565b60405161023791906131ec565b34801561031f57600080fd5b50610328611296565b60405161023791906132a9565b34801561034157600080fd5b50610355610350366004612ed2565b6114c2565b60405161023792919061336b565b34801561036f57600080fd5b506101f261156f565b34801561038457600080fd5b506101f2611583565b34801561039957600080fd5b506101f261168b565b6101f26103b0366004613395565b50565b3480156103bf57600080fd5b507f9016d09d72d40fdae2fd8ceac6b6234c7706214fd39c1cd1e609a0528c199300546040516001600160a01b039091168152602001610237565b34801561040657600080fd5b50610280610415366004613395565b612231565b34801561042657600080fd5b5061043a6104353660046130f2565b61226b565b604051610237969594939291906133ae565b34801561045857600080fd5b5061046c610467366004613395565b612463565b604080519586526001600160a01b039485166020870152928416928501929092529091166060830152608082015260a001610237565b3480156104ae57600080fd5b506104c26104bd366004613395565b6124b3565b604051908152602001610237565b3480156104dc57600080fd5b506101f26104eb366004613395565b6124d4565b3480156104fc57600080fd5b506101f261050b366004613411565b61257b565b34801561051c57600080fd5b506101f26101ed366004613395565b34801561053757600080fd5b506101f26105463660046134b4565b612801565b34801561055757600080fd5b5061056b610566366004612ed2565b6129c7565b6040516102379190613558565b34801561058457600080fd5b506102e0610593366004613395565b612c1c565b3480156105a457600080fd5b506104c26105b33660046130f2565b612c5b565b3480156105c457600080fd5b506104c260005481565b3480156105da57600080fd5b506101f26105e9366004612ed2565b612c8c565b60405162461bcd60e51b815260206004820152600d60248201526c155b9a5b5c1b195b595b9d1959609a1b60448201526064015b60405180910390fd5b336000908152600260205260409020805461064590613617565b90506000036106875760405162461bcd60e51b815260206004820152600e60248201526d2737ba103337bab732103ab9b2b960911b6044820152606401610622565b6001600160a01b03821660009081526003602081905260409091200180546106ae90613617565b90506000036106f15760405162461bcd60e51b815260206004820152600f60248201526e4e6f7420666f756e642073746f726560881b6044820152606401610622565b6007546040805160a08101825260095481523360208201526001600160a01b0385169181019190915260006060820181905260808201839052805b84518111610a0a576001600160a01b038616600090815260056020526040902054158015906107a157506001600160a01b038616600090815260056020526040902080548290811061078057610780613651565b9060005260206000209060060201600201805461079c90613617565b151590505b156109f8576001600160a01b03861660009081526005602052604081208054839081106107d0576107d0613651565b90600052602060002090600602016040518060c0016040529081600082015481526020016001820160009054906101000a90046001600160a01b03166001600160a01b03166001600160a01b0316815260200160028201805461083290613617565b80601f016020809104026020016040519081016040528092919081815260200182805461085e90613617565b80156108ab5780601f10610880576101008083540402835291602001916108ab565b820191906000526020600020905b81548152906001019060200180831161088e57829003601f168201915b505050505081526020016003820180546108c490613617565b80601f01602080910402602001604051908101604052809291908181526020018280546108f090613617565b801561093d5780601f106109125761010080835404028352916020019161093d565b820191906000526020600020905b81548152906001019060200180831161092057829003601f168201915b505050505081526020016004820154815260200160058201805461096090613617565b80601f016020809104026020016040519081016040528092919081815260200182805461098c90613617565b80156109d95780601f106109ae576101008083540402835291602001916109d9565b820191906000526020600020905b8154815290600101906020018083116109bc57829003601f168201915b50505050508152505090508060800151836109f4919061367d565b9250505b80610a02816136a5565b91505061072c565b503360009081526002602081815260408084206003908101546001600160a01b038b1686529252832090910154610a4191906136be565b90506000610a508260016136e5565b6040805160a0810182526007805480835260208084018c81529484018990528951606085015260808401869052600182018355600092909252825160059091027fa66cc928b5edb82af9bd49922954155ab7b0942694bea4ce44661d9a8736c68881019182559351805195965092949093610af1937fa66cc928b5edb82af9bd49922954155ab7b0942694bea4ce44661d9a8736c689909101920190612e16565b506040828101516002830155606083015160038301556080909201516004909101553360009081526008602052206007805487908110610b3357610b33613651565b6000918252602080832084546001818101875595855291909320600592830290930180549190920290920191825582810180549193610b76929084019190612e61565b506002828101549082015560038083015490820155600491820154910155604080518681526001600160a01b03891660208201523381830152606081018490526080810185905260a0810183905290517f956539898ef8cf5d12368c900cda8b8de7b29ef9ed6690b662f550e8606aa4729181900360c00190a150505050505050565b600260205260009081526040902080548190610c1490613617565b80601f0160208091040260200160405190810160405280929190818152602001828054610c4090613617565b8015610c8d5780601f10610c6257610100808354040283529160200191610c8d565b820191906000526020600020905b815481529060010190602001808311610c7057829003601f168201915b505050600184015460028501805494956001600160a01b03909216949193509150610cb790613617565b80601f0160208091040260200160405190810160405280929190818152602001828054610ce390613617565b8015610d305780601f10610d0557610100808354040283529160200191610d30565b820191906000526020600020905b815481529060010190602001808311610d1357829003601f168201915b5050505050908060030154905084565b3360009081526004602052604090208054610d5a90613617565b159050610da95760405162461bcd60e51b815260206004820152601a60248201527f44656c6976657220616c726561647920726567697374657265640000000000006044820152606401610622565b6040805160606020601f850181900402820181018352918101838152909182919085908590819085018382808284376000920182905250938552505033602093840181905282525060049091526040902081518190610e089082613763565b5060209190910151600190910180546001600160a01b0319166001600160a01b039092169190911790555050565b60086020528160005260406000208181548110610e5257600080fd5b60009182526020909120600590910201805460028201546003830154600490930154919450925084565b3360009081526002602052604090208054610e9690613617565b159050610ee55760405162461bcd60e51b815260206004820152601760248201527f5573657220616c726561647920726567697374657265640000000000000000006044820152606401610622565b604051806080016040528086868080601f0160208091040260200160405190810160405280939291908181526020018383808284376000920191909152505050908252503360208083019190915260408051601f870183900483028101830182528681529201919086908690819084018382808284376000920182905250938552505050602091820184905233815260029091526040902081518190610f8b9082613763565b5060208201516001820180546001600160a01b0319166001600160a01b0390921691909117905560408201516002820190610fc69082613763565b50606082015181600301559050505050505050565b600360205260009081526040902080546001820180546001600160a01b03909216929161100790613617565b80601f016020809104026020016040519081016040528092919081815260200182805461103390613617565b80156110805780601f1061105557610100808354040283529160200191611080565b820191906000526020600020905b81548152906001019060200180831161106357829003601f168201915b50505050509080600201549080600301805461109b90613617565b80601f01602080910402602001604051908101604052809291908181526020018280546110c790613617565b80156111145780601f106110e957610100808354040283529160200191611114565b820191906000526020600020905b8154815290600101906020018083116110f757829003601f168201915b50505050509080600401805461112990613617565b80601f016020809104026020016040519081016040528092919081815260200182805461115590613617565b80156111a25780601f10611177576101008083540402835291602001916111a2565b820191906000526020600020905b81548152906001019060200180831161118557829003601f168201915b5050505050905085565b336000908152600860209081526040808320805482518185028101850190935280835260609492939192909184015b8282101561128d57838290600052602060002090600502016040518060a0016040529081600082015481526020016001820180548060200260200160405190810160405280929190818152602001828054801561125757602002820191906000526020600020905b815481526020019060010190808311611243575b505050505081526020016002820154815260200160038201548152602001600482015481525050815260200190600101906111db565b50505050905090565b60606001805480602002602001604051908101604052809291908181526020016000905b8282101561128d5760008481526020908190206040805160a081019091526005850290910180546001600160a01b03168252600181018054929391929184019161130390613617565b80601f016020809104026020016040519081016040528092919081815260200182805461132f90613617565b801561137c5780601f106113515761010080835404028352916020019161137c565b820191906000526020600020905b81548152906001019060200180831161135f57829003601f168201915b505050505081526020016002820154815260200160038201805461139f90613617565b80601f01602080910402602001604051908101604052809291908181526020018280546113cb90613617565b80156114185780601f106113ed57610100808354040283529160200191611418565b820191906000526020600020905b8154815290600101906020018083116113fb57829003601f168201915b5050505050815260200160048201805461143190613617565b80601f016020809104026020016040519081016040528092919081815260200182805461145d90613617565b80156114aa5780601f1061147f576101008083540402835291602001916114aa565b820191906000526020600020905b81548152906001019060200180831161148d57829003601f168201915b505050505081525050815260200190600101906112ba565b6004602052600090815260409020805481906114dd90613617565b80601f016020809104026020016040519081016040528092919081815260200182805461150990613617565b80156115565780601f1061152b57610100808354040283529160200191611556565b820191906000526020600020905b81548152906001019060200180831161153957829003601f168201915b505050600190930154919250506001600160a01b031682565b611577612cc7565b6115816000612d22565b565b600061158d612d93565b805490915060ff600160401b820416159067ffffffffffffffff166000811580156115b55750825b905060008267ffffffffffffffff1660011480156115d25750303b155b9050811580156115e0575080155b156115fe5760405163f92ee8a960e01b815260040160405180910390fd5b845467ffffffffffffffff19166001178555831561162857845460ff60401b1916600160401b1785555b61163133612dbe565b61163961168b565b6001600055831561168457845460ff60401b19168555604051600181527fc7f505b2f371ae2175ee4913f4499e1f2633a7b5936321eed1cdaeb6115181d29060200160405180910390a15b5050505050565b611693612cc7565b6040805160c081018252600960808201908152681d57301d96541d911360bb1b60a0830152815273c638cff5173be947494207fe67b76460ebeaa23f602080830182905283518085018552601d81527fec849cec9ab8ec8b9c20eab095eb82a8eab5ac20ec97adec82bceb8f99000000818301529383019390935260016060830152600052600290915280517fd1da8ca8f339b260695aee18b6d8ac988db01c7397319e6b4a86adfb01acacbd90819061174d9082613763565b5060208201516001820180546001600160a01b0319166001600160a01b03909216919091179055604082015160028201906117889082613763565b50606082015181600301559050506040518060a0016040528073c638cff5173be947494207fe67b76460ebeaa23f6001600160a01b031681526020016040518060400160405280602081526020017fec849cec9ab8ec8b9c20eab095eb82a8eab5ac20ed858ced97a4eb9e80eba19c8152508152602001600281526020016040518060400160405280600c81526020016b0ed99a9eab888ebb098eca0960a41b81525081526020016040518060600160405280603281526020016138f760329139905273c638cff5173be947494207fe67b76460ebeaa23f6000526003602090815281517f8e1c89b3fead8a93669f80bca42c9c459a70cf9f9bc2ac488867e50ac237f67180546001600160a01b0319166001600160a01b03909216919091178155908201517f8e1c89b3fead8a93669f80bca42c9c459a70cf9f9bc2ac488867e50ac237f672906118da9082613763565b5060408201516002820155606082015160038201906118f99082613763565b506080820151600482019061190e9082613763565b509050506040518060a00160405280739206a132ae7ffa929f50ef8551c21b387f5234c76001600160a01b031681526020016040518060400160405280601d81526020017fec849cec9ab8ec8b9c20ec849cecb488eab5ac20ebb098ed8faceb8f990000008152508152602001600381526020016040518060400160405280600c81526020016beba79beb8298ebb684ec8b9d60a01b8152508152602001604051806060016040528060228152602001613b4f602291399052739206a132ae7ffa929f50ef8551c21b387f5234c76000526003602090815281517f2fe2541f3252a6e9441186d3bbc154c5ea7b7e0cbce2a6573e15f98b15b32a6a80546001600160a01b0319166001600160a01b03909216919091178155908201517f2fe2541f3252a6e9441186d3bbc154c5ea7b7e0cbce2a6573e15f98b15b32a6b90611a569082613763565b506040820151600282015560608201516003820190611a759082613763565b5060808201516004820190611a8a9082613763565b505060408051608081018252600c9181019182526b1d91549db2979d72739d74f560a31b6060820152908152731fff36faba6bd6507a08d3296ef60e4fd6b1509560208083018290526000919091526004905280519091507f1945f37ee62370e499a1865bd2a17b62a154803a62fc3b3828c65c7cabf39ac7908190611b109082613763565b5060209182015160019190910180546001600160a01b0319166001600160a01b0390921691909117905573c638cff5173be947494207fe67b76460ebeaa23f6000818152600583526040805160c081018252918252818401929092528151808301835260098152683b29e73b27a97aea6d60ba1b818501528183015281518083018352601d81527feab8b0ebb3b8ec979020ecb6a9ec8ba4ed959c20eca79cec9ea5eba9b4000000818501526060820152611b586080820152815161016081019092526101388083527f9d73629023593ab2528f17e6f1dffc9ce319c3437c0ba3ea9577a9a778d5c18b93919260a0840192909190613a17908301399052815460018082018455600093845260209384902083516006909302019182559282015192810180546001600160a01b0319166001600160a01b039094169390931790925560408101519091906002820190611c699082613763565b5060608201516003820190611c7e9082613763565b506080820151600482015560a08201516005820190611c9d9082613763565b505073c638cff5173be947494207fe67b76460ebeaa23f6000819052600560209081526040805160c0810182526001815280830193909352805180820182526006815265eca7acebbd9560d01b818401528382015280518082018252601d81527fec96bced81b0ed9598eab3a020ec8b9cec9b90ed959c20eca7acebbd9500000081840152606084015261232860808401528051610120810190915260ee8082527f9d73629023593ab2528f17e6f1dffc9ce319c3437c0ba3ea9577a9a778d5c18b945060a0840192613929908301399052815460018082018455600093845260209384902083516006909302019182559282015192810180546001600160a01b0319166001600160a01b039094169390931790925560408101519091906002820190611dca9082613763565b5060608201516003820190611ddf9082613763565b506080820151600482015560a08201516005820190611dfe9082613763565b5050739206a132ae7ffa929f50ef8551c21b387f5234c76000818152600560209081526040805160c081018252928352828201939093528251808401845260098152683ae5a87aecedbb276d60ba1b818301528284015282518084018452601d81527feba7a4ecbda4eb8bacecbda4ed959c20eab5adebafbc20eab084ec8b9d0000008183015260608301526113886080830152825161014081019093526101098084527f1653958163627abfda763d15a3b05480f6046276a44266f63d93e403b829f40c9450919260a08401929091613b71908301399052815460018082018455600093845260209384902083516006909302019182559282015192810180546001600160a01b0319166001600160a01b039094169390931790925560408101519091906002820190611f329082613763565b5060608201516003820190611f479082613763565b506080820151600482015560a08201516005820190611f669082613763565b5050739206a132ae7ffa929f50ef8551c21b387f5234c76000819052600560209081526040805160c0810182526001815280830193909352805180820182526006815265eab980ebb0a560d01b818401528382015280518082018252601f81527fec868dec9db420eabd8920ecb0ac20eba79bec9e88eb8a9420eab980ebb0a500818401526060840152610bb860808401528051610120810190915260fe8082527f1653958163627abfda763d15a3b05480f6046276a44266f63d93e403b829f40c945060a0840192613c7a908301399052815460018082018455600093845260209384902083516006909302019182559282015192810180546001600160a01b0319166001600160a01b0390941693909317909255604081015190919060028201906120939082613763565b50606082015160038201906120a89082613763565b506080820151600482015560a082015160058201906120c79082613763565b5050739206a132ae7ffa929f50ef8551c21b387f5234c76000819052600560209081526040805160c08082018352600282528184019490945281518083018352600681526501d91139d71960d71b818501528183015281518083018352601d81527fecab84eab983ed9598eab3a020eab3a0ec868ced959c20ec889ceb8c80000000818501526060820152610fa060808201528151938401909152608d8084527f1653958163627abfda763d15a3b05480f6046276a44266f63d93e403b829f40c9450909260a0840192909190613d78908301399052815460018082018455600093845260209384902083516006909302019182559282015192810180546001600160a01b0319166001600160a01b0390941693909317909255604081015190919060028201906121f89082613763565b506060820151600382019061220d9082613763565b506080820151600482015560a0820151600582019061222c9082613763565b505050565b6007818154811061224157600080fd5b60009182526020909120600590910201805460028201546003830154600490930154919350919084565b6005602052816000526040600020818154811061228757600080fd5b60009182526020909120600690910201805460018201546002830180549295506001600160a01b039091169350906122be90613617565b80601f01602080910402602001604051908101604052809291908181526020018280546122ea90613617565b80156123375780601f1061230c57610100808354040283529160200191612337565b820191906000526020600020905b81548152906001019060200180831161231a57829003601f168201915b50505050509080600301805461234c90613617565b80601f016020809104026020016040519081016040528092919081815260200182805461237890613617565b80156123c55780601f1061239a576101008083540402835291602001916123c5565b820191906000526020600020905b8154815290600101906020018083116123a857829003601f168201915b5050505050908060040154908060050180546123e090613617565b80601f016020809104026020016040519081016040528092919081815260200182805461240c90613617565b80156124595780601f1061242e57610100808354040283529160200191612459565b820191906000526020600020905b81548152906001019060200180831161243c57829003601f168201915b5050505050905086565b6009818154811061247357600080fd5b6000918252602090912060059091020180546001820154600283015460038401546004909401549294506001600160a01b03918216939082169291169085565b600a81815481106124c357600080fd5b600091825260209091200154905081565b33600982815481106124e8576124e8613651565b906000526020600020906005020160030160006101000a8154816001600160a01b0302191690836001600160a01b031602179055507fdfd4d584997a4c1e1c13bdc96fb26600c45060eb1eb1a1e8479ea76d55392142816009838154811061255257612552613651565b60009182526020918290206005909102015460408051938452918301520160405180910390a150565b33600090815260036020819052604090912001805461259990613617565b1590506125e85760405162461bcd60e51b815260206004820152601860248201527f53746f726520616c7265616479207265676973746572656400000000000000006044820152606401610622565b6040518060a00160405280336001600160a01b0316815260200184848080601f016020809104026020016040519081016040528093929190818152602001838380828437600092019190915250505090825250602080820184905260408051601f8b0183900483028101830182528a8152920191908a908a9081908401838280828437600092019190915250505090825250604080516020601f8901819004810282018101909252878152918101919088908890819084018382808284376000920182905250939094525050338152600360209081526040909120835181546001600160a01b0319166001600160a01b039091161781559083015190915060018201906126f59082613763565b5060408201516002820155606082015160038201906127149082613763565b50608082015160048201906127299082613763565b505033600090815260036020526040812060018054808201825592819052815460059093027fb10e2d527612073b26eecdfd717e6a320cf44b4afac2b0732d9fcbe2b7fa0cf6810180546001600160a01b0319166001600160a01b03959095169490941784559193507fb10e2d527612073b26eecdfd717e6a320cf44b4afac2b0732d9fcbe2b7fa0cf7909101906127c390840182613823565b5060028201548160020155600382018160030190816127e29190613823565b506004818101906127f590840182613823565b50505050505050505050565b33600090815260036020819052604090912001805461281f90613617565b90506000036128635760405162461bcd60e51b815260206004820152601060248201526f4e6f7420666f756e642073746f72657360801b6044820152606401610622565b33600081815260056020908152604091829020825160c08101845281548152808301949094528251601f8b0183900483028101830184528a81529093928301918b908b9081908401838280828437600092019190915250505090825250604080516020601f8a0181900481028201810190925288815291810191908990899081908401838280828437600092019190915250505090825250602080820187905260408051601f87018390048302810183018252868152920191908690869081908401838280828437600092018290525093909452505083546001808201865594825260209182902084516006909202019081559083015193810180546001600160a01b0319166001600160a01b039095169490941790935550604081015190919060028201906129939082613763565b50606082015160038201906129a89082613763565b506080820151600482015560a082015160058201906127f59082613763565b6001600160a01b0381166000908152600560209081526040808320805482518185028101850190935280835260609492939192909184015b82821015612c115760008481526020908190206040805160c081018252600686029092018054835260018101546001600160a01b03169383019390935260028301805492939291840191612a5290613617565b80601f0160208091040260200160405190810160405280929190818152602001828054612a7e90613617565b8015612acb5780601f10612aa057610100808354040283529160200191612acb565b820191906000526020600020905b815481529060010190602001808311612aae57829003601f168201915b50505050508152602001600382018054612ae490613617565b80601f0160208091040260200160405190810160405280929190818152602001828054612b1090613617565b8015612b5d5780601f10612b3257610100808354040283529160200191612b5d565b820191906000526020600020905b815481529060010190602001808311612b4057829003601f168201915b5050505050815260200160048201548152602001600582018054612b8090613617565b80601f0160208091040260200160405190810160405280929190818152602001828054612bac90613617565b8015612bf95780601f10612bce57610100808354040283529160200191612bf9565b820191906000526020600020905b815481529060010190602001808311612bdc57829003601f168201915b505050505081525050815260200190600101906129ff565b505050509050919050565b60018181548110612c2c57600080fd5b6000918252602090912060059091020180546001820180546001600160a01b0390921693509061100790613617565b60066020528160005260406000208181548110612c7757600080fd5b90600052602060002001600091509150505481565b612c94612cc7565b6001600160a01b038116612cbe57604051631e4fbdf760e01b815260006004820152602401610622565b6103b081612d22565b33612cf97f9016d09d72d40fdae2fd8ceac6b6234c7706214fd39c1cd1e609a0528c199300546001600160a01b031690565b6001600160a01b0316146115815760405163118cdaa760e01b8152336004820152602401610622565b7f9016d09d72d40fdae2fd8ceac6b6234c7706214fd39c1cd1e609a0528c19930080546001600160a01b031981166001600160a01b03848116918217845560405192169182907f8be0079c531659141344cd1fd0a4f28419497f9722a3daafe3b4186f6b6457e090600090a3505050565b6000807ff0c57e16840df040f15088dc2f81fe391c3923bec73e23a9662efc9c229c6a005b92915050565b612dc6612dcf565b6103b081612df4565b612dd7612dfc565b61158157604051631afcd79f60e31b815260040160405180910390fd5b612c94612dcf565b6000612e06612d93565b54600160401b900460ff16919050565b828054828255906000526020600020908101928215612e51579160200282015b82811115612e51578251825591602001919060010190612e36565b50612e5d929150612ea1565b5090565b828054828255906000526020600020908101928215612e515760005260206000209182015b82811115612e51578254825591600101919060010190612e86565b5b80821115612e5d5760008155600101612ea2565b80356001600160a01b0381168114612ecd57600080fd5b919050565b600060208284031215612ee457600080fd5b612eed82612eb6565b9392505050565b634e487b7160e01b600052604160045260246000fd5b60008060408385031215612f1d57600080fd5b612f2683612eb6565b915060208084013567ffffffffffffffff80821115612f4457600080fd5b818601915086601f830112612f5857600080fd5b813581811115612f6a57612f6a612ef4565b8060051b604051601f19603f83011681018181108582111715612f8f57612f8f612ef4565b604052918252848201925083810185019189831115612fad57600080fd5b938501935b82851015612fcb57843584529385019392850192612fb2565b8096505050505050509250929050565b6000815180845260005b8181101561300157602081850181015186830182015201612fe5565b506000602082860101526020601f19601f83011685010191505092915050565b6080815260006130346080830187612fdb565b6001600160a01b038616602084015282810360408401526130558186612fdb565b91505082606083015295945050505050565b60008083601f84011261307957600080fd5b50813567ffffffffffffffff81111561309157600080fd5b6020830191508360208285010111156130a957600080fd5b9250929050565b600080602083850312156130c357600080fd5b823567ffffffffffffffff8111156130da57600080fd5b6130e685828601613067565b90969095509350505050565b6000806040838503121561310557600080fd5b61310e83612eb6565b946020939093013593505050565b60008060008060006060868803121561313457600080fd5b853567ffffffffffffffff8082111561314c57600080fd5b61315889838a01613067565b9097509550602088013591508082111561317157600080fd5b5061317e88828901613067565b96999598509660400135949350505050565b6001600160a01b038616815260a0602082018190526000906131b490830187612fdb565b85604084015282810360608401526131cc8186612fdb565b905082810360808401526131e08185612fdb565b98975050505050505050565b60006020808301818452808551808352604092508286019150828160051b8701018488016000805b8481101561329a57898403603f190186528251805185528881015160a08a8701819052815190870181905260c08701918b019085905b8082101561326a5782518452928c0192918c01916001919091019061324a565b50505081890151868a01526060808301519087015260809182015191909501529487019491870191600101613214565b50919998505050505050505050565b60006020808301818452808551808352604092508286019150828160051b87010184880160005b8381101561335d57888303603f19018552815180516001600160a01b031684528781015160a08986018190529061330982870182612fdb565b91505087820151888601526060808301518683038288015261332b8382612fdb565b92505050608080830151925085820381870152506133498183612fdb565b9689019694505050908601906001016132d0565b509098975050505050505050565b60408152600061337e6040830185612fdb565b905060018060a01b03831660208301529392505050565b6000602082840312156133a757600080fd5b5035919050565b8681526001600160a01b038616602082015260c0604082018190526000906133d890830187612fdb565b82810360608401526133ea8187612fdb565b905084608084015282810360a08401526134048185612fdb565b9998505050505050505050565b60008060008060008060006080888a03121561342c57600080fd5b873567ffffffffffffffff8082111561344457600080fd5b6134508b838c01613067565b909950975060208a013591508082111561346957600080fd5b6134758b838c01613067565b909750955060408a013591508082111561348e57600080fd5b5061349b8a828b01613067565b989b979a50959894979596606090950135949350505050565b60008060008060008060006080888a0312156134cf57600080fd5b873567ffffffffffffffff808211156134e757600080fd5b6134f38b838c01613067565b909950975060208a013591508082111561350c57600080fd5b6135188b838c01613067565b909750955060408a0135945060608a013591508082111561353857600080fd5b506135458a828b01613067565b989b979a50959850939692959293505050565b60006020808301818452808551808352604092508286019150828160051b87010184880160005b8381101561335d57888303603f19018552815180518452878101516001600160a01b0316888501528681015160c0888601819052906135c082870182612fdb565b915050606080830151868303828801526135da8382612fdb565b92505050608080830151818701525060a080830151925085820381870152506136038183612fdb565b96890196945050509086019060010161357f565b600181811c9082168061362b57607f821691505b60208210810361364b57634e487b7160e01b600052602260045260246000fd5b50919050565b634e487b7160e01b600052603260045260246000fd5b634e487b7160e01b600052601160045260246000fd5b808201828112600083128015821682158216171561369d5761369d613667565b505092915050565b6000600182016136b7576136b7613667565b5060010190565b81810360008312801583831316838312821617156136de576136de613667565b5092915050565b80820260008212600160ff1b8414161561370157613701613667565b8181058314821517612db857612db8613667565b601f82111561222c57600081815260208120601f850160051c8101602086101561373c5750805b601f850160051c820191505b8181101561375b57828155600101613748565b505050505050565b815167ffffffffffffffff81111561377d5761377d612ef4565b6137918161378b8454613617565b84613715565b602080601f8311600181146137c657600084156137ae5750858301515b600019600386901b1c1916600185901b17855561375b565b600085815260208120601f198616915b828110156137f5578886015182559484019460019091019084016137d6565b50858210156138135787850151600019600388901b60f8161c191681555b5050505050600190811b01905550565b81810361382e575050565b6138388254613617565b67ffffffffffffffff81111561385057613850612ef4565b61385e8161378b8454613617565b6000601f821160018114613892576000831561387a5750848201545b600019600385901b1c1916600184901b178455611684565b600085815260209020601f19841690600086815260209020845b838110156138cc57828601548255600195860195909101906020016138ac565b50858310156138135793015460001960f8600387901b161c19169092555050600190811b0190555056feeca084ed86b520eca491ed9994ec9a94eba6ac20eca084ebacb8eca0902c203330eb858420eb82b4eab3b5ec9d9820eba79b68747470733a2f2f7365617263682e707374617469632e6e65742f636f6d6d6f6e2f3f7372633d68747470253341253246253246626c6f6766696c65732e6e617665722e6e65742532464d6a41794e4445794d545a664d5463782532464d4441784e7a4d304d7a41324e6a59774f4459772e685132684f6e69477969556658715f4a795a546b55366b7571433071703053426166764a74576431734b30672e4e763351436c684c7949307865682d69773467474b726a362d4d3074753634453568784471755543795049672e4a504547253246494d475f353839392e6a706726747970653d73633936305f38333268747470733a2f2f7365617263682e707374617469632e6e65742f636f6d6d6f6e2f3f7372633d68747470253341253246253246626c6f6766696c65732e6e617665722e6e65742532464d6a41794e5441304d6a6c664d544d312532464d4441784e7a51314f5441774d5451304e6a6b322e597442545551557751566e55424c456f6d67722d506767546f6454736e613654684362564b525768473467672e74743862503134734b4f3931556939395930474255394e7a4647464463534a724c705f4c744c3945795930672e504e47253246436861744750545f496d6167655f32303235253235423325323545325f34253235424625323546395f3239253235433025323543465f25323542462532354330253235433825323543345f30315f31345f30382e706e6726747970653d73633936305f383332ecb694ec96b5ec9d9820eba79b2c20eb96a1ebb3b6ec9db4ec998020eab980ebb0a568747470733a2f2f7365617263682e707374617469632e6e65742f636f6d6d6f6e2f3f7372633d68747470253341253246253246626c6f6766696c65732e6e617665722e6e65742532464d6a41794e5441314d4446664e4463672532464d4441784e7a51324d4451334f4467354f4459312e42626b6c4350354855415a7766646f4c4d4335766e636c644565336e58746b4d4b5879305f555075495134672e366637784f74534442424b53662d2d434d50394c4259564f4b44375644392d54594662567a4a763533306f672e504e4725324663623931346265622d613230622d343963362d626565652d3662626564656135646465312e706e6726747970653d73633936305f38333268747470733a2f2f7365617263682e707374617469632e6e65742f636f6d6d6f6e2f3f7372633d68747470253341253246253246626c6f6766696c65732e6e617665722e6e65742532464d6a41794e4445794d6a46664d6a45312532464d4441784e7a4d304e7a67774e7a45314f544d342e757377394156566e48787a465356735249663863756e6e6e726372506c703468374b625f325132794b6473672e35756736525735795f70357864484b61686f72476d73304f5441636559304b67686f6f623971737a6a4e4d672e4a50454725324625323542312532354538253235423925323545345f3032342e6a706726747970653d73633936305f38333268747470733a2f2f7365617263682e707374617469632e6e65742f636f6d6d6f6e2f3f7372633d6874747025334125324625324673686f7070696e672e7068696e662e6e617665722e6e65742532466d61696e5f3533333034343125324635333330343431313939332e332e32303235303330363130343635322e6a706726747970653d73633936305f383332a2646970667358221220d18fca528c1872fce554363216f80f78dce417e9ac2410fe882cba7b6a399baa64736f6c63430008140033",
  "devdoc": {
    "errors": {
      "InvalidInitialization()": [
        {
          "details": "The contract is already initialized."
        }
      ],
      "NotInitializing()": [
        {
          "details": "The contract is not initializing."
        }
      ],
      "OwnableInvalidOwner(address)": [
        {
          "details": "The owner is not a valid owner account. (eg. `address(0)`)"
        }
      ],
      "OwnableUnauthorizedAccount(address)": [
        {
          "details": "The caller account is not authorized to perform an operation."
        }
      ]
    },
    "events": {
      "Initialized(uint64)": {
        "details": "Triggered when the contract has been initialized or reinitialized."
      }
    },
    "kind": "dev",
    "methods": {
      "owner()": {
        "details": "Returns the address of the current owner."
      },
      "renounceOwnership()": {
        "details": "Leaves the contract without owner. It will not be possible to call `onlyOwner` functions. Can only be called by the current owner. NOTE: Renouncing ownership will leave the contract without an owner, thereby disabling any functionality that is only available to the owner."
      },
      "transferOwnership(address)": {
        "details": "Transfers ownership of the contract to a new account (`newOwner`). Can only be called by the current owner."
      }
    },
    "version": 1
  },
  "userdoc": {
    "kind": "user",
    "methods": {},
    "version": 1
  },
  "storageLayout": {
    "storage": [
      {
        "astId": 584,
        "contract": "contracts/Protocol.sol:Protocol",
        "label": "wti_price",
        "offset": 0,
        "slot": "0",
        "type": "t_uint256"
      },
      {
        "astId": 588,
        "contract": "contracts/Protocol.sol:Protocol",
        "label": "stores",
        "offset": 0,
        "slot": "1",
        "type": "t_array(t_struct(Store)535_storage)dyn_storage"
      },
      {
        "astId": 593,
        "contract": "contracts/Protocol.sol:Protocol",
        "label": "userMap",
        "offset": 0,
        "slot": "2",
        "type": "t_mapping(t_address,t_struct(User)524_storage)"
      },
      {
        "astId": 598,
        "contract": "contracts/Protocol.sol:Protocol",
        "label": "storeMap",
        "offset": 0,
        "slot": "3",
        "type": "t_mapping(t_address,t_struct(Store)535_storage)"
      },
      {
        "astId": 603,
        "contract": "contracts/Protocol.sol:Protocol",
        "label": "deliverMap",
        "offset": 0,
        "slot": "4",
        "type": "t_mapping(t_address,t_struct(Deliver)565_storage)"
      },
      {
        "astId": 609,
        "contract": "contracts/Protocol.sol:Protocol",
        "label": "storeMenuMap",
        "offset": 0,
        "slot": "5",
        "type": "t_mapping(t_address,t_array(t_struct(Menu)548_storage)dyn_storage)"
      },
      {
        "astId": 614,
        "contract": "contracts/Protocol.sol:Protocol",
        "label": "userOrderMap",
        "offset": 0,
        "slot": "6",
        "type": "t_mapping(t_address,t_array(t_uint256)dyn_storage)"
      },
      {
        "astId": 618,
        "contract": "contracts/Protocol.sol:Protocol",
        "label": "orders",
        "offset": 0,
        "slot": "7",
        "type": "t_array(t_struct(Order)560_storage)dyn_storage"
      },
      {
        "astId": 624,
        "contract": "contracts/Protocol.sol:Protocol",
        "label": "orderMap",
        "offset": 0,
        "slot": "8",
        "type": "t_mapping(t_address,t_array(t_struct(Order)560_storage)dyn_storage)"
      },
      {
        "astId": 628,
        "contract": "contracts/Protocol.sol:Protocol",
        "label": "deliveryRequests",
        "offset": 0,
        "slot": "9",
        "type": "t_array(t_struct(Delivery_Request)576_storage)dyn_storage"
      },
      {
        "astId": 631,
        "contract": "contracts/Protocol.sol:Protocol",
        "label": "pending_delivery",
        "offset": 0,
        "slot": "10",
        "type": "t_array(t_uint256)dyn_storage"
      }
    ],
    "types": {
      "t_address": {
        "encoding": "inplace",
        "label": "address",
        "numberOfBytes": "20"
      },
      "t_array(t_struct(Delivery_Request)576_storage)dyn_storage": {
        "base": "t_struct(Delivery_Request)576_storage",
        "encoding": "dynamic_array",
        "label": "struct Delivery_Request[]",
        "numberOfBytes": "32"
      },
      "t_array(t_struct(Menu)548_storage)dyn_storage": {
        "base": "t_struct(Menu)548_storage",
        "encoding": "dynamic_array",
        "label": "struct Menu[]",
        "numberOfBytes": "32"
      },
      "t_array(t_struct(Order)560_storage)dyn_storage": {
        "base": "t_struct(Order)560_storage",
        "encoding": "dynamic_array",
        "label": "struct Order[]",
        "numberOfBytes": "32"
      },
      "t_array(t_struct(Store)535_storage)dyn_storage": {
        "base": "t_struct(Store)535_storage",
        "encoding": "dynamic_array",
        "label": "struct Store[]",
        "numberOfBytes": "32"
      },
      "t_array(t_uint256)dyn_storage": {
        "base": "t_uint256",
        "encoding": "dynamic_array",
        "label": "uint256[]",
        "numberOfBytes": "32"
      },
      "t_int256": {
        "encoding": "inplace",
        "label": "int256",
        "numberOfBytes": "32"
      },
      "t_mapping(t_address,t_array(t_struct(Menu)548_storage)dyn_storage)": {
        "encoding": "mapping",
        "key": "t_address",
        "label": "mapping(address => struct Menu[])",
        "numberOfBytes": "32",
        "value": "t_array(t_struct(Menu)548_storage)dyn_storage"
      },
      "t_mapping(t_address,t_array(t_struct(Order)560_storage)dyn_storage)": {
        "encoding": "mapping",
        "key": "t_address",
        "label": "mapping(address => struct Order[])",
        "numberOfBytes": "32",
        "value": "t_array(t_struct(Order)560_storage)dyn_storage"
      },
      "t_mapping(t_address,t_array(t_uint256)dyn_storage)": {
        "encoding": "mapping",
        "key": "t_address",
        "label": "mapping(address => uint256[])",
        "numberOfBytes": "32",
        "value": "t_array(t_uint256)dyn_storage"
      },
      "t_mapping(t_address,t_struct(Deliver)565_storage)": {
        "encoding": "mapping",
        "key": "t_address",
        "label": "mapping(address => struct Deliver)",
        "numberOfBytes": "32",
        "value": "t_struct(Deliver)565_storage"
      },
      "t_mapping(t_address,t_struct(Store)535_storage)": {
        "encoding": "mapping",
        "key": "t_address",
        "label": "mapping(address => struct Store)",
        "numberOfBytes": "32",
        "value": "t_struct(Store)535_storage"
      },
      "t_mapping(t_address,t_struct(User)524_storage)": {
        "encoding": "mapping",
        "key": "t_address",
        "label": "mapping(address => struct User)",
        "numberOfBytes": "32",
        "value": "t_struct(User)524_storage"
      },
      "t_string_storage": {
        "encoding": "bytes",
        "label": "string",
        "numberOfBytes": "32"
      },
      "t_struct(Deliver)565_storage": {
        "encoding": "inplace",
        "label": "struct Deliver",
        "members": [
          {
            "astId": 562,
            "contract": "contracts/Protocol.sol:Protocol",
            "label": "name",
            "offset": 0,
            "slot": "0",
            "type": "t_string_storage"
          },
          {
            "astId": 564,
            "contract": "contracts/Protocol.sol:Protocol",
            "label": "addr",
            "offset": 0,
            "slot": "1",
            "type": "t_address"
          }
        ],
        "numberOfBytes": "64"
      },
      "t_struct(Delivery_Request)576_storage": {
        "encoding": "inplace",
        "label": "struct Delivery_Request",
        "members": [
          {
            "astId": 567,
            "contract": "contracts/Protocol.sol:Protocol",
            "label": "index",
            "offset": 0,
            "slot": "0",
            "type": "t_uint256"
          },
          {
            "astId": 569,
            "contract": "contracts/Protocol.sol:Protocol",
            "label": "user_addr",
            "offset": 0,
            "slot": "1",
            "type": "t_address"
          },
          {
            "astId": 571,
            "contract": "contracts/Protocol.sol:Protocol",
            "label": "store_addr",
            "offset": 0,
            "slot": "2",
            "type": "t_address"
          },
          {
            "astId": 573,
            "contract": "contracts/Protocol.sol:Protocol",
            "label": "deliver_addr",
            "offset": 0,
            "slot": "3",
            "type": "t_address"
          },
          {
            "astId": 575,
            "contract": "contracts/Protocol.sol:Protocol",
            "label": "order_index",
            "offset": 0,
            "slot": "4",
            "type": "t_uint256"
          }
        ],
        "numberOfBytes": "160"
      },
      "t_struct(Menu)548_storage": {
        "encoding": "inplace",
        "label": "struct Menu",
        "members": [
          {
            "astId": 537,
            "contract": "contracts/Protocol.sol:Protocol",
            "label": "index",
            "offset": 0,
            "slot": "0",
            "type": "t_uint256"
          },
          {
            "astId": 539,
            "contract": "contracts/Protocol.sol:Protocol",
            "label": "store_address",
            "offset": 0,
            "slot": "1",
            "type": "t_address"
          },
          {
            "astId": 541,
            "contract": "contracts/Protocol.sol:Protocol",
            "label": "name",
            "offset": 0,
            "slot": "2",
            "type": "t_string_storage"
          },
          {
            "astId": 543,
            "contract": "contracts/Protocol.sol:Protocol",
            "label": "description",
            "offset": 0,
            "slot": "3",
            "type": "t_string_storage"
          },
          {
            "astId": 545,
            "contract": "contracts/Protocol.sol:Protocol",
            "label": "price",
            "offset": 0,
            "slot": "4",
            "type": "t_int256"
          },
          {
            "astId": 547,
            "contract": "contracts/Protocol.sol:Protocol",
            "label": "image_url",
            "offset": 0,
            "slot": "5",
            "type": "t_string_storage"
          }
        ],
        "numberOfBytes": "192"
      },
      "t_struct(Order)560_storage": {
        "encoding": "inplace",
        "label": "struct Order",
        "members": [
          {
            "astId": 550,
            "contract": "contracts/Protocol.sol:Protocol",
            "label": "index",
            "offset": 0,
            "slot": "0",
            "type": "t_uint256"
          },
          {
            "astId": 553,
            "contract": "contracts/Protocol.sol:Protocol",
            "label": "menu",
            "offset": 0,
            "slot": "1",
            "type": "t_array(t_uint256)dyn_storage"
          },
          {
            "astId": 555,
            "contract": "contracts/Protocol.sol:Protocol",
            "label": "total_price",
            "offset": 0,
            "slot": "2",
            "type": "t_int256"
          },
          {
            "astId": 557,
            "contract": "contracts/Protocol.sol:Protocol",
            "label": "request_index",
            "offset": 0,
            "slot": "3",
            "type": "t_uint256"
          },
          {
            "astId": 559,
            "contract": "contracts/Protocol.sol:Protocol",
            "label": "delivery_fee",
            "offset": 0,
            "slot": "4",
            "type": "t_int256"
          }
        ],
        "numberOfBytes": "160"
      },
      "t_struct(Store)535_storage": {
        "encoding": "inplace",
        "label": "struct Store",
        "members": [
          {
            "astId": 526,
            "contract": "contracts/Protocol.sol:Protocol",
            "label": "addr",
            "offset": 0,
            "slot": "0",
            "type": "t_address"
          },
          {
            "astId": 528,
            "contract": "contracts/Protocol.sol:Protocol",
            "label": "location",
            "offset": 0,
            "slot": "1",
            "type": "t_string_storage"
          },
          {
            "astId": 530,
            "contract": "contracts/Protocol.sol:Protocol",
            "label": "pos",
            "offset": 0,
            "slot": "2",
            "type": "t_int256"
          },
          {
            "astId": 532,
            "contract": "contracts/Protocol.sol:Protocol",
            "label": "name",
            "offset": 0,
            "slot": "3",
            "type": "t_string_storage"
          },
          {
            "astId": 534,
            "contract": "contracts/Protocol.sol:Protocol",
            "label": "description",
            "offset": 0,
            "slot": "4",
            "type": "t_string_storage"
          }
        ],
        "numberOfBytes": "160"
      },
      "t_struct(User)524_storage": {
        "encoding": "inplace",
        "label": "struct User",
        "members": [
          {
            "astId": 517,
            "contract": "contracts/Protocol.sol:Protocol",
            "label": "name",
            "offset": 0,
            "slot": "0",
            "type": "t_string_storage"
          },
          {
            "astId": 519,
            "contract": "contracts/Protocol.sol:Protocol",
            "label": "addr",
            "offset": 0,
            "slot": "1",
            "type": "t_address"
          },
          {
            "astId": 521,
            "contract": "contracts/Protocol.sol:Protocol",
            "label": "location",
            "offset": 0,
            "slot": "2",
            "type": "t_string_storage"
          },
          {
            "astId": 523,
            "contract": "contracts/Protocol.sol:Protocol",
            "label": "pos",
            "offset": 0,
            "slot": "3",
            "type": "t_int256"
          }
        ],
        "numberOfBytes": "128"
      },
      "t_uint256": {
        "encoding": "inplace",
        "label": "uint256",
        "numberOfBytes": "32"
      }
    }
  }
}