{
  "_format": "hh-sol-artifact-1",
  "contractName": "SponsoredRaffle",
  "sourceName": "contracts/SponsoredRaffle.sol",
  "abi": [
    {
      "inputs": [
        {
          "internalType": "address",
          "name": "owner_",
          "type": "address"
        },
        {
          "internalType": "address",
          "name": "operator_",
          "type": "address"
        },
        {
          "internalType": "uint256",
          "name": "winnersCount_",
          "type": "uint256"
        }
      ],
      "stateMutability": "nonpayable",
      "type": "constructor"
    },
    {
      "inputs": [],
      "name": "ECDSAInvalidSignature",
      "type": "error"
    },
    {
      "inputs": [
        {
          "internalType": "uint256",
          "name": "length",
          "type": "uint256"
        }
      ],
      "name": "ECDSAInvalidSignatureLength",
      "type": "error"
    },
    {
      "inputs": [
        {
          "internalType": "bytes32",
          "name": "s",
          "type": "bytes32"
        }
      ],
      "name": "ECDSAInvalidSignatureS",
      "type": "error"
    },
    {
      "inputs": [],
      "name": "InvalidShortString",
      "type": "error"
    },
    {
      "inputs": [
        {
          "internalType": "address",
          "name": "owner",
          "type": "address"
        }
      ],
      "name": "OwnableInvalidOwner",
      "type": "error"
    },
    {
      "inputs": [
        {
          "internalType": "address",
          "name": "account",
          "type": "address"
        }
      ],
      "name": "OwnableUnauthorizedAccount",
      "type": "error"
    },
    {
      "inputs": [],
      "name": "ReentrancyGuardReentrantCall",
      "type": "error"
    },
    {
      "inputs": [
        {
          "internalType": "string",
          "name": "str",
          "type": "string"
        }
      ],
      "name": "StringTooLong",
      "type": "error"
    },
    {
      "anonymous": false,
      "inputs": [],
      "name": "EIP712DomainChanged",
      "type": "event"
    },
    {
      "anonymous": false,
      "inputs": [
        {
          "indexed": true,
          "internalType": "address",
          "name": "user",
          "type": "address"
        },
        {
          "indexed": true,
          "internalType": "uint256",
          "name": "raffleId",
          "type": "uint256"
        },
        {
          "indexed": false,
          "internalType": "uint256",
          "name": "totalEntrants",
          "type": "uint256"
        }
      ],
      "name": "Entered",
      "type": "event"
    },
    {
      "anonymous": false,
      "inputs": [
        {
          "indexed": true,
          "internalType": "uint256",
          "name": "raffleId",
          "type": "uint256"
        },
        {
          "indexed": false,
          "internalType": "uint256",
          "name": "totalEntrants",
          "type": "uint256"
        }
      ],
      "name": "Locked",
      "type": "event"
    },
    {
      "anonymous": false,
      "inputs": [
        {
          "indexed": true,
          "internalType": "uint256",
          "name": "raffleId",
          "type": "uint256"
        },
        {
          "indexed": false,
          "internalType": "uint256",
          "name": "winnersCount",
          "type": "uint256"
        }
      ],
      "name": "NewRound",
      "type": "event"
    },
    {
      "anonymous": false,
      "inputs": [
        {
          "indexed": true,
          "internalType": "address",
          "name": "previousOwner",
          "type": "address"
        },
        {
          "indexed": true,
          "internalType": "address",
          "name": "newOwner",
          "type": "address"
        }
      ],
      "name": "OwnershipTransferred",
      "type": "event"
    },
    {
      "anonymous": false,
      "inputs": [
        {
          "indexed": true,
          "internalType": "uint256",
          "name": "requestId",
          "type": "uint256"
        }
      ],
      "name": "RandomnessRequested",
      "type": "event"
    },
    {
      "anonymous": false,
      "inputs": [
        {
          "indexed": true,
          "internalType": "uint256",
          "name": "raffleId",
          "type": "uint256"
        },
        {
          "indexed": false,
          "internalType": "uint256",
          "name": "requestId",
          "type": "uint256"
        }
      ],
      "name": "VRFRequested",
      "type": "event"
    },
    {
      "anonymous": false,
      "inputs": [
        {
          "indexed": true,
          "internalType": "uint256",
          "name": "raffleId",
          "type": "uint256"
        },
        {
          "indexed": false,
          "internalType": "address[]",
          "name": "winners",
          "type": "address[]"
        }
      ],
      "name": "WinnersDrawn",
      "type": "event"
    },
    {
      "inputs": [],
      "name": "eip712Domain",
      "outputs": [
        {
          "internalType": "bytes1",
          "name": "fields",
          "type": "bytes1"
        },
        {
          "internalType": "string",
          "name": "name",
          "type": "string"
        },
        {
          "internalType": "string",
          "name": "version",
          "type": "string"
        },
        {
          "internalType": "uint256",
          "name": "chainId",
          "type": "uint256"
        },
        {
          "internalType": "address",
          "name": "verifyingContract",
          "type": "address"
        },
        {
          "internalType": "bytes32",
          "name": "salt",
          "type": "bytes32"
        },
        {
          "internalType": "uint256[]",
          "name": "extensions",
          "type": "uint256[]"
        }
      ],
      "stateMutability": "view",
      "type": "function"
    },
    {
      "inputs": [
        {
          "internalType": "address",
          "name": "user",
          "type": "address"
        },
        {
          "internalType": "uint256",
          "name": "nonce",
          "type": "uint256"
        },
        {
          "internalType": "uint256",
          "name": "deadline",
          "type": "uint256"
        },
        {
          "internalType": "bytes",
          "name": "signature",
          "type": "bytes"
        }
      ],
      "name": "enterWithSig",
      "outputs": [],
      "stateMutability": "nonpayable",
      "type": "function"
    },
    {
      "inputs": [
        {
          "internalType": "uint256",
          "name": "",
          "type": "uint256"
        },
        {
          "internalType": "address",
          "name": "",
          "type": "address"
        }
      ],
      "name": "entered",
      "outputs": [
        {
          "internalType": "bool",
          "name": "",
          "type": "bool"
        }
      ],
      "stateMutability": "view",
      "type": "function"
    },
    {
      "inputs": [],
      "name": "entrantsAll",
      "outputs": [
        {
          "internalType": "address[]",
          "name": "",
          "type": "address[]"
        }
      ],
      "stateMutability": "view",
      "type": "function"
    },
    {
      "inputs": [],
      "name": "entrantsCount",
      "outputs": [
        {
          "internalType": "uint256",
          "name": "",
          "type": "uint256"
        }
      ],
      "stateMutability": "view",
      "type": "function"
    },
    {
      "inputs": [
        {
          "internalType": "uint256",
          "name": "requestId",
          "type": "uint256"
        },
        {
          "internalType": "uint256",
          "name": "randomness",
          "type": "uint256"
        }
      ],
      "name": "fulfillRandomness",
      "outputs": [],
      "stateMutability": "nonpayable",
      "type": "function"
    },
    {
      "inputs": [],
      "name": "lastRequestId",
      "outputs": [
        {
          "internalType": "uint64",
          "name": "",
          "type": "uint64"
        }
      ],
      "stateMutability": "view",
      "type": "function"
    },
    {
      "inputs": [],
      "name": "lock",
      "outputs": [],
      "stateMutability": "nonpayable",
      "type": "function"
    },
    {
      "inputs": [
        {
          "internalType": "uint256",
          "name": "newWinnersCount",
          "type": "uint256"
        }
      ],
      "name": "newRound",
      "outputs": [],
      "stateMutability": "nonpayable",
      "type": "function"
    },
    {
      "inputs": [
        {
          "internalType": "address",
          "name": "",
          "type": "address"
        }
      ],
      "name": "nonces",
      "outputs": [
        {
          "internalType": "uint256",
          "name": "",
          "type": "uint256"
        }
      ],
      "stateMutability": "view",
      "type": "function"
    },
    {
      "inputs": [],
      "name": "operator",
      "outputs": [
        {
          "internalType": "address",
          "name": "",
          "type": "address"
        }
      ],
      "stateMutability": "view",
      "type": "function"
    },
    {
      "inputs": [],
      "name": "owner",
      "outputs": [
        {
          "internalType": "address",
          "name": "",
          "type": "address"
        }
      ],
      "stateMutability": "view",
      "type": "function"
    },
    {
      "inputs": [],
      "name": "phase",
      "outputs": [
        {
          "internalType": "enum SponsoredRaffle.Phase",
          "name": "",
          "type": "uint8"
        }
      ],
      "stateMutability": "view",
      "type": "function"
    },
    {
      "inputs": [],
      "name": "raffleId",
      "outputs": [
        {
          "internalType": "uint256",
          "name": "",
          "type": "uint256"
        }
      ],
      "stateMutability": "view",
      "type": "function"
    },
    {
      "inputs": [],
      "name": "randomWord",
      "outputs": [
        {
          "internalType": "uint256",
          "name": "",
          "type": "uint256"
        }
      ],
      "stateMutability": "view",
      "type": "function"
    },
    {
      "inputs": [],
      "name": "renounceOwnership",
      "outputs": [],
      "stateMutability": "nonpayable",
      "type": "function"
    },
    {
      "inputs": [
        {
          "internalType": "bytes",
          "name": "data",
          "type": "bytes"
        }
      ],
      "name": "requestRandomness",
      "outputs": [],
      "stateMutability": "nonpayable",
      "type": "function"
    },
    {
      "inputs": [
        {
          "internalType": "address",
          "name": "newOwner",
          "type": "address"
        }
      ],
      "name": "transferOwnership",
      "outputs": [],
      "stateMutability": "nonpayable",
      "type": "function"
    },
    {
      "inputs": [],
      "name": "winnersCount",
      "outputs": [
        {
          "internalType": "uint256",
          "name": "",
          "type": "uint256"
        }
      ],
      "stateMutability": "view",
      "type": "function"
    }
  ],
  "bytecode": "0x6101806040523480156200001257600080fd5b5060405162001d1738038062001d178339810160408190526200003591620002c5565b81836040518060400160405280600f81526020016e53706f6e736f726564526166666c6560881b815250604051806040016040528060018152602001603160f81b8152506200008f600083620001da60201b90919060201c565b61012052620000a0816001620001da565b61014052815160208084019190912060e052815190820120610100524660a0526200012e60e05161010051604080517f8b73c3c69bb8fe3d512ecc4cf759cc79239f7b179b0ffacaa9a75d522b39400f60208201529081019290925260608201524660808201523060a082015260009060c00160405160208183030381529060405280519060200120905090565b60805250503060c0526001600160a01b0381166200016757604051631e4fbdf760e01b8152600060048201526024015b60405180910390fd5b620001728162000213565b50600160038190556001600160a01b039190911661016052600682905560058190556004805460ff191690556040518281527f1237ad121dfe1e3abc3b4254161693eb4add51b458114b8c15502bea94a6b02b9060200160405180910390a2505050620004ef565b6000602083511015620001fa57620001f28362000265565b90506200020d565b81620002078482620003ad565b5060ff90505b92915050565b600280546001600160a01b038381166001600160a01b0319831681179093556040519116919082907f8be0079c531659141344cd1fd0a4f28419497f9722a3daafe3b4186f6b6457e090600090a35050565b600080829050601f8151111562000293578260405163305a27a960e01b81526004016200015e919062000479565b8051620002a082620004ca565b179392505050565b80516001600160a01b0381168114620002c057600080fd5b919050565b600080600060608486031215620002db57600080fd5b620002e684620002a8565b9250620002f660208501620002a8565b9150604084015190509250925092565b634e487b7160e01b600052604160045260246000fd5b600181811c908216806200033157607f821691505b6020821081036200035257634e487b7160e01b600052602260045260246000fd5b50919050565b601f821115620003a8576000816000526020600020601f850160051c81016020861015620003835750805b601f850160051c820191505b81811015620003a4578281556001016200038f565b5050505b505050565b81516001600160401b03811115620003c957620003c962000306565b620003e181620003da84546200031c565b8462000358565b602080601f831160018114620004195760008415620004005750858301515b600019600386901b1c1916600185901b178555620003a4565b600085815260208120601f198616915b828110156200044a5788860151825594840194600190910190840162000429565b5085821015620004695787850151600019600388901b60f8161c191681555b5050505050600190811b01905550565b60006020808352835180602085015260005b81811015620004a9578581018301518582016040015282016200048b565b506000604082860101526040601f19601f8301168501019250505092915050565b80516020808301519190811015620003525760001960209190910360031b1b16919050565b60805160a05160c05160e051610100516101205161014051610160516117b462000563600039600081816101ca015281816102fd0152610e6501526000610e3b01526000610e0901526000610ffe01526000610fd601526000610f3101526000610f5b01526000610f8501526117b46000f3fe608060405234801561001057600080fd5b50600436106101215760003560e01c806384b0196e116100ad578063e6dee7ed11610071578063e6dee7ed1461028e578063f2fde38b146102a1578063f5684183146102b4578063f83d08ba146102bd578063fc2a88c3146102c557600080fd5b806384b0196e1461022c5780638da5cb5b14610247578063a35bd59114610258578063b1c9fe6e1461026b578063b375603c1461028557600080fd5b806349713811116100f4578063497138111461017e5780634d33381414610187578063570ca735146101c5578063715018a6146102045780637ecebe001461020c57600080fd5b80630695a252146101265780630d05532a1461013b578063103064cb1461015957806321af3f9f1461016c575b600080fd5b610139610134366004611368565b6102f2565b005b610143610380565b604051610150919061138a565b60405180910390f35b6101396101673660046113f3565b6103e2565b6007545b604051908152602001610150565b61017060065481565b6101b5610195366004611487565b600860209081526000928352604080842090915290825290205460ff1681565b6040519015158152602001610150565b6101ec7f000000000000000000000000000000000000000000000000000000000000000081565b6040516001600160a01b039091168152602001610150565b610139610746565b61017061021a3660046114b3565b60096020526000908152604090205481565b61023461075a565b604051610150979695949392919061151b565b6002546001600160a01b03166101ec565b6101396102663660046115b4565b6107a0565b6004546102789060ff1681565b60405161015091906115e3565b61017060055481565b61013961029c366004611621565b61088e565b6101396102af3660046114b3565b610960565b610170600b5481565b61013961099e565b600a546102d99067ffffffffffffffff1681565b60405167ffffffffffffffff9091168152602001610150565b336001600160a01b037f0000000000000000000000000000000000000000000000000000000000000000161461035f5760405162461bcd60e51b815260206004820152600d60248201526c27b7363c9037b832b930ba37b960991b60448201526064015b60405180910390fd5b61037c8160001b8360405180602001604052806000815250610a3c565b5050565b606060078054806020026020016040519081016040528092919081815260200182805480156103d857602002820191906000526020600020905b81546001600160a01b031681526001909101906020018083116103ba575b5050505050905090565b6103ea610cfc565b600060045460ff166003811115610403576104036115cd565b146104505760405162461bcd60e51b815260206004820152601760248201527f524146464c453a206e6f7420656e7465722070686173650000000000000000006044820152606401610356565b824211156104925760405162461bcd60e51b815260206004820152600f60248201526e1490519193114e88195e1c1a5c9959608a1b6044820152606401610356565b60055460009081526008602090815260408083206001600160a01b038916845290915290205460ff16156105085760405162461bcd60e51b815260206004820152601760248201527f524146464c453a20616c726561647920656e74657265640000000000000000006044820152606401610356565b6001600160a01b03851660009081526009602052604090205484146105635760405162461bcd60e51b8152602060048201526011602482015270524146464c453a20626164206e6f6e636560781b6044820152606401610356565b600554604080517f1244fc88cef59e9f3e0ccd04bc7c4999dffde699f015c599a534c72a69778b0e60208201526001600160a01b0388169181019190915260608101919091526080810185905260a0810184905260009060c00160405160208183030381529060405280519060200120905060006105e082610d26565b905060006106248286868080601f016020809104026020016040519081016040528093929190818152602001838380828437600092019190915250610d5992505050565b9050876001600160a01b0316816001600160a01b0316146106795760405162461bcd60e51b815260206004820152600f60248201526e524146464c453a206261642073696760881b6044820152606401610356565b6001600160a01b038816600081815260096020908152604080832060018c8101909155600580548552600884528285208686528452828520805460ff191683179055600780549283018155948590527fa66cc928b5edb82af9bd49922954155ab7b0942694bea4ce44661d9a8736c68890910180546001600160a01b0319168617905554925490519081529192917f089d0daa5e8466fdfdab1113e8fdd98c06ef26711cafc429dabce354d007364e910160405180910390a350505061073f6001600355565b5050505050565b61074e610d83565b6107586000610db0565b565b60006060806000806000606061076e610e02565b610776610e34565b60408051600080825260208201909252600f60f81b9b939a50919850469750309650945092509050565b6107a8610d83565b600360045460ff1660038111156107c1576107c16115cd565b14806107e35750600060045460ff1660038111156107e1576107e16115cd565b145b6108175760405162461bcd60e51b8152602060048201526005602482015264706861736560d81b6044820152606401610356565b61082360076000611336565b60016005600082825461083691906116d2565b909155505080156108475760068190555b6004805460ff191690556005546006546040519081527f1237ad121dfe1e3abc3b4254161693eb4add51b458114b8c15502bea94a6b02b906020015b60405180910390a250565b610896610d83565b600160045460ff1660038111156108af576108af6115cd565b146108f55760405162461bcd60e51b81526020600482015260166024820152751490519193114e881b5d5cdd081899481b1bd8dad95960521b6044820152606401610356565b6004805460ff1916600217905561090b81610e61565b600a805467ffffffffffffffff191667ffffffffffffffff929092169182179055600554604051918252907fc6f253de430148d7581a940518a73a6d98efc85ea9162887a3918443ba67c21290602001610883565b610968610d83565b6001600160a01b03811661099257604051631e4fbdf760e01b815260006004820152602401610356565b61099b81610db0565b50565b6109a6610d83565b600060045460ff1660038111156109bf576109bf6115cd565b146109f45760405162461bcd60e51b8152602060048201526005602482015264706861736560d81b6044820152606401610356565b6004805460ff191660011790556005546007546040519081527f907fece23ce39fbcbceb71e515043fe29408353fbb393b25b35eb8a70a4bad0b9060200160405180910390a2565b600260045460ff166003811115610a5557610a556115cd565b14610a985760405162461bcd60e51b8152602060048201526013602482015272524146464c453a2077726f6e6720706861736560681b6044820152606401610356565b60065460075410801590610aad575060075415155b610af95760405162461bcd60e51b815260206004820152601b60248201527f524146464c453a206e6f7420656e6f75676820656e7472616e747300000000006044820152606401610356565b600b83905560075460008167ffffffffffffffff811115610b1c57610b1c61160b565b604051908082528060200260200182016040528015610b45578160200160208202803683370190505b509050600060065467ffffffffffffffff811115610b6557610b6561160b565b604051908082528060200260200182016040528015610b8e578160200160208202803683370190505b50905060005b600654811015610cab57600084600b5483604051602001610bbf929190918252602082015260400190565b6040516020818303038152906040528051906020012060001c610be291906116f3565b90505b838181518110610bf757610bf7611715565b602002602001015115610c215784610c108260016116d2565b610c1a91906116f3565b9050610be5565b6001848281518110610c3557610c35611715565b60200260200101901515908115158152505060078181548110610c5a57610c5a611715565b9060005260206000200160009054906101000a90046001600160a01b0316838381518110610c8a57610c8a611715565b6001600160a01b039092166020928302919091019091015250600101610b94565b506004805460ff191660031790556005546040517fb9315731e05e01dbabe457c482230a47a1c31d7a8db0cd8b62740751ae55160590610cec90849061138a565b60405180910390a2505050505050565b600260035403610d1f57604051633ee5aeb560e01b815260040160405180910390fd5b6002600355565b6000610d53610d33610f24565b8360405161190160f01b8152600281019290925260228201526042902090565b92915050565b600080600080610d69868661104f565b925092509250610d79828261109c565b5090949350505050565b6002546001600160a01b031633146107585760405163118cdaa760e01b8152336004820152602401610356565b600280546001600160a01b038381166001600160a01b0319831681179093556040519116919082907f8be0079c531659141344cd1fd0a4f28419497f9722a3daafe3b4186f6b6457e090600090a35050565b6060610e2f7f00000000000000000000000000000000000000000000000000000000000000006000611155565b905090565b6060610e2f7f00000000000000000000000000000000000000000000000000000000000000006001611155565b60007f00000000000000000000000000000000000000000000000000000000000000006001600160a01b031663f8413b076040518163ffffffff1660e01b81526004016020604051808303816000875af1158015610ec3573d6000803e3d6000fd5b505050506040513d601f19601f82011682018060405250810190610ee7919061172b565b60405190915067ffffffffffffffff8216907f9ac10fb18c93d33ad7b0a941897aef048d0f8d30756684e82b4552ba12764d4590600090a2919050565b6000306001600160a01b037f000000000000000000000000000000000000000000000000000000000000000016148015610f7d57507f000000000000000000000000000000000000000000000000000000000000000046145b15610fa757507f000000000000000000000000000000000000000000000000000000000000000090565b610e2f604080517f8b73c3c69bb8fe3d512ecc4cf759cc79239f7b179b0ffacaa9a75d522b39400f60208201527f0000000000000000000000000000000000000000000000000000000000000000918101919091527f000000000000000000000000000000000000000000000000000000000000000060608201524660808201523060a082015260009060c00160405160208183030381529060405280519060200120905090565b600080600083516041036110895760208401516040850151606086015160001a61107b88828585611200565b955095509550505050611095565b50508151600091506002905b9250925092565b60008260038111156110b0576110b06115cd565b036110b9575050565b60018260038111156110cd576110cd6115cd565b036110eb5760405163f645eedf60e01b815260040160405180910390fd5b60028260038111156110ff576110ff6115cd565b036111205760405163fce698f760e01b815260048101829052602401610356565b6003826003811115611134576111346115cd565b0361037c576040516335e2f38360e21b815260048101829052602401610356565b606060ff831461116f57611168836112cf565b9050610d53565b81805461117b90611744565b80601f01602080910402602001604051908101604052809291908181526020018280546111a790611744565b80156111f45780601f106111c9576101008083540402835291602001916111f4565b820191906000526020600020905b8154815290600101906020018083116111d757829003601f168201915b50505050509050610d53565b600080807f7fffffffffffffffffffffffffffffff5d576e7357a4501ddfe92f46681b20a084111561123b57506000915060039050826112c5565b604080516000808252602082018084528a905260ff891692820192909252606081018790526080810186905260019060a0016020604051602081039080840390855afa15801561128f573d6000803e3d6000fd5b5050604051601f1901519150506001600160a01b0381166112bb575060009250600191508290506112c5565b9250600091508190505b9450945094915050565b606060006112dc8361130e565b604080516020808252818301909252919250600091906020820181803683375050509182525060208101929092525090565b600060ff8216601f811115610d5357604051632cd44ac360e21b815260040160405180910390fd5b508054600082559060005260206000209081019061099b91905b808211156113645760008155600101611350565b5090565b6000806040838503121561137b57600080fd5b50508035926020909101359150565b6020808252825182820181905260009190848201906040850190845b818110156113cb5783516001600160a01b0316835292840192918401916001016113a6565b50909695505050505050565b80356001600160a01b03811681146113ee57600080fd5b919050565b60008060008060006080868803121561140b57600080fd5b611414866113d7565b94506020860135935060408601359250606086013567ffffffffffffffff8082111561143f57600080fd5b818801915088601f83011261145357600080fd5b81358181111561146257600080fd5b89602082850101111561147457600080fd5b9699959850939650602001949392505050565b6000806040838503121561149a57600080fd5b823591506114aa602084016113d7565b90509250929050565b6000602082840312156114c557600080fd5b6114ce826113d7565b9392505050565b6000815180845260005b818110156114fb576020818501810151868301820152016114df565b506000602082860101526020601f19601f83011685010191505092915050565b60ff60f81b881681526000602060e0602084015261153c60e084018a6114d5565b838103604085015261154e818a6114d5565b606085018990526001600160a01b038816608086015260a0850187905284810360c08601528551808252602080880193509091019060005b818110156115a257835183529284019291840191600101611586565b50909c9b505050505050505050505050565b6000602082840312156115c657600080fd5b5035919050565b634e487b7160e01b600052602160045260246000fd5b602081016004831061160557634e487b7160e01b600052602160045260246000fd5b91905290565b634e487b7160e01b600052604160045260246000fd5b60006020828403121561163357600080fd5b813567ffffffffffffffff8082111561164b57600080fd5b818401915084601f83011261165f57600080fd5b8135818111156116715761167161160b565b604051601f8201601f19908116603f011681019083821181831017156116995761169961160b565b816040528281528760208487010111156116b257600080fd5b826020860160208301376000928101602001929092525095945050505050565b80820180821115610d5357634e487b7160e01b600052601160045260246000fd5b60008261171057634e487b7160e01b600052601260045260246000fd5b500690565b634e487b7160e01b600052603260045260246000fd5b60006020828403121561173d57600080fd5b5051919050565b600181811c9082168061175857607f821691505b60208210810361177857634e487b7160e01b600052602260045260246000fd5b5091905056fea26469706673582212202b115fdbe44d9bfb5014df4f508799be2c3448e6eae38266cb0b61dee9baac2b64736f6c63430008180033",
  "linkReferences": {},
  "deployedLinkReferences": {}
}