{
  "address": "0x42470627feDC8FCF9622a631d421FCb8756Ab36a",
  "abi": [
    {
      "inputs": [],
      "stateMutability": "nonpayable",
      "type": "constructor"
    },
    {
      "inputs": [
        {
          "internalType": "address",
          "name": "target",
          "type": "address"
        }
      ],
      "name": "AddressEmptyCode",
      "type": "error"
    },
    {
      "inputs": [
        {
          "internalType": "address",
          "name": "account",
          "type": "address"
        }
      ],
      "name": "AddressInsufficientBalance",
      "type": "error"
    },
    {
      "inputs": [],
      "name": "FailedInnerCall",
      "type": "error"
    },
    {
      "inputs": [
        {
          "internalType": "address",
          "name": "owner",
          "type": "address"
        }
      ],
      "name": "OwnableInvalidOwner",
      "type": "error"
    },
    {
      "inputs": [
        {
          "internalType": "address",
          "name": "account",
          "type": "address"
        }
      ],
      "name": "OwnableUnauthorizedAccount",
      "type": "error"
    },
    {
      "inputs": [
        {
          "internalType": "address",
          "name": "token",
          "type": "address"
        }
      ],
      "name": "SafeERC20FailedOperation",
      "type": "error"
    },
    {
      "anonymous": false,
      "inputs": [
        {
          "indexed": true,
          "internalType": "address",
          "name": "previousOwner",
          "type": "address"
        },
        {
          "indexed": true,
          "internalType": "address",
          "name": "newOwner",
          "type": "address"
        }
      ],
      "name": "OwnershipTransferred",
      "type": "event"
    },
    {
      "anonymous": false,
      "inputs": [
        {
          "indexed": false,
          "internalType": "string",
          "name": "name",
          "type": "string"
        },
        {
          "indexed": false,
          "internalType": "string",
          "name": "symbol",
          "type": "string"
        },
        {
          "indexed": false,
          "internalType": "address",
          "name": "tokenAddress",
          "type": "address"
        },
        {
          "indexed": false,
          "internalType": "uint256",
          "name": "initialSupply",
          "type": "uint256"
        },
        {
          "indexed": false,
          "internalType": "address",
          "name": "recipient",
          "type": "address"
        }
      ],
      "name": "TokenCreated",
      "type": "event"
    },
    {
      "anonymous": false,
      "inputs": [
        {
          "indexed": true,
          "internalType": "address",
          "name": "user",
          "type": "address"
        },
        {
          "indexed": true,
          "internalType": "address",
          "name": "token",
          "type": "address"
        },
        {
          "indexed": false,
          "internalType": "uint256",
          "name": "amount",
          "type": "uint256"
        },
        {
          "indexed": false,
          "internalType": "uint256",
          "name": "usdxReceived",
          "type": "uint256"
        }
      ],
      "name": "TokenDeposited",
      "type": "event"
    },
    {
      "anonymous": false,
      "inputs": [
        {
          "indexed": true,
          "internalType": "address",
          "name": "user",
          "type": "address"
        },
        {
          "indexed": true,
          "internalType": "address",
          "name": "token",
          "type": "address"
        },
        {
          "indexed": false,
          "internalType": "uint256",
          "name": "usdxAmount",
          "type": "uint256"
        },
        {
          "indexed": false,
          "internalType": "uint256",
          "name": "tokenReturned",
          "type": "uint256"
        }
      ],
      "name": "TokenRedeemed",
      "type": "event"
    },
    {
      "inputs": [
        {
          "internalType": "uint256",
          "name": "",
          "type": "uint256"
        }
      ],
      "name": "allTokens",
      "outputs": [
        {
          "internalType": "address",
          "name": "",
          "type": "address"
        }
      ],
      "stateMutability": "view",
      "type": "function"
    },
    {
      "inputs": [
        {
          "internalType": "string",
          "name": "_name",
          "type": "string"
        },
        {
          "internalType": "string",
          "name": "_symbol",
          "type": "string"
        },
        {
          "internalType": "uint256",
          "name": "_initialSupply",
          "type": "uint256"
        },
        {
          "internalType": "address",
          "name": "_recipient",
          "type": "address"
        }
      ],
      "name": "createToken",
      "outputs": [
        {
          "internalType": "address",
          "name": "",
          "type": "address"
        }
      ],
      "stateMutability": "nonpayable",
      "type": "function"
    },
    {
      "inputs": [
        {
          "internalType": "address",
          "name": "_tokenAddress",
          "type": "address"
        },
        {
          "internalType": "uint256",
          "name": "_amount",
          "type": "uint256"
        }
      ],
      "name": "depositToken",
      "outputs": [],
      "stateMutability": "nonpayable",
      "type": "function"
    },
    {
      "inputs": [],
      "name": "getAllTokens",
      "outputs": [
        {
          "internalType": "address[]",
          "name": "",
          "type": "address[]"
        }
      ],
      "stateMutability": "view",
      "type": "function"
    },
    {
      "inputs": [],
      "name": "getContractAddress",
      "outputs": [
        {
          "internalType": "address",
          "name": "",
          "type": "address"
        }
      ],
      "stateMutability": "view",
      "type": "function"
    },
    {
      "inputs": [
        {
          "internalType": "string",
          "name": "_name",
          "type": "string"
        }
      ],
      "name": "getTokenByName",
      "outputs": [
        {
          "internalType": "address",
          "name": "",
          "type": "address"
        }
      ],
      "stateMutability": "view",
      "type": "function"
    },
    {
      "inputs": [],
      "name": "getTokenCount",
      "outputs": [
        {
          "internalType": "uint256",
          "name": "",
          "type": "uint256"
        }
      ],
      "stateMutability": "view",
      "type": "function"
    },
    {
      "inputs": [],
      "name": "owner",
      "outputs": [
        {
          "internalType": "address",
          "name": "",
          "type": "address"
        }
      ],
      "stateMutability": "view",
      "type": "function"
    },
    {
      "inputs": [
        {
          "internalType": "address",
          "name": "_tokenAddress",
          "type": "address"
        },
        {
          "internalType": "uint256",
          "name": "_usdxAmount",
          "type": "uint256"
        }
      ],
      "name": "redeemToken",
      "outputs": [],
      "stateMutability": "nonpayable",
      "type": "function"
    },
    {
      "inputs": [],
      "name": "renounceOwnership",
      "outputs": [],
      "stateMutability": "nonpayable",
      "type": "function"
    },
    {
      "inputs": [
        {
          "internalType": "address",
          "name": "_usdxToken",
          "type": "address"
        }
      ],
      "name": "setUsdxToken",
      "outputs": [],
      "stateMutability": "nonpayable",
      "type": "function"
    },
    {
      "inputs": [
        {
          "internalType": "string",
          "name": "",
          "type": "string"
        }
      ],
      "name": "tokensByName",
      "outputs": [
        {
          "internalType": "address",
          "name": "",
          "type": "address"
        }
      ],
      "stateMutability": "view",
      "type": "function"
    },
    {
      "inputs": [
        {
          "internalType": "address",
          "name": "newOwner",
          "type": "address"
        }
      ],
      "name": "transferOwnership",
      "outputs": [],
      "stateMutability": "nonpayable",
      "type": "function"
    },
    {
      "inputs": [],
      "name": "usdxToken",
      "outputs": [
        {
          "internalType": "address",
          "name": "",
          "type": "address"
        }
      ],
      "stateMutability": "view",
      "type": "function"
    }
  ],
  "transactionHash": "0x16f3852aa52a863fe524560b0175ba332688aa1105c79150aaaaafd785558431",
  "args": [],
  "numDeployments": 1,
  "solcInputHash": "8d295676b09a8fcfccf487e8169e32b4",
  "bytecode": "0x608060405234801561001057600080fd5b50338061003757604051631e4fbdf760e01b81526000600482015260240160405180910390fd5b61004081610046565b50610096565b600080546001600160a01b038381166001600160a01b0319831681178455604051919092169283917f8be0079c531659141344cd1fd0a4f28419497f9722a3daafe3b4186f6b6457e09190a35050565b6121c9806100a56000396000f3fe60806040523480156200001157600080fd5b5060043610620000fd5760003560e01c8063830cbbbd1162000097578063d762ebf8116200006e578063d762ebf814620001df578063db79874814620001f6578063e73fc0c3146200022d578063f2fde38b146200024457600080fd5b8063830cbbbd14620001a25780638da5cb5b14620001b95780639798e39e14620001cb57600080fd5b806334f359f911620000d857806334f359f91462000158578063634282af146200016f578063715018a6146200018657806378a89567146200019057600080fd5b80632a5c792a146200010257806332a2c5d01462000124578063338b5dea146200013f575b600080fd5b6200010c6200025b565b6040516200011b919062000e95565b60405180910390f35b305b6040516001600160a01b0390911681526020016200011b565b620001566200015036600462000f01565b620002bf565b005b620001266200016936600462000fd9565b6200047d565b620001266200018036600462001060565b6200076f565b620001566200079a565b6002546040519081526020016200011b565b62000156620001b336600462000f01565b620007b2565b6000546001600160a01b031662000126565b60035462000126906001600160a01b031681565b62000156620001f03660046200107a565b62000b0a565b620001266200020736600462001098565b80516020818301810180516001825292820191909301209152546001600160a01b031681565b620001266200023e36600462001098565b62000b36565b62000156620002553660046200107a565b62000b69565b60606002805480602002602001604051908101604052809291908181526020018280548015620002b557602002820191906000526020600020905b81546001600160a01b0316815260019091019060200180831162000296575b5050505050905090565b6001600160a01b038216620003135760405162461bcd60e51b8152602060048201526015602482015274496e76616c696420746f6b656e206164647265737360581b60448201526064015b60405180910390fd5b60008111620003655760405162461bcd60e51b815260206004820152601d60248201527f416d6f756e74206d7573742062652067726561746572207468616e203000000060448201526064016200030a565b6003546001600160a01b0316620003b45760405162461bcd60e51b81526020600482015260126024820152711554d11e081d1bdad95b881b9bdd081cd95d60721b60448201526064016200030a565b620003cb6001600160a01b03831633308462000bad565b6003546040516340c10f1960e01b81523360048201526024810183905282916001600160a01b0316906340c10f1990604401600060405180830381600087803b1580156200041857600080fd5b505af11580156200042d573d6000803e3d6000fd5b505060408051858152602081018590526001600160a01b03871693503392507f080c225c8e9d9f966820ef915f5f555d575e9c3a188f1252d19e94aa2250f09d91015b60405180910390a3505050565b600080855111620004c85760405162461bcd60e51b81526020600482015260146024820152734e616d652063616e6e6f7420626520656d70747960601b60448201526064016200030a565b6000845111620005145760405162461bcd60e51b815260206004820152601660248201527553796d626f6c2063616e6e6f7420626520656d70747960501b60448201526064016200030a565b60008311620005745760405162461bcd60e51b815260206004820152602560248201527f496e697469616c20737570706c79206d75737420626520677265617465722074604482015264068616e20360dc1b60648201526084016200030a565b6001600160a01b038216620005cc5760405162461bcd60e51b815260206004820181905260248201527f526563697069656e742063616e6e6f74206265207a65726f206164647265737360448201526064016200030a565b60006001600160a01b0316600186604051620005e99190620010ff565b908152604051908190036020019020546001600160a01b0316146200065d5760405162461bcd60e51b815260206004820152602360248201527f546f6b656e20776974682074686973206e616d6520616c72656164792065786960448201526273747360e81b60648201526084016200030a565b600085858585604051620006719062000e87565b6200068094939291906200114b565b604051809103906000f0801580156200069d573d6000803e3d6000fd5b509050600081905080600188604051620006b89190620010ff565b90815260405190819003602001812080546001600160a01b039384166001600160a01b031991821617909155600280546001810182556000919091527f405787fa12a823e0f2b7631cc41b3ba8828b3321ca811111fa75cd3aa3bb5ace01805493851693909116929092179091557ff9ea67547fe1f9023ef1cc713269e275913f81283bff3eb5a878c520c38552d2906200075d908990899085908a908a9062001196565b60405180910390a19695505050505050565b600281815481106200078057600080fd5b6000918252602090912001546001600160a01b0316905081565b620007a462000c1c565b620007b0600062000c4b565b565b6001600160a01b038216620008025760405162461bcd60e51b8152602060048201526015602482015274496e76616c696420746f6b656e206164647265737360581b60448201526064016200030a565b60008111620008545760405162461bcd60e51b815260206004820152601d60248201527f416d6f756e74206d7573742062652067726561746572207468616e203000000060448201526064016200030a565b6003546001600160a01b0316620008a35760405162461bcd60e51b81526020600482015260126024820152711554d11e081d1bdad95b881b9bdd081cd95d60721b60448201526064016200030a565b6003546040516370a0823160e01b815233600482015282916001600160a01b0316906370a0823190602401602060405180830381865afa158015620008ec573d6000803e3d6000fd5b505050506040513d601f19601f82011682018060405250810190620009129190620011ea565b1015620009625760405162461bcd60e51b815260206004820152601960248201527f496e73756666696369656e7420555344782062616c616e63650000000000000060448201526064016200030a565b6003546200097c906001600160a01b031633308462000bad565b600354604051632770a7eb60e21b8152306004820152602481018390526001600160a01b0390911690639dc29fac90604401600060405180830381600087803b158015620009c957600080fd5b505af1158015620009de573d6000803e3d6000fd5b50506040516370a0823160e01b81523060048201528392508291506001600160a01b038516906370a0823190602401602060405180830381865afa15801562000a2b573d6000803e3d6000fd5b505050506040513d601f19601f8201168201806040525081019062000a519190620011ea565b101562000ab05760405162461bcd60e51b815260206004820152602660248201527f496e73756666696369656e7420746f6b656e2062616c616e636520696e20636f6044820152651b9d1c9858dd60d21b60648201526084016200030a565b62000ac66001600160a01b038416338362000c9b565b60408051838152602081018390526001600160a01b0385169133917fbb72ef26caa7fa63d057351d1152ceb88cdcf6c0b9f3afadb797eb6e9484ccc1910162000470565b62000b1462000c1c565b600380546001600160a01b0319166001600160a01b0392909216919091179055565b600060018260405162000b4a9190620010ff565b908152604051908190036020019020546001600160a01b031692915050565b62000b7362000c1c565b6001600160a01b03811662000b9f57604051631e4fbdf760e01b8152600060048201526024016200030a565b62000baa8162000c4b565b50565b6040516001600160a01b03848116602483015283811660448301526064820183905262000c169186918216906323b872dd906084015b604051602081830303815290604052915060e01b6020820180516001600160e01b03838183161783525050505062000cd3565b50505050565b6000546001600160a01b03163314620007b05760405163118cdaa760e01b81523360048201526024016200030a565b600080546001600160a01b038381166001600160a01b0319831681178455604051919092169283917f8be0079c531659141344cd1fd0a4f28419497f9722a3daafe3b4186f6b6457e09190a35050565b6040516001600160a01b0383811660248301526044820183905262000cce91859182169063a9059cbb9060640162000be3565b505050565b600062000cea6001600160a01b0384168362000d3d565b9050805160001415801562000d1257508080602001905181019062000d10919062001204565b155b1562000cce57604051635274afe760e01b81526001600160a01b03841660048201526024016200030a565b606062000d4d8383600062000d54565b9392505050565b60608147101562000d7b5760405163cd78605960e01b81523060048201526024016200030a565b600080856001600160a01b0316848660405162000d999190620010ff565b60006040518083038185875af1925050503d806000811462000dd8576040519150601f19603f3d011682016040523d82523d6000602084013e62000ddd565b606091505b509150915062000def86838362000df9565b9695505050505050565b60608262000e125762000e0c8262000e5d565b62000d4d565b815115801562000e2a57506001600160a01b0384163b155b1562000e5557604051639996b31560e01b81526001600160a01b03851660048201526024016200030a565b508062000d4d565b80511562000e6e5780518082602001fd5b604051630a12f52160e11b815260040160405180910390fd5b610f6b806200122983390190565b6020808252825182820181905260009190848201906040850190845b8181101562000ed85783516001600160a01b03168352928401929184019160010162000eb1565b50909695505050505050565b80356001600160a01b038116811462000efc57600080fd5b919050565b6000806040838503121562000f1557600080fd5b62000f208362000ee4565b946020939093013593505050565b634e487b7160e01b600052604160045260246000fd5b600082601f83011262000f5657600080fd5b813567ffffffffffffffff8082111562000f745762000f7462000f2e565b604051601f8301601f19908116603f0116810190828211818310171562000f9f5762000f9f62000f2e565b8160405283815286602085880101111562000fb957600080fd5b836020870160208301376000602085830101528094505050505092915050565b6000806000806080858703121562000ff057600080fd5b843567ffffffffffffffff808211156200100957600080fd5b620010178883890162000f44565b955060208701359150808211156200102e57600080fd5b506200103d8782880162000f44565b93505060408501359150620010556060860162000ee4565b905092959194509250565b6000602082840312156200107357600080fd5b5035919050565b6000602082840312156200108d57600080fd5b62000d4d8262000ee4565b600060208284031215620010ab57600080fd5b813567ffffffffffffffff811115620010c357600080fd5b620010d18482850162000f44565b949350505050565b60005b83811015620010f6578181015183820152602001620010dc565b50506000910152565b6000825162001113818460208701620010d9565b9190910192915050565b6000815180845262001137816020860160208601620010d9565b601f01601f19169290920160200192915050565b6080815260006200116060808301876200111d565b82810360208401526200117481876200111d565b604084019590955250506001600160a01b039190911660609091015292915050565b60a081526000620011ab60a08301886200111d565b8281036020840152620011bf81886200111d565b6001600160a01b03968716604085015260608401959095525050921660809092019190915292915050565b600060208284031215620011fd57600080fd5b5051919050565b6000602082840312156200121757600080fd5b8151801515811462000d4d57600080fdfe60806040523480156200001157600080fd5b5060405162000f6b38038062000f6b83398101604081905262000034916200034a565b33848460036200004583826200046e565b5060046200005482826200046e565b5050506001600160a01b0381166200008757604051631e4fbdf760e01b8152600060048201526024015b60405180910390fd5b6200009281620000c2565b50620000b881620000a66012600a6200064f565b620000b2908562000667565b62000114565b5050505062000697565b600580546001600160a01b038381166001600160a01b0319831681179093556040519116919082907f8be0079c531659141344cd1fd0a4f28419497f9722a3daafe3b4186f6b6457e090600090a35050565b6001600160a01b038216620001405760405163ec442f0560e01b8152600060048201526024016200007e565b6200014e6000838362000152565b5050565b6001600160a01b0383166200018157806002600082825462000175919062000681565b90915550620001f59050565b6001600160a01b03831660009081526020819052604090205481811015620001d65760405163391434e360e21b81526001600160a01b038516600482015260248101829052604481018390526064016200007e565b6001600160a01b03841660009081526020819052604090209082900390555b6001600160a01b038216620002135760028054829003905562000232565b6001600160a01b03821660009081526020819052604090208054820190555b816001600160a01b0316836001600160a01b03167fddf252ad1be2c89b69c2b068fc378daa952ba7f163c4a11628f55a4df523b3ef836040516200027891815260200190565b60405180910390a3505050565b634e487b7160e01b600052604160045260246000fd5b600082601f830112620002ad57600080fd5b81516001600160401b0380821115620002ca57620002ca62000285565b604051601f8301601f19908116603f01168101908282118183101715620002f557620002f562000285565b816040528381526020925086838588010111156200031257600080fd5b600091505b8382101562000336578582018301518183018401529082019062000317565b600093810190920192909252949350505050565b600080600080608085870312156200036157600080fd5b84516001600160401b03808211156200037957600080fd5b62000387888389016200029b565b955060208701519150808211156200039e57600080fd5b50620003ad878288016200029b565b60408701516060880151919550935090506001600160a01b0381168114620003d457600080fd5b939692955090935050565b600181811c90821680620003f457607f821691505b6020821081036200041557634e487b7160e01b600052602260045260246000fd5b50919050565b601f8211156200046957600081815260208120601f850160051c81016020861015620004445750805b601f850160051c820191505b81811015620004655782815560010162000450565b5050505b505050565b81516001600160401b038111156200048a576200048a62000285565b620004a2816200049b8454620003df565b846200041b565b602080601f831160018114620004da5760008415620004c15750858301515b600019600386901b1c1916600185901b17855562000465565b600085815260208120601f198616915b828110156200050b57888601518255948401946001909101908401620004ea565b50858210156200052a5787850151600019600388901b60f8161c191681555b5050505050600190811b01905550565b634e487b7160e01b600052601160045260246000fd5b600181815b80851115620005915781600019048211156200057557620005756200053a565b808516156200058357918102915b93841c939080029062000555565b509250929050565b600082620005aa5750600162000649565b81620005b95750600062000649565b8160018114620005d25760028114620005dd57620005fd565b600191505062000649565b60ff841115620005f157620005f16200053a565b50506001821b62000649565b5060208310610133831016604e8410600b841016171562000622575081810a62000649565b6200062e838362000550565b80600019048211156200064557620006456200053a565b0290505b92915050565b60006200066060ff84168362000599565b9392505050565b80820281158282048414176200064957620006496200053a565b808201808211156200064957620006496200053a565b6108c480620006a76000396000f3fe608060405234801561001057600080fd5b50600436106100cf5760003560e01c806370a082311161008c57806395d89b411161006657806395d89b41146101aa578063a9059cbb146101b2578063dd62ed3e146101c5578063f2fde38b146101fe57600080fd5b806370a082311461015e578063715018a6146101875780638da5cb5b1461018f57600080fd5b806306fdde03146100d4578063095ea7b3146100f257806318160ddd1461011557806323b872dd14610127578063313ce5671461013a57806340c10f1914610149575b600080fd5b6100dc610211565b6040516100e9919061070e565b60405180910390f35b610105610100366004610778565b6102a3565b60405190151581526020016100e9565b6002545b6040519081526020016100e9565b6101056101353660046107a2565b6102bd565b604051601281526020016100e9565b61015c610157366004610778565b6102e1565b005b61011961016c3660046107de565b6001600160a01b031660009081526020819052604090205490565b61015c6102f7565b6005546040516001600160a01b0390911681526020016100e9565b6100dc61030b565b6101056101c0366004610778565b61031a565b6101196101d3366004610800565b6001600160a01b03918216600090815260016020908152604080832093909416825291909152205490565b61015c61020c3660046107de565b610328565b60606003805461022090610833565b80601f016020809104026020016040519081016040528092919081815260200182805461024c90610833565b80156102995780601f1061026e57610100808354040283529160200191610299565b820191906000526020600020905b81548152906001019060200180831161027c57829003601f168201915b5050505050905090565b6000336102b181858561036b565b60019150505b92915050565b6000336102cb85828561037d565b6102d68585856103fb565b506001949350505050565b6102e961045a565b6102f38282610487565b5050565b6102ff61045a565b61030960006104bd565b565b60606004805461022090610833565b6000336102b18185856103fb565b61033061045a565b6001600160a01b03811661035f57604051631e4fbdf760e01b8152600060048201526024015b60405180910390fd5b610368816104bd565b50565b610378838383600161050f565b505050565b6001600160a01b0383811660009081526001602090815260408083209386168352929052205460001981146103f557818110156103e657604051637dc7a0d960e11b81526001600160a01b03841660048201526024810182905260448101839052606401610356565b6103f58484848403600061050f565b50505050565b6001600160a01b03831661042557604051634b637e8f60e11b815260006004820152602401610356565b6001600160a01b03821661044f5760405163ec442f0560e01b815260006004820152602401610356565b6103788383836105e4565b6005546001600160a01b031633146103095760405163118cdaa760e01b8152336004820152602401610356565b6001600160a01b0382166104b15760405163ec442f0560e01b815260006004820152602401610356565b6102f3600083836105e4565b600580546001600160a01b038381166001600160a01b0319831681179093556040519116919082907f8be0079c531659141344cd1fd0a4f28419497f9722a3daafe3b4186f6b6457e090600090a35050565b6001600160a01b0384166105395760405163e602df0560e01b815260006004820152602401610356565b6001600160a01b03831661056357604051634a1406b160e11b815260006004820152602401610356565b6001600160a01b03808516600090815260016020908152604080832093871683529290522082905580156103f557826001600160a01b0316846001600160a01b03167f8c5be1e5ebec7d5bd14f71427d1e84f3dd0314c0f7b2291e5b200ac8c7c3b925846040516105d691815260200190565b60405180910390a350505050565b6001600160a01b03831661060f578060026000828254610604919061086d565b909155506106819050565b6001600160a01b038316600090815260208190526040902054818110156106625760405163391434e360e21b81526001600160a01b03851660048201526024810182905260448101839052606401610356565b6001600160a01b03841660009081526020819052604090209082900390555b6001600160a01b03821661069d576002805482900390556106bc565b6001600160a01b03821660009081526020819052604090208054820190555b816001600160a01b0316836001600160a01b03167fddf252ad1be2c89b69c2b068fc378daa952ba7f163c4a11628f55a4df523b3ef8360405161070191815260200190565b60405180910390a3505050565b600060208083528351808285015260005b8181101561073b5785810183015185820160400152820161071f565b506000604082860101526040601f19601f8301168501019250505092915050565b80356001600160a01b038116811461077357600080fd5b919050565b6000806040838503121561078b57600080fd5b6107948361075c565b946020939093013593505050565b6000806000606084860312156107b757600080fd5b6107c08461075c565b92506107ce6020850161075c565b9150604084013590509250925092565b6000602082840312156107f057600080fd5b6107f98261075c565b9392505050565b6000806040838503121561081357600080fd5b61081c8361075c565b915061082a6020840161075c565b90509250929050565b600181811c9082168061084757607f821691505b60208210810361086757634e487b7160e01b600052602260045260246000fd5b50919050565b808201808211156102b757634e487b7160e01b600052601160045260246000fdfea2646970667358221220c00de6a8a4a15811d06a9e0de28decb08378ec083d9d7562d9691e1ec1db8eb564736f6c63430008140033a264697066735822122031c3cb9e0e17144735dcada07786a272fbac030cc6999ac5259f62b6c041dc7464736f6c63430008140033",
  "devdoc": {
    "author": "BuidlGuidl",
    "errors": {
      "AddressEmptyCode(address)": [
        {
          "details": "There's no code at `target` (it is not a contract)."
        }
      ],
      "AddressInsufficientBalance(address)": [
        {
          "details": "The ETH balance of the account is not enough to perform the operation."
        }
      ],
      "FailedInnerCall()": [
        {
          "details": "A call to an address target failed. The target may have reverted."
        }
      ],
      "OwnableInvalidOwner(address)": [
        {
          "details": "The owner is not a valid owner account. (eg. `address(0)`)"
        }
      ],
      "OwnableUnauthorizedAccount(address)": [
        {
          "details": "The caller account is not authorized to perform an operation."
        }
      ],
      "SafeERC20FailedOperation(address)": [
        {
          "details": "An operation with an ERC20 token failed."
        }
      ]
    },
    "kind": "dev",
    "methods": {
      "createToken(string,string,uint256,address)": {
        "params": {
          "_initialSupply": "Initial supply to mint",
          "_name": "Token name",
          "_recipient": "Address to receive the minted tokens",
          "_symbol": "Token symbol"
        }
      },
      "depositToken(address,uint256)": {
        "params": {
          "_amount": "Amount of tokens to deposit",
          "_tokenAddress": "Address of the token to deposit"
        }
      },
      "getTokenByName(string)": {
        "params": {
          "_name": "Token name"
        }
      },
      "owner()": {
        "details": "Returns the address of the current owner."
      },
      "redeemToken(address,uint256)": {
        "params": {
          "_tokenAddress": "Address of the token to redeem",
          "_usdxAmount": "Amount of USDx to redeem"
        }
      },
      "renounceOwnership()": {
        "details": "Leaves the contract without owner. It will not be possible to call `onlyOwner` functions. Can only be called by the current owner. NOTE: Renouncing ownership will leave the contract without an owner, thereby disabling any functionality that is only available to the owner."
      },
      "transferOwnership(address)": {
        "details": "Transfers ownership of the contract to a new account (`newOwner`). Can only be called by the current owner."
      }
    },
    "version": 1
  },
  "userdoc": {
    "kind": "user",
    "methods": {
      "createToken(string,string,uint256,address)": {
        "notice": "Creates a new ERC20 token and mints initial supply to the recipient"
      },
      "depositToken(address,uint256)": {
        "notice": "Deposit tokens to receive USDx"
      },
      "getAllTokens()": {
        "notice": "Get all created token addresses"
      },
      "getContractAddress()": {
        "notice": "Get TokenMinter contract address for approval"
      },
      "getTokenByName(string)": {
        "notice": "Get token address by name"
      },
      "getTokenCount()": {
        "notice": "Get total number of created tokens"
      },
      "redeemToken(address,uint256)": {
        "notice": "Redeem USDx to get back the original token"
      },
      "setUsdxToken(address)": {
        "notice": "Set USDx token address (only owner)"
      }
    },
    "notice": "A smart contract that allows minting ERC20 tokens with custom names and symbols",
    "version": 1
  },
  "storageLayout": {
    "storage": [
      {
        "astId": 8,
        "contract": "contracts/TokenMinter.sol:TokenMinter",
        "label": "_owner",
        "offset": 0,
        "slot": "0",
        "type": "t_address"
      },
      {
        "astId": 1537,
        "contract": "contracts/TokenMinter.sol:TokenMinter",
        "label": "tokensByName",
        "offset": 0,
        "slot": "1",
        "type": "t_mapping(t_string_memory_ptr,t_address)"
      },
      {
        "astId": 1540,
        "contract": "contracts/TokenMinter.sol:TokenMinter",
        "label": "allTokens",
        "offset": 0,
        "slot": "2",
        "type": "t_array(t_address)dyn_storage"
      },
      {
        "astId": 1542,
        "contract": "contracts/TokenMinter.sol:TokenMinter",
        "label": "usdxToken",
        "offset": 0,
        "slot": "3",
        "type": "t_address"
      }
    ],
    "types": {
      "t_address": {
        "encoding": "inplace",
        "label": "address",
        "numberOfBytes": "20"
      },
      "t_array(t_address)dyn_storage": {
        "base": "t_address",
        "encoding": "dynamic_array",
        "label": "address[]",
        "numberOfBytes": "32"
      },
      "t_mapping(t_string_memory_ptr,t_address)": {
        "encoding": "mapping",
        "key": "t_string_memory_ptr",
        "label": "mapping(string => address)",
        "numberOfBytes": "32",
        "value": "t_address"
      },
      "t_string_memory_ptr": {
        "encoding": "bytes",
        "label": "string",
        "numberOfBytes": "32"
      }
    }
  }
}